{
  "contractName": "GnosisSafe",
  "abi": [
    {
      "constant": false,
      "inputs": [
        {
          "name": "owner",
          "type": "address"
        },
        {
          "name": "_threshold",
          "type": "uint256"
        }
      ],
      "name": "addOwnerWithThreshold",
      "outputs": [],
      "payable": false,
      "stateMutability": "nonpayable",
      "type": "function"
    },
    {
      "constant": true,
      "inputs": [],
      "name": "DOMAIN_SEPARATOR_TYPEHASH",
      "outputs": [
        {
          "name": "",
          "type": "bytes32"
        }
      ],
      "payable": false,
      "stateMutability": "view",
      "type": "function"
    },
    {
      "constant": true,
      "inputs": [
        {
          "name": "owner",
          "type": "address"
        }
      ],
      "name": "isOwner",
      "outputs": [
        {
          "name": "",
          "type": "bool"
        }
      ],
      "payable": false,
      "stateMutability": "view",
      "type": "function"
    },
    {
      "constant": false,
      "inputs": [
        {
          "name": "to",
          "type": "address"
        },
        {
          "name": "value",
          "type": "uint256"
        },
        {
          "name": "data",
          "type": "bytes"
        },
        {
          "name": "operation",
          "type": "uint8"
        }
      ],
      "name": "execTransactionFromModule",
      "outputs": [
        {
          "name": "success",
          "type": "bool"
        }
      ],
      "payable": false,
      "stateMutability": "nonpayable",
      "type": "function"
    },
    {
      "constant": true,
      "inputs": [
        {
          "name": "",
          "type": "bytes32"
        }
      ],
      "name": "signedMessages",
      "outputs": [
        {
          "name": "",
          "type": "uint256"
        }
      ],
      "payable": false,
      "stateMutability": "view",
      "type": "function"
    },
    {
      "constant": false,
      "inputs": [
        {
          "name": "module",
          "type": "address"
        }
      ],
      "name": "enableModule",
      "outputs": [],
      "payable": false,
      "stateMutability": "nonpayable",
      "type": "function"
    },
    {
      "constant": false,
      "inputs": [
        {
          "name": "_threshold",
          "type": "uint256"
        }
      ],
      "name": "changeThreshold",
      "outputs": [],
      "payable": false,
      "stateMutability": "nonpayable",
      "type": "function"
    },
    {
      "constant": true,
      "inputs": [
        {
          "name": "",
          "type": "address"
        },
        {
          "name": "",
          "type": "bytes32"
        }
      ],
      "name": "approvedHashes",
      "outputs": [
        {
          "name": "",
          "type": "uint256"
        }
      ],
      "payable": false,
      "stateMutability": "view",
      "type": "function"
    },
    {
      "constant": false,
      "inputs": [
        {
          "name": "_masterCopy",
          "type": "address"
        }
      ],
      "name": "changeMasterCopy",
      "outputs": [],
      "payable": false,
      "stateMutability": "nonpayable",
      "type": "function"
    },
    {
      "constant": true,
      "inputs": [],
      "name": "SENTINEL_MODULES",
      "outputs": [
        {
          "name": "",
          "type": "address"
        }
      ],
      "payable": false,
      "stateMutability": "view",
      "type": "function"
    },
    {
      "constant": true,
      "inputs": [],
      "name": "SENTINEL_OWNERS",
      "outputs": [
        {
          "name": "",
          "type": "address"
        }
      ],
      "payable": false,
      "stateMutability": "view",
      "type": "function"
    },
    {
      "constant": true,
      "inputs": [],
      "name": "getOwners",
      "outputs": [
        {
          "name": "",
          "type": "address[]"
        }
      ],
      "payable": false,
      "stateMutability": "view",
      "type": "function"
    },
    {
      "constant": true,
      "inputs": [],
      "name": "NAME",
      "outputs": [
        {
          "name": "",
          "type": "string"
        }
      ],
      "payable": false,
      "stateMutability": "view",
      "type": "function"
    },
    {
      "constant": true,
      "inputs": [],
      "name": "nonce",
      "outputs": [
        {
          "name": "",
          "type": "uint256"
        }
      ],
      "payable": false,
      "stateMutability": "view",
      "type": "function"
    },
    {
      "constant": true,
      "inputs": [],
      "name": "getModules",
      "outputs": [
        {
          "name": "",
          "type": "address[]"
        }
      ],
      "payable": false,
      "stateMutability": "view",
      "type": "function"
    },
    {
      "constant": true,
      "inputs": [],
      "name": "SAFE_MSG_TYPEHASH",
      "outputs": [
        {
          "name": "",
          "type": "bytes32"
        }
      ],
      "payable": false,
      "stateMutability": "view",
      "type": "function"
    },
    {
      "constant": true,
      "inputs": [],
      "name": "SAFE_TX_TYPEHASH",
      "outputs": [
        {
          "name": "",
          "type": "bytes32"
        }
      ],
      "payable": false,
      "stateMutability": "view",
      "type": "function"
    },
    {
      "constant": false,
      "inputs": [
        {
          "name": "prevModule",
          "type": "address"
        },
        {
          "name": "module",
          "type": "address"
        }
      ],
      "name": "disableModule",
      "outputs": [],
      "payable": false,
      "stateMutability": "nonpayable",
      "type": "function"
    },
    {
      "constant": false,
      "inputs": [
        {
          "name": "prevOwner",
          "type": "address"
        },
        {
          "name": "oldOwner",
          "type": "address"
        },
        {
          "name": "newOwner",
          "type": "address"
        }
      ],
      "name": "swapOwner",
      "outputs": [],
      "payable": false,
      "stateMutability": "nonpayable",
      "type": "function"
    },
    {
      "constant": true,
      "inputs": [],
      "name": "getThreshold",
      "outputs": [
        {
          "name": "",
          "type": "uint256"
        }
      ],
      "payable": false,
      "stateMutability": "view",
      "type": "function"
    },
    {
      "constant": false,
      "inputs": [
        {
          "name": "handler",
          "type": "address"
        }
      ],
      "name": "setFallbackHandler",
      "outputs": [],
      "payable": false,
      "stateMutability": "nonpayable",
      "type": "function"
    },
    {
      "constant": true,
      "inputs": [],
      "name": "domainSeparator",
      "outputs": [
        {
          "name": "",
          "type": "bytes32"
        }
      ],
      "payable": false,
      "stateMutability": "view",
      "type": "function"
    },
    {
      "constant": false,
      "inputs": [
        {
          "name": "prevOwner",
          "type": "address"
        },
        {
          "name": "owner",
          "type": "address"
        },
        {
          "name": "_threshold",
          "type": "uint256"
        }
      ],
      "name": "removeOwner",
      "outputs": [],
      "payable": false,
      "stateMutability": "nonpayable",
      "type": "function"
    },
    {
      "constant": true,
      "inputs": [],
      "name": "VERSION",
      "outputs": [
        {
          "name": "",
          "type": "string"
        }
      ],
      "payable": false,
      "stateMutability": "view",
      "type": "function"
    },
    {
      "payable": true,
      "stateMutability": "payable",
      "type": "fallback"
    },
    {
      "anonymous": false,
      "inputs": [
        {
          "indexed": false,
          "name": "txHash",
          "type": "bytes32"
        }
      ],
      "name": "ExecutionFailed",
      "type": "event"
    },
    {
      "anonymous": false,
      "inputs": [
        {
          "indexed": false,
          "name": "owner",
          "type": "address"
        }
      ],
      "name": "AddedOwner",
      "type": "event"
    },
    {
      "anonymous": false,
      "inputs": [
        {
          "indexed": false,
          "name": "owner",
          "type": "address"
        }
      ],
      "name": "RemovedOwner",
      "type": "event"
    },
    {
      "anonymous": false,
      "inputs": [
        {
          "indexed": false,
          "name": "threshold",
          "type": "uint256"
        }
      ],
      "name": "ChangedThreshold",
      "type": "event"
    },
    {
      "anonymous": false,
      "inputs": [
        {
          "indexed": false,
          "name": "module",
          "type": "address"
        }
      ],
      "name": "EnabledModule",
      "type": "event"
    },
    {
      "anonymous": false,
      "inputs": [
        {
          "indexed": false,
          "name": "module",
          "type": "address"
        }
      ],
      "name": "DisabledModule",
      "type": "event"
    },
    {
      "anonymous": false,
      "inputs": [
        {
          "indexed": false,
          "name": "newContract",
          "type": "address"
        }
      ],
      "name": "ContractCreation",
      "type": "event"
    },
    {
      "anonymous": false,
      "inputs": [
        {
          "indexed": false,
          "name": "masterCopy",
          "type": "address"
        }
      ],
      "name": "ChangedMasterCopy",
      "type": "event"
    },
    {
      "constant": false,
      "inputs": [
        {
          "name": "_owners",
          "type": "address[]"
        },
        {
          "name": "_threshold",
          "type": "uint256"
        },
        {
          "name": "to",
          "type": "address"
        },
        {
          "name": "data",
          "type": "bytes"
        },
        {
          "name": "fallbackHandler",
          "type": "address"
        },
        {
          "name": "paymentToken",
          "type": "address"
        },
        {
          "name": "payment",
          "type": "uint256"
        },
        {
          "name": "paymentReceiver",
          "type": "address"
        }
      ],
      "name": "setup",
      "outputs": [],
      "payable": false,
      "stateMutability": "nonpayable",
      "type": "function"
    },
    {
      "constant": false,
      "inputs": [
        {
          "name": "to",
          "type": "address"
        },
        {
          "name": "value",
          "type": "uint256"
        },
        {
          "name": "data",
          "type": "bytes"
        },
        {
          "name": "operation",
          "type": "uint8"
        },
        {
          "name": "safeTxGas",
          "type": "uint256"
        },
        {
          "name": "baseGas",
          "type": "uint256"
        },
        {
          "name": "gasPrice",
          "type": "uint256"
        },
        {
          "name": "gasToken",
          "type": "address"
        },
        {
          "name": "refundReceiver",
          "type": "address"
        },
        {
          "name": "signatures",
          "type": "bytes"
        }
      ],
      "name": "execTransaction",
      "outputs": [
        {
          "name": "success",
          "type": "bool"
        }
      ],
      "payable": false,
      "stateMutability": "nonpayable",
      "type": "function"
    },
    {
      "constant": false,
      "inputs": [
        {
          "name": "to",
          "type": "address"
        },
        {
          "name": "value",
          "type": "uint256"
        },
        {
          "name": "data",
          "type": "bytes"
        },
        {
          "name": "operation",
          "type": "uint8"
        }
      ],
      "name": "requiredTxGas",
      "outputs": [
        {
          "name": "",
          "type": "uint256"
        }
      ],
      "payable": false,
      "stateMutability": "nonpayable",
      "type": "function"
    },
    {
      "constant": false,
      "inputs": [
        {
          "name": "hashToApprove",
          "type": "bytes32"
        }
      ],
      "name": "approveHash",
      "outputs": [],
      "payable": false,
      "stateMutability": "nonpayable",
      "type": "function"
    },
    {
      "constant": false,
      "inputs": [
        {
          "name": "_data",
          "type": "bytes"
        }
      ],
      "name": "signMessage",
      "outputs": [],
      "payable": false,
      "stateMutability": "nonpayable",
      "type": "function"
    },
    {
      "constant": false,
      "inputs": [
        {
          "name": "_data",
          "type": "bytes"
        },
        {
          "name": "_signature",
          "type": "bytes"
        }
      ],
      "name": "isValidSignature",
      "outputs": [
        {
          "name": "",
          "type": "bytes4"
        }
      ],
      "payable": false,
      "stateMutability": "nonpayable",
      "type": "function"
    },
    {
      "constant": true,
      "inputs": [
        {
          "name": "message",
          "type": "bytes"
        }
      ],
      "name": "getMessageHash",
      "outputs": [
        {
          "name": "",
          "type": "bytes32"
        }
      ],
      "payable": false,
      "stateMutability": "view",
      "type": "function"
    },
    {
      "constant": true,
      "inputs": [
        {
          "name": "to",
          "type": "address"
        },
        {
          "name": "value",
          "type": "uint256"
        },
        {
          "name": "data",
          "type": "bytes"
        },
        {
          "name": "operation",
          "type": "uint8"
        },
        {
          "name": "safeTxGas",
          "type": "uint256"
        },
        {
          "name": "baseGas",
          "type": "uint256"
        },
        {
          "name": "gasPrice",
          "type": "uint256"
        },
        {
          "name": "gasToken",
          "type": "address"
        },
        {
          "name": "refundReceiver",
          "type": "address"
        },
        {
          "name": "_nonce",
          "type": "uint256"
        }
      ],
      "name": "encodeTransactionData",
      "outputs": [
        {
          "name": "",
          "type": "bytes"
        }
      ],
      "payable": false,
      "stateMutability": "view",
      "type": "function"
    },
    {
      "constant": true,
      "inputs": [
        {
          "name": "to",
          "type": "address"
        },
        {
          "name": "value",
          "type": "uint256"
        },
        {
          "name": "data",
          "type": "bytes"
        },
        {
          "name": "operation",
          "type": "uint8"
        },
        {
          "name": "safeTxGas",
          "type": "uint256"
        },
        {
          "name": "baseGas",
          "type": "uint256"
        },
        {
          "name": "gasPrice",
          "type": "uint256"
        },
        {
          "name": "gasToken",
          "type": "address"
        },
        {
          "name": "refundReceiver",
          "type": "address"
        },
        {
          "name": "_nonce",
          "type": "uint256"
        }
      ],
      "name": "getTransactionHash",
      "outputs": [
        {
          "name": "",
          "type": "bytes32"
        }
      ],
      "payable": false,
      "stateMutability": "view",
      "type": "function"
    }
  ],
  "bytecode": "0x608060405234801561001057600080fd5b50615bd480620000216000396000f3fe6080604052600436106101ee5760003560e01c8063a3f4df7e1161010d578063d8d11f78116100a0578063e86637db1161006f578063e86637db1461120d578063f08a0323146113ee578063f698da251461143f578063f8dc5dd91461146a578063ffa1ad74146114e5576101ee565b8063d8d11f7814610f64578063e009cfde146110e0578063e318b52b14611151578063e75235b8146111e2576101ee565b8063c0856ffc116100dc578063c0856ffc14610e02578063c4ca3a9c14610e2d578063ccafc38714610efe578063d4d9bdcd14610f29576101ee565b8063a3f4df7e14610b6b578063affed0e014610bfb578063b2494df314610c26578063b63e800d14610c92576101ee565b8063694e80c31161018557806385a5affe1161015457806385a5affe146109cb57806385e332cd14610a515780638cff635514610aa8578063a0e67e2b14610aff576101ee565b8063694e80c3146107475780636a761202146107825780637d8329741461090b5780637de7edef1461097a576101ee565b80632f54bf6e116101c15780632f54bf6e14610527578063468721a7146105905780635ae6bd37146106a7578063610b5925146106f6576101ee565b80630a1028c4146102985780630d582f13146103745780631db61b54146103cf57806320c13b0b146103fa575b60003411806102005750600080369050145b1561020a57610296565b60007f6c9a6c4a39284e37ed1cf53d337577d14212a4870fb976a4366c693b939918d560001b9050600081549050600073ffffffffffffffffffffffffffffffffffffffff168173ffffffffffffffffffffffffffffffffffffffff161461029357366000803760008036600080855af13d6000803e600081141561028e573d6000fd5b3d6000f35b50505b005b3480156102a457600080fd5b5061035e600480360360208110156102bb57600080fd5b81019080803590602001906401000000008111156102d857600080fd5b8201836020820111156102ea57600080fd5b8035906020019184600183028401116401000000008311171561030c57600080fd5b91908080601f016020809104026020016040519081016040528093929190818152602001838380828437600081840152601f19601f820116905080830192505050505050509192919290505050611575565b6040518082815260200191505060405180910390f35b34801561038057600080fd5b506103cd6004803603604081101561039757600080fd5b81019080803573ffffffffffffffffffffffffffffffffffffffff169060200190929190803590602001909291905050506116ac565b005b3480156103db57600080fd5b506103e4611af6565b6040518082815260200191505060405180910390f35b34801561040657600080fd5b506104d36004803603604081101561041d57600080fd5b810190808035906020019064010000000081111561043a57600080fd5b82018360208201111561044c57600080fd5b8035906020019184600183028401116401000000008311171561046e57600080fd5b90919293919293908035906020019064010000000081111561048f57600080fd5b8201836020820111156104a157600080fd5b803590602001918460018302840111640100000000831117156104c357600080fd5b9091929391929390505050611b1d565b60405180827bffffffffffffffffffffffffffffffffffffffffffffffffffffffff19167bffffffffffffffffffffffffffffffffffffffffffffffffffffffff1916815260200191505060405180910390f35b34801561053357600080fd5b506105766004803603602081101561054a57600080fd5b81019080803573ffffffffffffffffffffffffffffffffffffffff169060200190929190505050611cb3565b604051808215151515815260200191505060405180910390f35b34801561059c57600080fd5b5061068d600480360360808110156105b357600080fd5b81019080803573ffffffffffffffffffffffffffffffffffffffff16906020019092919080359060200190929190803590602001906401000000008111156105fa57600080fd5b82018360208201111561060c57600080fd5b8035906020019184600183028401116401000000008311171561062e57600080fd5b91908080601f016020809104026020016040519081016040528093929190818152602001838380828437600081840152601f19601f820116905080830192505050505050509192919290803560ff169060200190929190505050611d85565b604051808215151515815260200191505060405180910390f35b3480156106b357600080fd5b506106e0600480360360208110156106ca57600080fd5b8101908080359060200190929190505050611ebc565b6040518082815260200191505060405180910390f35b34801561070257600080fd5b506107456004803603602081101561071957600080fd5b81019080803573ffffffffffffffffffffffffffffffffffffffff169060200190929190505050611ed4565b005b34801561075357600080fd5b506107806004803603602081101561076a57600080fd5b81019080803590602001909291905050506122f8565b005b34801561078e57600080fd5b506108f160048036036101408110156107a657600080fd5b81019080803573ffffffffffffffffffffffffffffffffffffffff16906020019092919080359060200190929190803590602001906401000000008111156107ed57600080fd5b8201836020820111156107ff57600080fd5b8035906020019184600183028401116401000000008311171561082157600080fd5b9091929391929390803560ff169060200190929190803590602001909291908035906020019092919080359060200190929190803573ffffffffffffffffffffffffffffffffffffffff169060200190929190803573ffffffffffffffffffffffffffffffffffffffff169060200190929190803590602001906401000000008111156108ad57600080fd5b8201836020820111156108bf57600080fd5b803590602001918460018302840111640100000000831117156108e157600080fd5b9091929391929390505050612474565b604051808215151515815260200191505060405180910390f35b34801561091757600080fd5b506109646004803603604081101561092e57600080fd5b81019080803573ffffffffffffffffffffffffffffffffffffffff1690602001909291908035906020019092919050505061268a565b6040518082815260200191505060405180910390f35b34801561098657600080fd5b506109c96004803603602081101561099d57600080fd5b81019080803573ffffffffffffffffffffffffffffffffffffffff1690602001909291905050506126af565b005b3480156109d757600080fd5b50610a4f600480360360208110156109ee57600080fd5b8101908080359060200190640100000000811115610a0b57600080fd5b820183602082011115610a1d57600080fd5b80359060200191846001830284011164010000000083111715610a3f57600080fd5b909192939192939050505061285f565b005b348015610a5d57600080fd5b50610a6661294c565b604051808273ffffffffffffffffffffffffffffffffffffffff1673ffffffffffffffffffffffffffffffffffffffff16815260200191505060405180910390f35b348015610ab457600080fd5b50610abd612951565b604051808273ffffffffffffffffffffffffffffffffffffffff1673ffffffffffffffffffffffffffffffffffffffff16815260200191505060405180910390f35b348015610b0b57600080fd5b50610b14612956565b6040518080602001828103825283818151815260200191508051906020019060200280838360005b83811015610b57578082015181840152602081019050610b3c565b505050509050019250505060405180910390f35b348015610b7757600080fd5b50610b80612aeb565b6040518080602001828103825283818151815260200191508051906020019080838360005b83811015610bc0578082015181840152602081019050610ba5565b50505050905090810190601f168015610bed5780820380516001836020036101000a031916815260200191505b509250505060405180910390f35b348015610c0757600080fd5b50610c10612b24565b6040518082815260200191505060405180910390f35b348015610c3257600080fd5b50610c3b612b2a565b6040518080602001828103825283818151815260200191508051906020019060200280838360005b83811015610c7e578082015181840152602081019050610c63565b505050509050019250505060405180910390f35b348015610c9e57600080fd5b50610e006004803603610100811015610cb657600080fd5b8101908080359060200190640100000000811115610cd357600080fd5b820183602082011115610ce557600080fd5b80359060200191846020830284011164010000000083111715610d0757600080fd5b909192939192939080359060200190929190803573ffffffffffffffffffffffffffffffffffffffff16906020019092919080359060200190640100000000811115610d5257600080fd5b820183602082011115610d6457600080fd5b80359060200191846001830284011164010000000083111715610d8657600080fd5b9091929391929390803573ffffffffffffffffffffffffffffffffffffffff169060200190929190803573ffffffffffffffffffffffffffffffffffffffff16906020019092919080359060200190929190803573ffffffffffffffffffffffffffffffffffffffff169060200190929190505050612dc9565b005b348015610e0e57600080fd5b50610e17612fc3565b6040518082815260200191505060405180910390f35b348015610e3957600080fd5b50610ee860048036036080811015610e5057600080fd5b81019080803573ffffffffffffffffffffffffffffffffffffffff1690602001909291908035906020019092919080359060200190640100000000811115610e9757600080fd5b820183602082011115610ea957600080fd5b80359060200191846001830284011164010000000083111715610ecb57600080fd5b9091929391929390803560ff169060200190929190505050612fea565b6040518082815260200191505060405180910390f35b348015610f0a57600080fd5b50610f13613197565b6040518082815260200191505060405180910390f35b348015610f3557600080fd5b50610f6260048036036020811015610f4c57600080fd5b81019080803590602001909291905050506131be565b005b348015610f7057600080fd5b506110ca6004803603610140811015610f8857600080fd5b81019080803573ffffffffffffffffffffffffffffffffffffffff1690602001909291908035906020019092919080359060200190640100000000811115610fcf57600080fd5b820183602082011115610fe157600080fd5b8035906020019184600183028401116401000000008311171561100357600080fd5b91908080601f016020809104026020016040519081016040528093929190818152602001838380828437600081840152601f19601f820116905080830192505050505050509192919290803560ff169060200190929190803590602001909291908035906020019092919080359060200190929190803573ffffffffffffffffffffffffffffffffffffffff169060200190929190803573ffffffffffffffffffffffffffffffffffffffff16906020019092919080359060200190929190505050613319565b6040518082815260200191505060405180910390f35b3480156110ec57600080fd5b5061114f6004803603604081101561110357600080fd5b81019080803573ffffffffffffffffffffffffffffffffffffffff169060200190929190803573ffffffffffffffffffffffffffffffffffffffff169060200190929190505050613344565b005b34801561115d57600080fd5b506111e06004803603606081101561117457600080fd5b81019080803573ffffffffffffffffffffffffffffffffffffffff169060200190929190803573ffffffffffffffffffffffffffffffffffffffff169060200190929190803573ffffffffffffffffffffffffffffffffffffffff16906020019092919050505061374a565b005b3480156111ee57600080fd5b506111f7613e0f565b6040518082815260200191505060405180910390f35b34801561121957600080fd5b50611373600480360361014081101561123157600080fd5b81019080803573ffffffffffffffffffffffffffffffffffffffff169060200190929190803590602001909291908035906020019064010000000081111561127857600080fd5b82018360208201111561128a57600080fd5b803590602001918460018302840111640100000000831117156112ac57600080fd5b91908080601f016020809104026020016040519081016040528093929190818152602001838380828437600081840152601f19601f820116905080830192505050505050509192919290803560ff169060200190929190803590602001909291908035906020019092919080359060200190929190803573ffffffffffffffffffffffffffffffffffffffff169060200190929190803573ffffffffffffffffffffffffffffffffffffffff16906020019092919080359060200190929190505050613e19565b6040518080602001828103825283818151815260200191508051906020019080838360005b838110156113b3578082015181840152602081019050611398565b50505050905090810190601f1680156113e05780820380516001836020036101000a031916815260200191505b509250505060405180910390f35b3480156113fa57600080fd5b5061143d6004803603602081101561141157600080fd5b81019080803573ffffffffffffffffffffffffffffffffffffffff16906020019092919050505061402d565b005b34801561144b57600080fd5b506114546140bd565b6040518082815260200191505060405180910390f35b34801561147657600080fd5b506114e36004803603606081101561148d57600080fd5b81019080803573ffffffffffffffffffffffffffffffffffffffff169060200190929190803573ffffffffffffffffffffffffffffffffffffffff169060200190929190803590602001909291905050506140c3565b005b3480156114f157600080fd5b506114fa61454e565b6040518080602001828103825283818151815260200191508051906020019080838360005b8381101561153a57808201518184015260208101905061151f565b50505050905090810190601f1680156115675780820380516001836020036101000a031916815260200191505b509250505060405180910390f35b6000807f60b3cbf8b4a223d68d641b3b6ddf9a298e7f33710cf3d3a9d1146b5a6150fbca60001b83805190602001206040516020018083815260200182815260200192505050604051602081830303815290604052805190602001209050601960f81b600160f81b6006548360405160200180857effffffffffffffffffffffffffffffffffffffffffffffffffffffffffffff19167effffffffffffffffffffffffffffffffffffffffffffffffffffffffffffff19168152600101847effffffffffffffffffffffffffffffffffffffffffffffffffffffffffffff19167effffffffffffffffffffffffffffffffffffffffffffffffffffffffffffff1916815260010183815260200182815260200194505050505060405160208183030381529060405280519060200120915050919050565b3073ffffffffffffffffffffffffffffffffffffffff163373ffffffffffffffffffffffffffffffffffffffff1614611730576040517f08c379a000000000000000000000000000000000000000000000000000000000815260040180806020018281038252602c815260200180615aca602c913960400191505060405180910390fd5b600073ffffffffffffffffffffffffffffffffffffffff168273ffffffffffffffffffffffffffffffffffffffff161415801561179a5750600173ffffffffffffffffffffffffffffffffffffffff168273ffffffffffffffffffffffffffffffffffffffff1614155b61180c576040517f08c379a000000000000000000000000000000000000000000000000000000000815260040180806020018281038252601e8152602001807f496e76616c6964206f776e657220616464726573732070726f7669646564000081525060200191505060405180910390fd5b600073ffffffffffffffffffffffffffffffffffffffff16600260008473ffffffffffffffffffffffffffffffffffffffff1673ffffffffffffffffffffffffffffffffffffffff16815260200190815260200160002060009054906101000a900473ffffffffffffffffffffffffffffffffffffffff1673ffffffffffffffffffffffffffffffffffffffff161461190d576040517f08c379a000000000000000000000000000000000000000000000000000000000815260040180806020018281038252601b8152602001807f4164647265737320697320616c726561647920616e206f776e6572000000000081525060200191505060405180910390fd5b60026000600173ffffffffffffffffffffffffffffffffffffffff1673ffffffffffffffffffffffffffffffffffffffff16815260200190815260200160002060009054906101000a900473ffffffffffffffffffffffffffffffffffffffff16600260008473ffffffffffffffffffffffffffffffffffffffff1673ffffffffffffffffffffffffffffffffffffffff16815260200190815260200160002060006101000a81548173ffffffffffffffffffffffffffffffffffffffff021916908373ffffffffffffffffffffffffffffffffffffffff1602179055508160026000600173ffffffffffffffffffffffffffffffffffffffff1673ffffffffffffffffffffffffffffffffffffffff16815260200190815260200160002060006101000a81548173ffffffffffffffffffffffffffffffffffffffff021916908373ffffffffffffffffffffffffffffffffffffffff1602179055506003600081548092919060010191905055507f9465fa0c962cc76958e6373a993326400c1c94f8be2fe3a952adfa7f60b2ea2682604051808273ffffffffffffffffffffffffffffffffffffffff1673ffffffffffffffffffffffffffffffffffffffff16815260200191505060405180910390a18060045414611af257611af1816122f8565b5b5050565b7f035aff83d86937d35b32e04f0ddc6ff469290eef2f1b692d8a815c89404d474960001b81565b600080611b6d86868080601f016020809104026020016040519081016040528093929190818152602001838380828437600081840152601f19601f82011690508083019250505050505050611575565b90506000848490501415611c0a57600060076000838152602001908152602001600020541415611c05576040517f08c379a00000000000000000000000000000000000000000000000000000000081526004018080602001828103825260118152602001807f48617368206e6f7420617070726f76656400000000000000000000000000000081525060200191505060405180910390fd5b611ca0565b611c9f8187878080601f016020809104026020016040519081016040528093929190818152602001838380828437600081840152601f19601f8201169050808301925050505050505086868080601f016020809104026020016040519081016040528093929190818152602001838380828437600081840152601f19601f820116905080830192505050505050506000614587565b5b6320c13b0b60e01b915050949350505050565b6000600173ffffffffffffffffffffffffffffffffffffffff168273ffffffffffffffffffffffffffffffffffffffff1614158015611d7e5750600073ffffffffffffffffffffffffffffffffffffffff16600260008473ffffffffffffffffffffffffffffffffffffffff1673ffffffffffffffffffffffffffffffffffffffff16815260200190815260200160002060009054906101000a900473ffffffffffffffffffffffffffffffffffffffff1673ffffffffffffffffffffffffffffffffffffffff1614155b9050919050565b6000600173ffffffffffffffffffffffffffffffffffffffff163373ffffffffffffffffffffffffffffffffffffffff1614158015611e505750600073ffffffffffffffffffffffffffffffffffffffff16600160003373ffffffffffffffffffffffffffffffffffffffff1673ffffffffffffffffffffffffffffffffffffffff16815260200190815260200160002060009054906101000a900473ffffffffffffffffffffffffffffffffffffffff1673ffffffffffffffffffffffffffffffffffffffff1614155b611ea5576040517f08c379a0000000000000000000000000000000000000000000000000000000008152600401808060200182810382526030815260200180615af66030913960400191505060405180910390fd5b611eb2858585855a614e3d565b9050949350505050565b60076020528060005260406000206000915090505481565b3073ffffffffffffffffffffffffffffffffffffffff163373ffffffffffffffffffffffffffffffffffffffff1614611f58576040517f08c379a000000000000000000000000000000000000000000000000000000000815260040180806020018281038252602c815260200180615aca602c913960400191505060405180910390fd5b600073ffffffffffffffffffffffffffffffffffffffff168173ffffffffffffffffffffffffffffffffffffffff1614158015611fc25750600173ffffffffffffffffffffffffffffffffffffffff168173ffffffffffffffffffffffffffffffffffffffff1614155b612034576040517f08c379a000000000000000000000000000000000000000000000000000000000815260040180806020018281038252601f8152602001807f496e76616c6964206d6f64756c6520616464726573732070726f76696465640081525060200191505060405180910390fd5b600073ffffffffffffffffffffffffffffffffffffffff16600160008373ffffffffffffffffffffffffffffffffffffffff1673ffffffffffffffffffffffffffffffffffffffff16815260200190815260200160002060009054906101000a900473ffffffffffffffffffffffffffffffffffffffff1673ffffffffffffffffffffffffffffffffffffffff1614612135576040517f08c379a000000000000000000000000000000000000000000000000000000000815260040180806020018281038252601d8152602001807f4d6f64756c652068617320616c7265616479206265656e20616464656400000081525060200191505060405180910390fd5b60016000600173ffffffffffffffffffffffffffffffffffffffff1673ffffffffffffffffffffffffffffffffffffffff16815260200190815260200160002060009054906101000a900473ffffffffffffffffffffffffffffffffffffffff16600160008373ffffffffffffffffffffffffffffffffffffffff1673ffffffffffffffffffffffffffffffffffffffff16815260200190815260200160002060006101000a81548173ffffffffffffffffffffffffffffffffffffffff021916908373ffffffffffffffffffffffffffffffffffffffff1602179055508060016000600173ffffffffffffffffffffffffffffffffffffffff1673ffffffffffffffffffffffffffffffffffffffff16815260200190815260200160002060006101000a81548173ffffffffffffffffffffffffffffffffffffffff021916908373ffffffffffffffffffffffffffffffffffffffff1602179055507fecdf3a3effea5783a3c4c2140e677577666428d44ed9d474a0b3a4c9943f844081604051808273ffffffffffffffffffffffffffffffffffffffff1673ffffffffffffffffffffffffffffffffffffffff16815260200191505060405180910390a150565b3073ffffffffffffffffffffffffffffffffffffffff163373ffffffffffffffffffffffffffffffffffffffff161461237c576040517f08c379a000000000000000000000000000000000000000000000000000000000815260040180806020018281038252602c815260200180615aca602c913960400191505060405180910390fd5b6003548111156123d7576040517f08c379a00000000000000000000000000000000000000000000000000000000081526004018080602001828103825260238152602001806159996023913960400191505060405180910390fd5b6001811015612431576040517f08c379a0000000000000000000000000000000000000000000000000000000008152600401808060200182810382526024815260200180615a6f6024913960400191505060405180910390fd5b806004819055507f610f7ff2b304ae8903c3de74c60c6ab1f7d6226b3f52c5161905bb5ad4039c936004546040518082815260200191505060405180910390a150565b600060606124d08e8e8e8e8080601f016020809104026020016040519081016040528093929190818152602001838380828437600081840152601f19601f820116905080830192505050505050508d8d8d8d8d8d600554613e19565b905060056000815480929190600101919050555061253c81805190602001208286868080601f016020809104026020016040519081016040528093929190818152602001838380828437600081840152601f19601f820116905080830192505050505050506001614587565b885a1015612595576040517f08c379a000000000000000000000000000000000000000000000000000000000815260040180806020018281038252602a815260200180615b7f602a913960400191505060405180910390fd5b60005a90506126068f8f8f8f8080601f016020809104026020016040519081016040528093929190818152602001838380828437600081840152601f19601f820116905080830192505050505050508e60008f1480156125f5575060008d145b6125ff578e612601565b5a5b614e3d565b925061261b5a82614eaf90919063ffffffff16565b905082612661577fabfd711ecdd15ae3a6b3ad16ff2e9d81aec026a39d16725ee164be4fbf857a7c82805190602001206040518082815260200191505060405180910390a15b600088111561267857612677818a8a8a8a614ecf565b5b50509c9b505050505050505050505050565b6008602052816000526040600020602052806000526040600020600091509150505481565b3073ffffffffffffffffffffffffffffffffffffffff163373ffffffffffffffffffffffffffffffffffffffff1614612733576040517f08c379a000000000000000000000000000000000000000000000000000000000815260040180806020018281038252602c815260200180615aca602c913960400191505060405180910390fd5b600073ffffffffffffffffffffffffffffffffffffffff168173ffffffffffffffffffffffffffffffffffffffff1614156127b9576040517f08c379a00000000000000000000000000000000000000000000000000000000081526004018080602001828103825260248152602001806159056024913960400191505060405180910390fd5b806000806101000a81548173ffffffffffffffffffffffffffffffffffffffff021916908373ffffffffffffffffffffffffffffffffffffffff1602179055507f75e41bc35ff1bf14d81d1d2f649c0084a0f974f9289c803ec9898eeec4c8d0b881604051808273ffffffffffffffffffffffffffffffffffffffff1673ffffffffffffffffffffffffffffffffffffffff16815260200191505060405180910390a150565b3073ffffffffffffffffffffffffffffffffffffffff163373ffffffffffffffffffffffffffffffffffffffff16146128e3576040517f08c379a000000000000000000000000000000000000000000000000000000000815260040180806020018281038252602c815260200180615aca602c913960400191505060405180910390fd5b60016007600061293685858080601f016020809104026020016040519081016040528093929190818152602001838380828437600081840152601f19601f82011690508083019250505050505050611575565b8152602001908152602001600020819055505050565b600181565b600181565b60608060035460405190808252806020026020018201604052801561298a5781602001602082028038833980820191505090505b5090506000809050600060026000600173ffffffffffffffffffffffffffffffffffffffff1673ffffffffffffffffffffffffffffffffffffffff16815260200190815260200160002060009054906101000a900473ffffffffffffffffffffffffffffffffffffffff1690505b600173ffffffffffffffffffffffffffffffffffffffff168173ffffffffffffffffffffffffffffffffffffffff1614612ae25780838381518110612a3957fe5b602002602001019073ffffffffffffffffffffffffffffffffffffffff16908173ffffffffffffffffffffffffffffffffffffffff1681525050600260008273ffffffffffffffffffffffffffffffffffffffff1673ffffffffffffffffffffffffffffffffffffffff16815260200190815260200160002060009054906101000a900473ffffffffffffffffffffffffffffffffffffffff16905081806001019250506129f8565b82935050505090565b6040518060400160405280600b81526020017f476e6f736973205361666500000000000000000000000000000000000000000081525081565b60055481565b60606000809050600060016000600173ffffffffffffffffffffffffffffffffffffffff1673ffffffffffffffffffffffffffffffffffffffff16815260200190815260200160002060009054906101000a900473ffffffffffffffffffffffffffffffffffffffff1690505b600173ffffffffffffffffffffffffffffffffffffffff168173ffffffffffffffffffffffffffffffffffffffff1614612c3a57600160008273ffffffffffffffffffffffffffffffffffffffff1673ffffffffffffffffffffffffffffffffffffffff16815260200190815260200160002060009054906101000a900473ffffffffffffffffffffffffffffffffffffffff1690508180600101925050612b97565b606082604051908082528060200260200182016040528015612c6b5781602001602082028038833980820191505090505b5090506000925060016000600173ffffffffffffffffffffffffffffffffffffffff1673ffffffffffffffffffffffffffffffffffffffff16815260200190815260200160002060009054906101000a900473ffffffffffffffffffffffffffffffffffffffff1691505b600173ffffffffffffffffffffffffffffffffffffffff168273ffffffffffffffffffffffffffffffffffffffff1614612dc05781818481518110612d1757fe5b602002602001019073ffffffffffffffffffffffffffffffffffffffff16908173ffffffffffffffffffffffffffffffffffffffff1681525050600160008373ffffffffffffffffffffffffffffffffffffffff1673ffffffffffffffffffffffffffffffffffffffff16815260200190815260200160002060009054906101000a900473ffffffffffffffffffffffffffffffffffffffff1691508280600101935050612cd6565b80935050505090565b6000801b60065414612e43576040517f08c379a000000000000000000000000000000000000000000000000000000000815260040180806020018281038252601d8152602001807f446f6d61696e20536570617261746f7220616c7265616479207365742100000081525060200191505060405180910390fd5b7f035aff83d86937d35b32e04f0ddc6ff469290eef2f1b692d8a815c89404d474960001b30604051602001808381526020018273ffffffffffffffffffffffffffffffffffffffff1673ffffffffffffffffffffffffffffffffffffffff1681526020019250505060405160208183030381529060405280519060200120600681905550612f128a8a80806020026020016040519081016040528093929190818152602001838360200280828437600081840152601f19601f8201169050808301925050505050505089615091565b612f608787878080601f016020809104026020016040519081016040528093929190818152602001838380828437600081840152601f19601f820116905080830192505050505050506154ea565b600073ffffffffffffffffffffffffffffffffffffffff168473ffffffffffffffffffffffffffffffffffffffff1614612f9e57612f9d84615704565b5b6000821115612fb757612fb682600060018685614ecf565b5b50505050505050505050565b7f60b3cbf8b4a223d68d641b3b6ddf9a298e7f33710cf3d3a9d1146b5a6150fbca60001b81565b60003073ffffffffffffffffffffffffffffffffffffffff163373ffffffffffffffffffffffffffffffffffffffff1614613070576040517f08c379a000000000000000000000000000000000000000000000000000000000815260040180806020018281038252602c815260200180615aca602c913960400191505060405180910390fd5b60005a90506130c6878787878080601f016020809104026020016040519081016040528093929190818152602001838380828437600081840152601f19601f82011690508083019250505050505050865a614e3d565b6130cf57600080fd5b60005a8203905080604051602001808281526020019150506040516020818303038152906040526040517f08c379a00000000000000000000000000000000000000000000000000000000081526004018080602001828103825283818151815260200191508051906020019080838360005b8381101561315c578082015181840152602081019050613141565b50505050905090810190601f1680156131895780820380516001836020036101000a031916815260200191505b509250505060405180910390fd5b7fbb8310d486368db6bd6f849402fdd73ad53d316b5a4b2644ad6efe0f941286d860001b81565b600073ffffffffffffffffffffffffffffffffffffffff16600260003373ffffffffffffffffffffffffffffffffffffffff1673ffffffffffffffffffffffffffffffffffffffff16815260200190815260200160002060009054906101000a900473ffffffffffffffffffffffffffffffffffffffff1673ffffffffffffffffffffffffffffffffffffffff1614156132c0576040517f08c379a000000000000000000000000000000000000000000000000000000000815260040180806020018281038252601e8152602001807f4f6e6c79206f776e6572732063616e20617070726f766520612068617368000081525060200191505060405180910390fd5b6001600860003373ffffffffffffffffffffffffffffffffffffffff1673ffffffffffffffffffffffffffffffffffffffff16815260200190815260200160002060008381526020019081526020016000208190555050565b600061332d8b8b8b8b8b8b8b8b8b8b613e19565b8051906020012090509a9950505050505050505050565b3073ffffffffffffffffffffffffffffffffffffffff163373ffffffffffffffffffffffffffffffffffffffff16146133c8576040517f08c379a000000000000000000000000000000000000000000000000000000000815260040180806020018281038252602c815260200180615aca602c913960400191505060405180910390fd5b600073ffffffffffffffffffffffffffffffffffffffff168173ffffffffffffffffffffffffffffffffffffffff16141580156134325750600173ffffffffffffffffffffffffffffffffffffffff168173ffffffffffffffffffffffffffffffffffffffff1614155b6134a4576040517f08c379a000000000000000000000000000000000000000000000000000000000815260040180806020018281038252601f8152602001807f496e76616c6964206d6f64756c6520616464726573732070726f76696465640081525060200191505060405180910390fd5b8073ffffffffffffffffffffffffffffffffffffffff16600160008473ffffffffffffffffffffffffffffffffffffffff1673ffffffffffffffffffffffffffffffffffffffff16815260200190815260200160002060009054906101000a900473ffffffffffffffffffffffffffffffffffffffff1673ffffffffffffffffffffffffffffffffffffffff1614613587576040517f08c379a00000000000000000000000000000000000000000000000000000000081526004018080602001828103825260288152602001806159716028913960400191505060405180910390fd5b600160008273ffffffffffffffffffffffffffffffffffffffff1673ffffffffffffffffffffffffffffffffffffffff16815260200190815260200160002060009054906101000a900473ffffffffffffffffffffffffffffffffffffffff16600160008473ffffffffffffffffffffffffffffffffffffffff1673ffffffffffffffffffffffffffffffffffffffff16815260200190815260200160002060006101000a81548173ffffffffffffffffffffffffffffffffffffffff021916908373ffffffffffffffffffffffffffffffffffffffff1602179055506000600160008373ffffffffffffffffffffffffffffffffffffffff1673ffffffffffffffffffffffffffffffffffffffff16815260200190815260200160002060006101000a81548173ffffffffffffffffffffffffffffffffffffffff021916908373ffffffffffffffffffffffffffffffffffffffff1602179055507faab4fa2b463f581b2b32cb3b7e3b704b9ce37cc209b5fb4d77e593ace405427681604051808273ffffffffffffffffffffffffffffffffffffffff1673ffffffffffffffffffffffffffffffffffffffff16815260200191505060405180910390a15050565b3073ffffffffffffffffffffffffffffffffffffffff163373ffffffffffffffffffffffffffffffffffffffff16146137ce576040517f08c379a000000000000000000000000000000000000000000000000000000000815260040180806020018281038252602c815260200180615aca602c913960400191505060405180910390fd5b600073ffffffffffffffffffffffffffffffffffffffff168173ffffffffffffffffffffffffffffffffffffffff16141580156138385750600173ffffffffffffffffffffffffffffffffffffffff168173ffffffffffffffffffffffffffffffffffffffff1614155b6138aa576040517f08c379a000000000000000000000000000000000000000000000000000000000815260040180806020018281038252601e8152602001807f496e76616c6964206f776e657220616464726573732070726f7669646564000081525060200191505060405180910390fd5b600073ffffffffffffffffffffffffffffffffffffffff16600260008373ffffffffffffffffffffffffffffffffffffffff1673ffffffffffffffffffffffffffffffffffffffff16815260200190815260200160002060009054906101000a900473ffffffffffffffffffffffffffffffffffffffff1673ffffffffffffffffffffffffffffffffffffffff16146139ab576040517f08c379a000000000000000000000000000000000000000000000000000000000815260040180806020018281038252601b8152602001807f4164647265737320697320616c726561647920616e206f776e6572000000000081525060200191505060405180910390fd5b600073ffffffffffffffffffffffffffffffffffffffff168273ffffffffffffffffffffffffffffffffffffffff1614158015613a155750600173ffffffffffffffffffffffffffffffffffffffff168273ffffffffffffffffffffffffffffffffffffffff1614155b613a87576040517f08c379a000000000000000000000000000000000000000000000000000000000815260040180806020018281038252601e8152602001807f496e76616c6964206f776e657220616464726573732070726f7669646564000081525060200191505060405180910390fd5b8173ffffffffffffffffffffffffffffffffffffffff16600260008573ffffffffffffffffffffffffffffffffffffffff1673ffffffffffffffffffffffffffffffffffffffff16815260200190815260200160002060009054906101000a900473ffffffffffffffffffffffffffffffffffffffff1673ffffffffffffffffffffffffffffffffffffffff1614613b6a576040517f08c379a0000000000000000000000000000000000000000000000000000000008152600401808060200182810382526026815260200180615a136026913960400191505060405180910390fd5b600260008373ffffffffffffffffffffffffffffffffffffffff1673ffffffffffffffffffffffffffffffffffffffff16815260200190815260200160002060009054906101000a900473ffffffffffffffffffffffffffffffffffffffff16600260008373ffffffffffffffffffffffffffffffffffffffff1673ffffffffffffffffffffffffffffffffffffffff16815260200190815260200160002060006101000a81548173ffffffffffffffffffffffffffffffffffffffff021916908373ffffffffffffffffffffffffffffffffffffffff16021790555080600260008573ffffffffffffffffffffffffffffffffffffffff1673ffffffffffffffffffffffffffffffffffffffff16815260200190815260200160002060006101000a81548173ffffffffffffffffffffffffffffffffffffffff021916908373ffffffffffffffffffffffffffffffffffffffff1602179055506000600260008473ffffffffffffffffffffffffffffffffffffffff1673ffffffffffffffffffffffffffffffffffffffff16815260200190815260200160002060006101000a81548173ffffffffffffffffffffffffffffffffffffffff021916908373ffffffffffffffffffffffffffffffffffffffff1602179055507ff8d49fc529812e9a7c5c50e69c20f0dccc0db8fa95c98bc58cc9a4f1c1299eaf82604051808273ffffffffffffffffffffffffffffffffffffffff1673ffffffffffffffffffffffffffffffffffffffff16815260200191505060405180910390a17f9465fa0c962cc76958e6373a993326400c1c94f8be2fe3a952adfa7f60b2ea2681604051808273ffffffffffffffffffffffffffffffffffffffff1673ffffffffffffffffffffffffffffffffffffffff16815260200191505060405180910390a1505050565b6000600454905090565b606060007fbb8310d486368db6bd6f849402fdd73ad53d316b5a4b2644ad6efe0f941286d860001b8c8c8c805190602001208c8c8c8c8c8c8c604051602001808c81526020018b73ffffffffffffffffffffffffffffffffffffffff1673ffffffffffffffffffffffffffffffffffffffff1681526020018a8152602001898152602001886001811115613ea957fe5b60ff1681526020018781526020018681526020018581526020018473ffffffffffffffffffffffffffffffffffffffff1673ffffffffffffffffffffffffffffffffffffffff1681526020018373ffffffffffffffffffffffffffffffffffffffff1673ffffffffffffffffffffffffffffffffffffffff1681526020018281526020019b505050505050505050505050604051602081830303815290604052805190602001209050601960f81b600160f81b6006548360405160200180857effffffffffffffffffffffffffffffffffffffffffffffffffffffffffffff19167effffffffffffffffffffffffffffffffffffffffffffffffffffffffffffff19168152600101847effffffffffffffffffffffffffffffffffffffffffffffffffffffffffffff19167effffffffffffffffffffffffffffffffffffffffffffffffffffffffffffff191681526001018381526020018281526020019450505050506040516020818303038152906040529150509a9950505050505050505050565b3073ffffffffffffffffffffffffffffffffffffffff163373ffffffffffffffffffffffffffffffffffffffff16146140b1576040517f08c379a000000000000000000000000000000000000000000000000000000000815260040180806020018281038252602c815260200180615aca602c913960400191505060405180910390fd5b6140ba81615704565b50565b60065481565b3073ffffffffffffffffffffffffffffffffffffffff163373ffffffffffffffffffffffffffffffffffffffff1614614147576040517f08c379a000000000000000000000000000000000000000000000000000000000815260040180806020018281038252602c815260200180615aca602c913960400191505060405180910390fd5b8060016003540310156141a5576040517f08c379a00000000000000000000000000000000000000000000000000000000081526004018080602001828103825260358152602001806159bc6035913960400191505060405180910390fd5b600073ffffffffffffffffffffffffffffffffffffffff168273ffffffffffffffffffffffffffffffffffffffff161415801561420f5750600173ffffffffffffffffffffffffffffffffffffffff168273ffffffffffffffffffffffffffffffffffffffff1614155b614281576040517f08c379a000000000000000000000000000000000000000000000000000000000815260040180806020018281038252601e8152602001807f496e76616c6964206f776e657220616464726573732070726f7669646564000081525060200191505060405180910390fd5b8173ffffffffffffffffffffffffffffffffffffffff16600260008573ffffffffffffffffffffffffffffffffffffffff1673ffffffffffffffffffffffffffffffffffffffff16815260200190815260200160002060009054906101000a900473ffffffffffffffffffffffffffffffffffffffff1673ffffffffffffffffffffffffffffffffffffffff1614614364576040517f08c379a0000000000000000000000000000000000000000000000000000000008152600401808060200182810382526026815260200180615a136026913960400191505060405180910390fd5b600260008373ffffffffffffffffffffffffffffffffffffffff1673ffffffffffffffffffffffffffffffffffffffff16815260200190815260200160002060009054906101000a900473ffffffffffffffffffffffffffffffffffffffff16600260008573ffffffffffffffffffffffffffffffffffffffff1673ffffffffffffffffffffffffffffffffffffffff16815260200190815260200160002060006101000a81548173ffffffffffffffffffffffffffffffffffffffff021916908373ffffffffffffffffffffffffffffffffffffffff1602179055506000600260008473ffffffffffffffffffffffffffffffffffffffff1673ffffffffffffffffffffffffffffffffffffffff16815260200190815260200160002060006101000a81548173ffffffffffffffffffffffffffffffffffffffff021916908373ffffffffffffffffffffffffffffffffffffffff160217905550600360008154809291906001900391905055507ff8d49fc529812e9a7c5c50e69c20f0dccc0db8fa95c98bc58cc9a4f1c1299eaf82604051808273ffffffffffffffffffffffffffffffffffffffff1673ffffffffffffffffffffffffffffffffffffffff16815260200191505060405180910390a1806004541461454957614548816122f8565b5b505050565b6040518060400160405280600581526020017f312e302e3000000000000000000000000000000000000000000000000000000081525081565b61459d604160045461573390919063ffffffff16565b82511015614613576040517f08c379a00000000000000000000000000000000000000000000000000000000081526004018080602001828103825260198152602001807f5369676e617475726573206461746120746f6f2073686f72740000000000000081525060200191505060405180910390fd5b600080905060008060008060008090505b600454811015614e3157614638888261576d565b80945081955082965050505060008460ff1614156149cf578260001c945061466c604160045461573390919063ffffffff16565b8260001c10156146c7576040517f08c379a0000000000000000000000000000000000000000000000000000000008152600401808060200182810382526037815260200180615a936037913960400191505060405180910390fd5b87516146e060208460001c61579c90919063ffffffff16565b1115614737576040517f08c379a0000000000000000000000000000000000000000000000000000000008152600401808060200182810382526037815260200180615b266037913960400191505060405180910390fd5b60006020838a0101519050885161476d8261475f60208760001c61579c90919063ffffffff16565b61579c90919063ffffffff16565b11156147c4576040517f08c379a0000000000000000000000000000000000000000000000000000000008152600401808060200182810382526036815260200180615a396036913960400191505060405180910390fd5b60606020848b010190506320c13b0b60e01b7bffffffffffffffffffffffffffffffffffffffffffffffffffffffff19168773ffffffffffffffffffffffffffffffffffffffff166320c13b0b8d846040518363ffffffff1660e01b8152600401808060200180602001838103835285818151815260200191508051906020019080838360005b8381101561486657808201518184015260208101905061484b565b50505050905090810190601f1680156148935780820380516001836020036101000a031916815260200191505b50838103825284818151815260200191508051906020019080838360005b838110156148cc5780820151818401526020810190506148b1565b50505050905090810190601f1680156148f95780820380516001836020036101000a031916815260200191505b5094505050505060206040518083038186803b15801561491857600080fd5b505afa15801561492c573d6000803e3d6000fd5b505050506040513d602081101561494257600080fd5b81019080805190602001909291905050507bffffffffffffffffffffffffffffffffffffffffffffffffffffffff1916146149c8576040517f08c379a000000000000000000000000000000000000000000000000000000000815260040180806020018281038252602381526020018061594e6023913960400191505060405180910390fd5b5050614caf565b60018460ff161415614b78578260001c94508473ffffffffffffffffffffffffffffffffffffffff163373ffffffffffffffffffffffffffffffffffffffff161480614a6c57506000600860008773ffffffffffffffffffffffffffffffffffffffff1673ffffffffffffffffffffffffffffffffffffffff16815260200190815260200160002060008c81526020019081526020016000205414155b614ade576040517f08c379a000000000000000000000000000000000000000000000000000000000815260040180806020018281038252601a8152602001807f4861736820686173206e6f74206265656e20617070726f76656400000000000081525060200191505060405180910390fd5b868015614b1757508473ffffffffffffffffffffffffffffffffffffffff163373ffffffffffffffffffffffffffffffffffffffff1614155b15614b73576000600860008773ffffffffffffffffffffffffffffffffffffffff1673ffffffffffffffffffffffffffffffffffffffff16815260200190815260200160002060008c8152602001908152602001600020819055505b614cae565b601e8460ff161115614c435760018a60405160200180807f19457468657265756d205369676e6564204d6573736167653a0a333200000000815250601c018281526020019150506040516020818303038152906040528051906020012060048603858560405160008152602001604052604051808581526020018460ff1660ff1681526020018381526020018281526020019450505050506020604051602081039080840390855afa158015614c32573d6000803e3d6000fd5b505050602060405103519450614cad565b60018a85858560405160008152602001604052604051808581526020018460ff1660ff1681526020018381526020018281526020019450505050506020604051602081039080840390855afa158015614ca0573d6000803e3d6000fd5b5050506020604051035194505b5b5b8573ffffffffffffffffffffffffffffffffffffffff168573ffffffffffffffffffffffffffffffffffffffff16118015614d765750600073ffffffffffffffffffffffffffffffffffffffff16600260008773ffffffffffffffffffffffffffffffffffffffff1673ffffffffffffffffffffffffffffffffffffffff16815260200190815260200160002060009054906101000a900473ffffffffffffffffffffffffffffffffffffffff1673ffffffffffffffffffffffffffffffffffffffff1614155b8015614daf5750600173ffffffffffffffffffffffffffffffffffffffff168573ffffffffffffffffffffffffffffffffffffffff1614155b614e21576040517f08c379a00000000000000000000000000000000000000000000000000000000081526004018080602001828103825260168152602001807f496e76616c6964206f776e65722070726f76696465640000000000000000000081525060200191505060405180910390fd5b8495508080600101915050614624565b50505050505050505050565b6000806001811115614e4b57fe5b836001811115614e5757fe5b1415614e7057614e69868686856157bb565b9050614ea6565b600180811115614e7c57fe5b836001811115614e8857fe5b1415614ea057614e998685846157d4565b9050614ea5565b600090505b5b95945050505050565b600082821115614ebe57600080fd5b600082840390508091505092915050565b60008073ffffffffffffffffffffffffffffffffffffffff168273ffffffffffffffffffffffffffffffffffffffff1614614f0a5781614f0c565b325b9050600073ffffffffffffffffffffffffffffffffffffffff168373ffffffffffffffffffffffffffffffffffffffff161415615004578073ffffffffffffffffffffffffffffffffffffffff166108fc614f903a8710614f6d573a614f6f565b865b614f82898b61579c90919063ffffffff16565b61573390919063ffffffff16565b9081150290604051600060405180830381858888f19350505050614fff576040517f08c379a0000000000000000000000000000000000000000000000000000000008152600401808060200182810382526022815260200180615b5d6022913960400191505060405180910390fd5b615089565b615033838261502e876150208a8c61579c90919063ffffffff16565b61573390919063ffffffff16565b6157eb565b615088576040517f08c379a00000000000000000000000000000000000000000000000000000000081526004018080602001828103825260228152602001806159f16022913960400191505060405180910390fd5b5b505050505050565b600060045414615109576040517f08c379a000000000000000000000000000000000000000000000000000000000815260040180806020018281038252601e8152602001807f4f776e657273206861766520616c7265616479206265656e207365747570000081525060200191505060405180910390fd5b8151811115615163576040517f08c379a00000000000000000000000000000000000000000000000000000000081526004018080602001828103825260238152602001806159996023913960400191505060405180910390fd5b60018110156151bd576040517f08c379a0000000000000000000000000000000000000000000000000000000008152600401808060200182810382526024815260200180615a6f6024913960400191505060405180910390fd5b60006001905060008090505b83518110156154565760008482815181106151e057fe5b60200260200101519050600073ffffffffffffffffffffffffffffffffffffffff168173ffffffffffffffffffffffffffffffffffffffff16141580156152545750600173ffffffffffffffffffffffffffffffffffffffff168173ffffffffffffffffffffffffffffffffffffffff1614155b6152c6576040517f08c379a000000000000000000000000000000000000000000000000000000000815260040180806020018281038252601e8152602001807f496e76616c6964206f776e657220616464726573732070726f7669646564000081525060200191505060405180910390fd5b600073ffffffffffffffffffffffffffffffffffffffff16600260008373ffffffffffffffffffffffffffffffffffffffff1673ffffffffffffffffffffffffffffffffffffffff16815260200190815260200160002060009054906101000a900473ffffffffffffffffffffffffffffffffffffffff1673ffffffffffffffffffffffffffffffffffffffff16146153c7576040517f08c379a00000000000000000000000000000000000000000000000000000000081526004018080602001828103825260208152602001807f4475706c6963617465206f776e657220616464726573732070726f766964656481525060200191505060405180910390fd5b80600260008573ffffffffffffffffffffffffffffffffffffffff1673ffffffffffffffffffffffffffffffffffffffff16815260200190815260200160002060006101000a81548173ffffffffffffffffffffffffffffffffffffffff021916908373ffffffffffffffffffffffffffffffffffffffff1602179055508092505080806001019150506151c9565b506001600260008373ffffffffffffffffffffffffffffffffffffffff1673ffffffffffffffffffffffffffffffffffffffff16815260200190815260200160002060006101000a81548173ffffffffffffffffffffffffffffffffffffffff021916908373ffffffffffffffffffffffffffffffffffffffff160217905550825160038190555081600481905550505050565b600073ffffffffffffffffffffffffffffffffffffffff1660016000600173ffffffffffffffffffffffffffffffffffffffff1673ffffffffffffffffffffffffffffffffffffffff16815260200190815260200160002060009054906101000a900473ffffffffffffffffffffffffffffffffffffffff1673ffffffffffffffffffffffffffffffffffffffff16146155cf576040517f08c379a00000000000000000000000000000000000000000000000000000000081526004018080602001828103825260258152602001806159296025913960400191505060405180910390fd5b6001806000600173ffffffffffffffffffffffffffffffffffffffff1673ffffffffffffffffffffffffffffffffffffffff16815260200190815260200160002060006101000a81548173ffffffffffffffffffffffffffffffffffffffff021916908373ffffffffffffffffffffffffffffffffffffffff160217905550600073ffffffffffffffffffffffffffffffffffffffff168273ffffffffffffffffffffffffffffffffffffffff16146157005761568d82825a6157d4565b6156ff576040517f08c379a000000000000000000000000000000000000000000000000000000000815260040180806020018281038252601f8152602001807f436f756c64206e6f742066696e69736820696e697469616c697a6174696f6e0081525060200191505060405180910390fd5b5b5050565b60007f6c9a6c4a39284e37ed1cf53d337577d14212a4870fb976a4366c693b939918d560001b90508181555050565b6000808314156157465760009050615767565b600082840290508284828161575757fe5b041461576257600080fd5b809150505b92915050565b60008060008360410260208101860151925060408101860151915060ff60418201870151169350509250925092565b6000808284019050838110156157b157600080fd5b8091505092915050565b6000806000845160208601878987f19050949350505050565b60008060008451602086018786f490509392505050565b600060608383604051602401808373ffffffffffffffffffffffffffffffffffffffff1673ffffffffffffffffffffffffffffffffffffffff168152602001828152602001925050506040516020818303038152906040527fa9059cbb000000000000000000000000000000000000000000000000000000007bffffffffffffffffffffffffffffffffffffffffffffffffffffffff19166020820180517bffffffffffffffffffffffffffffffffffffffffffffffffffffffff838183161783525050505090506000808251602084016000896127105a03f16040513d6000823e3d600081146158e757602081146158ef57600094506158f9565b8294506158f9565b8151158315171594505b50505050939250505056fe496e76616c6964206d617374657220636f707920616464726573732070726f76696465644d6f64756c6573206861766520616c7265616479206265656e20696e697469616c697a6564496e76616c696420636f6e7472616374207369676e61747572652070726f7669646564496e76616c696420707265764d6f64756c652c206d6f64756c6520706169722070726f76696465645468726573686f6c642063616e6e6f7420657863656564206f776e657220636f756e744e6577206f776e657220636f756e74206e6565647320746f206265206c6172676572207468616e206e6577207468726573686f6c64436f756c64206e6f74207061792067617320636f737473207769746820746f6b656e496e76616c696420707265764f776e65722c206f776e657220706169722070726f7669646564496e76616c696420636f6e7472616374207369676e6174757265206c6f636174696f6e3a2064617461206e6f7420636f6d706c6574655468726573686f6c64206e6565647320746f2062652067726561746572207468616e2030496e76616c696420636f6e7472616374207369676e6174757265206c6f636174696f6e3a20696e736964652073746174696320706172744d6574686f642063616e206f6e6c792062652063616c6c65642066726f6d207468697320636f6e74726163744d6574686f642063616e206f6e6c792062652063616c6c65642066726f6d20616e20656e61626c6564206d6f64756c65496e76616c696420636f6e7472616374207369676e6174757265206c6f636174696f6e3a206c656e677468206e6f742070726573656e74436f756c64206e6f74207061792067617320636f73747320776974682065746865724e6f7420656e6f7567682067617320746f20657865637574652073616665207472616e73616374696f6ea165627a7a7230582059094d4dc8f533746ff5d29d7f37640330dc95ac124136d83597c91bb5b993160029",
  "source": "pragma solidity ^0.5.0;\nimport \"./base/ModuleManager.sol\";\nimport \"./base/OwnerManager.sol\";\nimport \"./base/FallbackManager.sol\";\nimport \"./common/MasterCopy.sol\";\nimport \"./common/SignatureDecoder.sol\";\nimport \"./common/SecuredTokenTransfer.sol\";\nimport \"./interfaces/ISignatureValidator.sol\";\nimport \"./external/SafeMath.sol\";\n\n/// @title Gnosis Safe - A multisignature wallet with support for confirmations using signed messages based on ERC191.\n/// @author Stefan George - <stefan@gnosis.io>\n/// @author Richard Meissner - <richard@gnosis.io>\n/// @author Ricardo Guilherme Schmidt - (Status Research & Development GmbH) - Gas Token Payment\ncontract GnosisSafe\n    is MasterCopy, ModuleManager, OwnerManager, SignatureDecoder, SecuredTokenTransfer, ISignatureValidatorConstants, FallbackManager {\n\n    using SafeMath for uint256;\n\n    string public constant NAME = \"Gnosis Safe\";\n    string public constant VERSION = \"1.0.0\";\n\n    //keccak256(\n    //    \"EIP712Domain(address verifyingContract)\"\n    //);\n    bytes32 public constant DOMAIN_SEPARATOR_TYPEHASH = 0x035aff83d86937d35b32e04f0ddc6ff469290eef2f1b692d8a815c89404d4749;\n\n    //keccak256(\n    //    \"SafeTx(address to,uint256 value,bytes data,uint8 operation,uint256 safeTxGas,uint256 baseGas,uint256 gasPrice,address gasToken,address refundReceiver,uint256 nonce)\"\n    //);\n    bytes32 public constant SAFE_TX_TYPEHASH = 0xbb8310d486368db6bd6f849402fdd73ad53d316b5a4b2644ad6efe0f941286d8;\n\n    //keccak256(\n    //    \"SafeMessage(bytes message)\"\n    //);\n    bytes32 public constant SAFE_MSG_TYPEHASH = 0x60b3cbf8b4a223d68d641b3b6ddf9a298e7f33710cf3d3a9d1146b5a6150fbca;\n\n    event ExecutionFailed(bytes32 txHash);\n\n    uint256 public nonce;\n    bytes32 public domainSeparator;\n    // Mapping to keep track of all message hashes that have been approve by ALL REQUIRED owners\n    mapping(bytes32 => uint256) public signedMessages;\n    // Mapping to keep track of all hashes (message or transaction) that have been approve by ANY owners\n    mapping(address => mapping(bytes32 => uint256)) public approvedHashes;\n\n    /// @dev Setup function sets initial storage of contract.\n    /// @param _owners List of Safe owners.\n    /// @param _threshold Number of required confirmations for a Safe transaction.\n    /// @param to Contract address for optional delegate call.\n    /// @param data Data payload for optional delegate call.\n    /// @param fallbackHandler Handler for fallback calls to this contract\n    /// @param paymentToken Token that should be used for the payment (0 is ETH)\n    /// @param payment Value that should be paid\n    /// @param paymentReceiver Adddress that should receive the payment (or 0 if tx.origin)\n    function setup(\n        address[] calldata _owners,\n        uint256 _threshold,\n        address to,\n        bytes calldata data,\n        address fallbackHandler,\n        address paymentToken,\n        uint256 payment,\n        address payable paymentReceiver\n    )\n        external\n    {\n        require(domainSeparator == 0, \"Domain Separator already set!\");\n        domainSeparator = keccak256(abi.encode(DOMAIN_SEPARATOR_TYPEHASH, this));\n        setupOwners(_owners, _threshold);\n        // As setupOwners can only be called if the contract has not been initialized we don't need a check for setupModules\n        setupModules(to, data);\n        if (fallbackHandler != address(0)) internalSetFallbackHandler(fallbackHandler);\n\n        if (payment > 0) {\n            // To avoid running into issues with EIP-170 we reuse the handlePayment function (to avoid adjusting code of that has been verified we do not adjust the method itself)\n            // baseGas = 0, gasPrice = 1 and gas = payment => amount = (payment + 0) * 1 = payment\n            handlePayment(payment, 0, 1, paymentToken, paymentReceiver);\n        }\n    }\n\n    /// @dev Allows to execute a Safe transaction confirmed by required number of owners and then pays the account that submitted the transaction.\n    ///      Note: The fees are always transfered, even if the user transaction fails.\n    /// @param to Destination address of Safe transaction.\n    /// @param value Ether value of Safe transaction.\n    /// @param data Data payload of Safe transaction.\n    /// @param operation Operation type of Safe transaction.\n    /// @param safeTxGas Gas that should be used for the Safe transaction.\n    /// @param baseGas Gas costs for that are indipendent of the transaction execution(e.g. base transaction fee, signature check, payment of the refund)\n    /// @param gasPrice Gas price that should be used for the payment calculation.\n    /// @param gasToken Token address (or 0 if ETH) that is used for the payment.\n    /// @param refundReceiver Address of receiver of gas payment (or 0 if tx.origin).\n    /// @param signatures Packed signature data ({bytes32 r}{bytes32 s}{uint8 v})\n    function execTransaction(\n        address to,\n        uint256 value,\n        bytes calldata data,\n        Enum.Operation operation,\n        uint256 safeTxGas,\n        uint256 baseGas,\n        uint256 gasPrice,\n        address gasToken,\n        address payable refundReceiver,\n        bytes calldata signatures\n    )\n        external\n        returns (bool success)\n    {\n        bytes memory txHashData = encodeTransactionData(\n            to, value, data, operation, // Transaction info\n            safeTxGas, baseGas, gasPrice, gasToken, refundReceiver, // Payment info\n            nonce\n        );\n        // Increase nonce and execute transaction.\n        nonce++;\n        checkSignatures(keccak256(txHashData), txHashData, signatures, true);\n        require(gasleft() >= safeTxGas, \"Not enough gas to execute safe transaction\");\n        uint256 gasUsed = gasleft();\n        // If no safeTxGas has been set and the gasPrice is 0 we assume that all available gas can be used\n        success = execute(to, value, data, operation, safeTxGas == 0 && gasPrice == 0 ? gasleft() : safeTxGas);\n        gasUsed = gasUsed.sub(gasleft());\n        if (!success) {\n            emit ExecutionFailed(keccak256(txHashData));\n        }\n\n        // We transfer the calculated tx costs to the tx.origin to avoid sending it to intermediate contracts that have made calls\n        if (gasPrice > 0) {\n            handlePayment(gasUsed, baseGas, gasPrice, gasToken, refundReceiver);\n        }\n    }\n\n    function handlePayment(\n        uint256 gasUsed,\n        uint256 baseGas,\n        uint256 gasPrice,\n        address gasToken,\n        address payable refundReceiver\n    )\n        private\n    {\n        // solium-disable-next-line security/no-tx-origin\n        address payable receiver = refundReceiver == address(0) ? tx.origin : refundReceiver;\n        if (gasToken == address(0)) {\n            // For ETH we will only adjust the gas price to not be higher than the actual used gas price\n            // solium-disable-next-line security/no-send\n            require(receiver.send(gasUsed.add(baseGas).mul(gasPrice < tx.gasprice ? gasPrice : tx.gasprice)), \"Could not pay gas costs with ether\");\n        } else {\n            require(transferToken(gasToken, receiver, gasUsed.add(baseGas).mul(gasPrice)), \"Could not pay gas costs with token\");\n        }\n    }\n\n    /**\n    * @dev Checks whether the signature provided is valid for the provided data, hash. Will revert otherwise.\n    * @param dataHash Hash of the data (could be either a message hash or transaction hash)\n    * @param data That should be signed (this is passed to an external validator contract)\n    * @param signatures Signature data that should be verified. Can be ECDSA signature, contract signature (EIP-1271) or approved hash.\n    * @param consumeHash Indicates that in case of an approved hash the storage can be freed to save gas\n    */\n    function checkSignatures(bytes32 dataHash, bytes memory data, bytes memory signatures, bool consumeHash)\n        internal\n    {\n        // Check that the provided signature data is not too short\n        require(signatures.length >= threshold.mul(65), \"Signatures data too short\");\n        // There cannot be an owner with address 0.\n        address lastOwner = address(0);\n        address currentOwner;\n        uint8 v;\n        bytes32 r;\n        bytes32 s;\n        uint256 i;\n        for (i = 0; i < threshold; i++) {\n            (v, r, s) = signatureSplit(signatures, i);\n            // If v is 0 then it is a contract signature\n            if (v == 0) {\n                // When handling contract signatures the address of the contract is encoded into r\n                currentOwner = address(uint256(r));\n\n                // Check that signature data pointer (s) is not pointing inside the static part of the signatures bytes\n                // This check is not completely accurate, since it is possible that more signatures than the threshold are send.\n                // Here we only check that the pointer is not pointing inside the part that is being processed\n                require(uint256(s) >= threshold.mul(65), \"Invalid contract signature location: inside static part\");\n\n                // Check that signature data pointer (s) is in bounds (points to the length of data -> 32 bytes)\n                require(uint256(s).add(32) <= signatures.length, \"Invalid contract signature location: length not present\");\n\n                // Check if the contract signature is in bounds: start of data is s + 32 and end is start + signature length\n                uint256 contractSignatureLen;\n                // solium-disable-next-line security/no-inline-assembly\n                assembly {\n                    contractSignatureLen := mload(add(add(signatures, s), 0x20))\n                }\n                require(uint256(s).add(32).add(contractSignatureLen) <= signatures.length, \"Invalid contract signature location: data not complete\");\n\n                // Check signature\n                bytes memory contractSignature;\n                // solium-disable-next-line security/no-inline-assembly\n                assembly {\n                    // The signature data for contract signatures is appended to the concatenated signatures and the offset is stored in s\n                    contractSignature := add(add(signatures, s), 0x20)\n                }\n                require(ISignatureValidator(currentOwner).isValidSignature(data, contractSignature) == EIP1271_MAGIC_VALUE, \"Invalid contract signature provided\");\n            // If v is 1 then it is an approved hash\n            } else if (v == 1) {\n                // When handling approved hashes the address of the approver is encoded into r\n                currentOwner = address(uint256(r));\n                // Hashes are automatically approved by the sender of the message or when they have been pre-approved via a separate transaction\n                require(msg.sender == currentOwner || approvedHashes[currentOwner][dataHash] != 0, \"Hash has not been approved\");\n                // Hash has been marked for consumption. If this hash was pre-approved free storage\n                if (consumeHash && msg.sender != currentOwner) {\n                    approvedHashes[currentOwner][dataHash] = 0;\n                }\n            } else if (v > 30) {\n                // To support eth_sign and similar we adjust v and hash the messageHash with the Ethereum message prefix before applying ecrecover\n                currentOwner = ecrecover(keccak256(abi.encodePacked(\"\\x19Ethereum Signed Message:\\n32\", dataHash)), v - 4, r, s);\n            } else {\n                // Use ecrecover with the messageHash for EOA signatures\n                currentOwner = ecrecover(dataHash, v, r, s);\n            }\n            require (\n                currentOwner > lastOwner && owners[currentOwner] != address(0) && currentOwner != SENTINEL_OWNERS,\n                \"Invalid owner provided\"\n            );\n            lastOwner = currentOwner;\n        }\n    }\n\n    /// @dev Allows to estimate a Safe transaction.\n    ///      This method is only meant for estimation purpose, therefore two different protection mechanism against execution in a transaction have been made:\n    ///      1.) The method can only be called from the safe itself\n    ///      2.) The response is returned with a revert\n    ///      When estimating set `from` to the address of the safe.\n    ///      Since the `estimateGas` function includes refunds, call this method to get an estimated of the costs that are deducted from the safe with `execTransaction`\n    /// @param to Destination address of Safe transaction.\n    /// @param value Ether value of Safe transaction.\n    /// @param data Data payload of Safe transaction.\n    /// @param operation Operation type of Safe transaction.\n    /// @return Estimate without refunds and overhead fees (base transaction and payload data gas costs).\n    function requiredTxGas(address to, uint256 value, bytes calldata data, Enum.Operation operation)\n        external\n        authorized\n        returns (uint256)\n    {\n        uint256 startGas = gasleft();\n        // We don't provide an error message here, as we use it to return the estimate\n        // solium-disable-next-line error-reason\n        require(execute(to, value, data, operation, gasleft()));\n        uint256 requiredGas = startGas - gasleft();\n        // Convert response to string and return via error message\n        revert(string(abi.encodePacked(requiredGas)));\n    }\n\n    /**\n    * @dev Marks a hash as approved. This can be used to validate a hash that is used by a signature.\n    * @param hashToApprove The hash that should be marked as approved for signatures that are verified by this contract.\n    */\n    function approveHash(bytes32 hashToApprove)\n        external\n    {\n        require(owners[msg.sender] != address(0), \"Only owners can approve a hash\");\n        approvedHashes[msg.sender][hashToApprove] = 1;\n    }\n\n    /**\n    * @dev Marks a message as signed\n    * @param _data Arbitrary length data that should be marked as signed on the behalf of address(this)\n    */\n    function signMessage(bytes calldata _data)\n        external\n        authorized\n    {\n        signedMessages[getMessageHash(_data)] = 1;\n    }\n\n    /**\n    * Implementation of ISignatureValidator (see `interfaces/ISignatureValidator.sol`)\n    * @dev Should return whether the signature provided is valid for the provided data.\n    *       The save does not implement the interface since `checkSignatures` is not a view method.\n    *       The method will not perform any state changes (see parameters of `checkSignatures`)\n    * @param _data Arbitrary length data signed on the behalf of address(this)\n    * @param _signature Signature byte array associated with _data\n    * @return a bool upon valid or invalid signature with corresponding _data\n    */\n    function isValidSignature(bytes calldata _data, bytes calldata _signature)\n        external\n        returns (bytes4)\n    {\n        bytes32 messageHash = getMessageHash(_data);\n        if (_signature.length == 0) {\n            require(signedMessages[messageHash] != 0, \"Hash not approved\");\n        } else {\n            // consumeHash needs to be false, as the state should not be changed\n            checkSignatures(messageHash, _data, _signature, false);\n        }\n        return EIP1271_MAGIC_VALUE;\n    }\n\n    /// @dev Returns hash of a message that can be signed by owners.\n    /// @param message Message that should be hashed\n    /// @return Message hash.\n    function getMessageHash(\n        bytes memory message\n    )\n        public\n        view\n        returns (bytes32)\n    {\n        bytes32 safeMessageHash = keccak256(\n            abi.encode(SAFE_MSG_TYPEHASH, keccak256(message))\n        );\n        return keccak256(\n            abi.encodePacked(byte(0x19), byte(0x01), domainSeparator, safeMessageHash)\n        );\n    }\n\n    /// @dev Returns the bytes that are hashed to be signed by owners.\n    /// @param to Destination address.\n    /// @param value Ether value.\n    /// @param data Data payload.\n    /// @param operation Operation type.\n    /// @param safeTxGas Fas that should be used for the safe transaction.\n    /// @param baseGas Gas costs for data used to trigger the safe transaction.\n    /// @param gasPrice Maximum gas price that should be used for this transaction.\n    /// @param gasToken Token address (or 0 if ETH) that is used for the payment.\n    /// @param refundReceiver Address of receiver of gas payment (or 0 if tx.origin).\n    /// @param _nonce Transaction nonce.\n    /// @return Transaction hash bytes.\n    function encodeTransactionData(\n        address to,\n        uint256 value,\n        bytes memory data,\n        Enum.Operation operation,\n        uint256 safeTxGas,\n        uint256 baseGas,\n        uint256 gasPrice,\n        address gasToken,\n        address refundReceiver,\n        uint256 _nonce\n    )\n        public\n        view\n        returns (bytes memory)\n    {\n        bytes32 safeTxHash = keccak256(\n            abi.encode(SAFE_TX_TYPEHASH, to, value, keccak256(data), operation, safeTxGas, baseGas, gasPrice, gasToken, refundReceiver, _nonce)\n        );\n        return abi.encodePacked(byte(0x19), byte(0x01), domainSeparator, safeTxHash);\n    }\n\n    /// @dev Returns hash to be signed by owners.\n    /// @param to Destination address.\n    /// @param value Ether value.\n    /// @param data Data payload.\n    /// @param operation Operation type.\n    /// @param safeTxGas Fas that should be used for the safe transaction.\n    /// @param baseGas Gas costs for data used to trigger the safe transaction.\n    /// @param gasPrice Maximum gas price that should be used for this transaction.\n    /// @param gasToken Token address (or 0 if ETH) that is used for the payment.\n    /// @param refundReceiver Address of receiver of gas payment (or 0 if tx.origin).\n    /// @param _nonce Transaction nonce.\n    /// @return Transaction hash.\n    function getTransactionHash(\n        address to,\n        uint256 value,\n        bytes memory data,\n        Enum.Operation operation,\n        uint256 safeTxGas,\n        uint256 baseGas,\n        uint256 gasPrice,\n        address gasToken,\n        address refundReceiver,\n        uint256 _nonce\n    )\n        public\n        view\n        returns (bytes32)\n    {\n        return keccak256(encodeTransactionData(to, value, data, operation, safeTxGas, baseGas, gasPrice, gasToken, refundReceiver, _nonce));\n    }\n}\n",
  "sourcePath": "/Users/mkuechler/Documents/custody/safe-contracts/contracts/GnosisSafe.sol",
  "compiler": {
    "name": "solc",
    "version": "0.5.7+commit.6da8b019.Emscripten.clang"
  },
  "schemaVersion": "2.0.1",
  "updatedAt": "2019-09-17T13:50:16.821Z"
}