{
  "contractName": "BlockhashRegistry",
  "abi": [
    {
      "constant": true,
      "inputs": [
        {
          "name": "",
          "type": "uint256"
        }
      ],
      "name": "blockhashMapping",
      "outputs": [
        {
          "name": "",
          "type": "bytes32"
        }
      ],
      "payable": false,
      "stateMutability": "view",
      "type": "function"
    },
    {
      "inputs": [],
      "payable": false,
      "stateMutability": "nonpayable",
      "type": "constructor"
    },
    {
      "anonymous": false,
      "inputs": [
        {
          "indexed": true,
          "name": "blockNr",
          "type": "uint256"
        },
        {
          "indexed": true,
          "name": "bhash",
          "type": "bytes32"
        }
      ],
      "name": "LogBlockhashAdded",
      "type": "event"
    },
    {
      "constant": true,
      "inputs": [
        {
          "name": "_startNumber",
          "type": "uint256"
        },
        {
          "name": "_numBlocks",
          "type": "uint256"
        }
      ],
      "name": "searchForAvailableBlock",
      "outputs": [
        {
          "name": "",
          "type": "uint256"
        }
      ],
      "payable": false,
      "stateMutability": "view",
      "type": "function"
    },
    {
      "constant": false,
      "inputs": [
        {
          "name": "_blockNumber",
          "type": "uint256"
        },
        {
          "name": "_blockheaders",
          "type": "bytes[]"
        }
      ],
      "name": "recreateBlockheaders",
      "outputs": [],
      "payable": false,
      "stateMutability": "nonpayable",
      "type": "function"
    },
    {
      "constant": false,
      "inputs": [
        {
          "name": "_blockNumber",
          "type": "uint256"
        }
      ],
      "name": "saveBlockNumber",
      "outputs": [],
      "payable": false,
      "stateMutability": "nonpayable",
      "type": "function"
    },
    {
      "constant": false,
      "inputs": [],
      "name": "snapshot",
      "outputs": [],
      "payable": false,
      "stateMutability": "nonpayable",
      "type": "function"
    },
    {
      "constant": true,
      "inputs": [
        {
          "name": "_blockheader",
          "type": "bytes"
        }
      ],
      "name": "getParentAndBlockhash",
      "outputs": [
        {
          "name": "parentHash",
          "type": "bytes32"
        },
        {
          "name": "bhash",
          "type": "bytes32"
        }
      ],
      "payable": false,
      "stateMutability": "pure",
      "type": "function"
    },
    {
      "constant": true,
      "inputs": [
        {
          "name": "_blockheaders",
          "type": "bytes[]"
        },
        {
          "name": "_bHash",
          "type": "bytes32"
        }
      ],
      "name": "reCalculateBlockheaders",
      "outputs": [
        {
          "name": "bhash",
          "type": "bytes32"
        }
      ],
      "payable": false,
      "stateMutability": "pure",
      "type": "function"
    }
  ],
  "bytecode": "0x608060405234801561001057600080fd5b50610022640100000000610027810204565b610118565b61003d600019430164010000000061003f810204565b565b804080610081576040517f08c379a0000000000000000000000000000000000000000000000000000000008152600401610078906100f9565b60405180910390fd5b60008281526020819052604080822083905551829184917fa026fbef6faa1c5be3eb7cb2223ce263421a9d0136f4b11b1a3afcaacea984f39190a35050565b60006100cd60138361010f565b7f626c6f636b206e6f7420617661696c61626c6500000000000000000000000000815260200192915050565b60208082528101610109816100c0565b92915050565b90815260200190565b61079b806101276000396000f3fe608060405234801561001057600080fd5b506004361061009a576000357c01000000000000000000000000000000000000000000000000000000009004806389daebbb1161007857806389daebbb146100fe5780639711715a14610111578063a4ad910e14610119578063e877b8731461012c5761009a565b806341313f8b1461009f5780635d5cbe09146100b45780636305332b146100de575b600080fd5b6100b26100ad3660046104d1565b61013f565b005b6100c76100c2366004610494565b6101a9565b6040516100d5929190610657565b60405180910390f35b6100f16100ec366004610537565b61021a565b6040516100d59190610649565b6100b261010c3660046104ef565b610252565b6100b26102ff565b6100f1610127366004610443565b61030d565b6100f161013a3660046104d1565b61036b565b80408061016a5760405160e560020a62461bcd02815260040161016190610689565b60405180910390fd5b60008281526020819052604080822083905551829184917fa026fbef6faa1c5be3eb7cb2223ce263421a9d0136f4b11b1a3afcaacea984f39190a35050565b6000806000836000815181106101bb57fe5b602001015160f860020a900460f860020a0260f860020a9004905060f78160ff16116101fc5760405160e560020a62461bcd02815260040161016190610699565b602084815260d4199185019190910151845191909401209293915050565b6000825b838301811161024a576000818152602081905260409020541561024257905061024c565b60010161021e565b505b92915050565b600082815260208190526040902054806102815760405160e560020a62461bcd028152600401610161906106a9565b600061028d838361030d565b9050806102af5760405160e560020a62461bcd02815260040161016190610679565b825184116102b957fe5b8251840360008181526020819052604080822084905551839183917fa026fbef6faa1c5be3eb7cb2223ce263421a9d0136f4b11b1a3afcaacea984f39190a35050505050565b61030b6001430361013f565b565b6000818180805b86518110156103605761033987828151811061032c57fe5b60200260200101516101a9565b909350915083821461035357506000935061024c92505050565b9192508291600101610314565b509195945050505050565b60006020819052908152604090205481565b600082601f83011261038e57600080fd5b81356103a161039c826106e0565b6106b9565b81815260209384019390925082018360005b838110156103df57813586016103c988826103f4565b84525060209283019291909101906001016103b3565b5050505092915050565b803561024c81610741565b600082601f83011261040557600080fd5b813561041361039c82610701565b9150808252602083016020830185838301111561042f57600080fd5b61043a838284610735565b50505092915050565b6000806040838503121561045657600080fd5b823567ffffffffffffffff81111561046d57600080fd5b6104798582860161037d565b925050602061048a858286016103e9565b9150509250929050565b6000602082840312156104a657600080fd5b813567ffffffffffffffff8111156104bd57600080fd5b6104c9848285016103f4565b949350505050565b6000602082840312156104e357600080fd5b60006104c984846103e9565b6000806040838503121561050257600080fd5b600061050e85856103e9565b925050602083013567ffffffffffffffff81111561052b57600080fd5b61048a8582860161037d565b6000806040838503121561054a57600080fd5b600061047985856103e9565b61055f81610732565b82525050565b6000610572600f83610729565b7f696e76616c696420686561646572730000000000000000000000000000000000815260200192915050565b60006105ab601383610729565b7f626c6f636b206e6f7420617661696c61626c6500000000000000000000000000815260200192915050565b60006105e4600e83610729565b7f696e76616c6964206f6666736574000000000000000000000000000000000000815260200192915050565b600061061d601c83610729565b7f706172656e74426c6f636b206973206e6f7420617661696c61626c6500000000815260200192915050565b6020810161024c8284610556565b604081016106658285610556565b6106726020830184610556565b9392505050565b6020808252810161024c81610565565b6020808252810161024c8161059e565b6020808252810161024c816105d7565b6020808252810161024c81610610565b60405181810167ffffffffffffffff811182821017156106d857600080fd5b604052919050565b600067ffffffffffffffff8211156106f757600080fd5b5060209081020190565b600067ffffffffffffffff82111561071857600080fd5b506020601f91909101601f19160190565b90815260200190565b90565b82818337506000910152565b61074a81610732565b811461075557600080fd5b5056fea365627a7a72305820eb8a4d56c7c25d77889f15f66b66b91f82901e836aa8cfd5d9dfacaa846781216c6578706572696d656e74616cf564736f6c634300050a0040",
  "source": "/***********************************************************\n* This file is part of the Slock.it IoT Layer.             *\n* The Slock.it IoT Layer contains:                         *\n*   - USN (Universal Sharing Network)                      *\n*   - INCUBED (Trustless INcentivized remote Node Network) *\n************************************************************\n* Copyright (C) 2016 - 2018 Slock.it GmbH                  *\n* All Rights Reserved.                                     *\n************************************************************\n* You may use, distribute and modify this code under the   *\n* terms of the license contract you have concluded with    *\n* Slock.it GmbH.                                           *\n* For information about liability, maintenance etc. also   *\n* refer to the contract concluded with Slock.it GmbH.      *\n************************************************************\n* For more information, please refer to https://slock.it   *\n* For questions, please contact info@slock.it              *\n***********************************************************/\n\npragma solidity 0.5.10;\npragma experimental ABIEncoderV2;\n\n\n/// @title Registry for blockhashes\ncontract BlockhashRegistry {\n\n    /// a new blockhash and its number has been added to the contract\n    event LogBlockhashAdded(uint indexed blockNr, bytes32 indexed bhash);\n\n    /// maps the blocknumber to its blockhash\n    mapping(uint => bytes32) public blockhashMapping;\n\n    /// constructor, calls snapshot-function when contract get deployed as entry point\n    /// @dev cannot be deployed in a genesis block\n    constructor() public {\n        snapshot();\n    }\n\n    /// @notice searches for an already existing snapshot\n    /// @param _startNumber the blocknumber to start searching\n    /// @param _numBlocks the number of blocks to search for\n    /// @return the closes snapshot of found within the given range, 0 else\n    function searchForAvailableBlock(uint _startNumber, uint _numBlocks) external view returns (uint) {\n\n        for (uint i = _startNumber; i <= (_numBlocks + _startNumber); i++) {\n            if (blockhashMapping[i] != 0x0) {\n                return i;\n            }\n        }\n    }\n\n    /// @notice starts with a given blocknumber and its header and tries to recreate a (reverse) chain of blocks\n    /// @notice only usable when the given blocknumber is already in the smart contract\n    /// @notice it will be checked whether the provided chain is correct by using the reCalculateBlockheaders function\n    /// @notice if successfull the last blockhash of the header will be added to the smart contract\n    /// @param _blockNumber the block number to start recreation from\n    /// @param _blockheaders array with serialized blockheaders in reverse order (youngest -> oldest) => (e.g. 100, 99, 98)\n    /// @dev reverts when there is not parent block already stored in the contract\n    /// @dev reverts when the chain of headers is incorrect\n    /// @dev function is public due to the usage of a dynamic bytes array (not yet supported for external functions)\n    function recreateBlockheaders(uint _blockNumber, bytes[] memory _blockheaders) public {\n\n        bytes32 currentBlockhash = blockhashMapping[_blockNumber];\n        require(currentBlockhash != 0x0, \"parentBlock is not available\");\n\n        bytes32 calculatedHash = reCalculateBlockheaders(_blockheaders, currentBlockhash);\n        require(calculatedHash != 0x0, \"invalid headers\");\n\n        /// we should never fail this assert, as this would mean that we were able to recreate a invalid blockchain\n        assert(_blockNumber > _blockheaders.length);\n        uint bnr = _blockNumber - _blockheaders.length;\n        blockhashMapping[bnr] = calculatedHash;\n        emit LogBlockhashAdded(bnr, calculatedHash);\n    }\n\n    /// @notice stores a certain blockhash to the state\n    /// @param _blockNumber the blocknumber to be stored\n    /// @dev reverts if the block can't be found inside the evm\n    function saveBlockNumber(uint _blockNumber) public {\n\n        bytes32 bHash = blockhash(_blockNumber);\n\n        require(bHash != 0x0, \"block not available\");\n\n        blockhashMapping[_blockNumber] = bHash;\n        emit LogBlockhashAdded(_blockNumber, bHash);\n    }\n\n    /// @notice stores the currentBlock-1 in the smart contract\n    function snapshot() public {\n        /// blockhash cannot return the current block, so we use the previous block\n        saveBlockNumber(block.number-1);\n    }\n\n    /// @notice returns the blockhash and the parent blockhash from the provided blockheader\n    /// @param _blockheader a serialized (rlp-encoded) blockheader\n    /// @return the parent blockhash and the keccak256 of the provided blockheader (= the corresponding blockhash)\n    function getParentAndBlockhash(bytes memory _blockheader) public pure returns (bytes32 parentHash, bytes32 bhash) {\n\n        /// we need the 1st byte of the blockheader to calculate the position of the parentHash\n        uint8 first = uint8(_blockheader[0]);\n\n        /// calculates the offset\n        /// by using the 1st byte (usually f9) and substracting f7 to get the start point of the parentHash information\n        /// we also have to add \"2\" = 1 byte to it to skip the length-information\n        require(first > 0xf7, \"invalid offset\");\n        uint8 offset = first - 0xf7 + 2;\n\n        /// we are using assembly because it's the most efficent way to access the parent blockhash within the rlp-encoded blockheader\n        // solium-disable-next-line security/no-inline-assembly\n        assembly { // solhint-disable-line no-inline-assembly\n            // mstore to get the memory pointer of the blockheader to 0x20\n            mstore(0x20, _blockheader)\n\n            // we load the pointer we just stored\n            // then we add 0x20 (32 bytes) to get to the start of the blockheader\n            // then we add the offset we calculated\n            // and load it to the parentHash variable\n            parentHash :=mload(\n                add(\n                    add(\n                        mload(0x20), 0x20\n                    ), offset)\n            )\n        }\n        bhash = keccak256(_blockheader);\n    }\n\n    /// @notice starts with a given blockhash and its header and tries to recreate a (reverse) chain of blocks\n    /// @notice the array of the blockheaders have to be in reverse order (e.g. [100,99,98,97])\n    /// @param _blockheaders array with serialized blockheaders in reverse order, i.e. from youngest to oldest\n    /// @param _bHash blockhash of the 1st element of the _blockheaders-array\n    /// @return 0x0 if the functions detects a wrong chaining of blocks, blockhash of the last element of the array otherwhise\n    function reCalculateBlockheaders(bytes[] memory _blockheaders, bytes32 _bHash) public pure returns (bytes32 bhash) {\n\n        bytes32 currentBlockhash = _bHash;\n        bytes32 calcParent = 0x0;\n        bytes32 calcBlockhash = 0x0;\n\n        /// save to use for up to 200 blocks, exponential increase of gas-usage afterwards\n        for (uint i = 0; i < _blockheaders.length; i++) {\n            (calcParent, calcBlockhash) = getParentAndBlockhash(_blockheaders[i]);\n            if (calcBlockhash != currentBlockhash) {\n                return 0x0;\n            }\n            currentBlockhash = calcParent;\n        }\n\n        return currentBlockhash;\n    }\n}\n",
  "sourcePath": "/Users/mkuechler/Documents/in3-stuff/in3-contracts/contracts/BlockhashRegistry.sol",
  "compiler": {
    "name": "solc",
    "version": "0.5.10+commit.5a6ea5b1.Linux.g++"
  },
  "schemaVersion": "3.0.10",
  "updatedAt": "2019-08-22T06:43:00.026Z",
  "devdoc": {
    "methods": {
      "constructor": {
        "details": "cannot be deployed in a genesis block"
      },
      "getParentAndBlockhash(bytes)": {
        "params": {
          "_blockheader": "a serialized (rlp-encoded) blockheader"
        },
        "return": "the parent blockhash and the keccak256 of the provided blockheader (= the corresponding blockhash)"
      },
      "reCalculateBlockheaders(bytes[],bytes32)": {
        "params": {
          "_bHash": "blockhash of the 1st element of the _blockheaders-array",
          "_blockheaders": "array with serialized blockheaders in reverse order, i.e. from youngest to oldest"
        },
        "return": "0x0 if the functions detects a wrong chaining of blocks, blockhash of the last element of the array otherwhise"
      },
      "recreateBlockheaders(uint256,bytes[])": {
        "details": "reverts when there is not parent block already stored in the contractreverts when the chain of headers is incorrectfunction is public due to the usage of a dynamic bytes array (not yet supported for external functions)",
        "params": {
          "_blockNumber": "the block number to start recreation from",
          "_blockheaders": "array with serialized blockheaders in reverse order (youngest -> oldest) => (e.g. 100, 99, 98)"
        }
      },
      "saveBlockNumber(uint256)": {
        "details": "reverts if the block can't be found inside the evm",
        "params": {
          "_blockNumber": "the blocknumber to be stored"
        }
      },
      "searchForAvailableBlock(uint256,uint256)": {
        "params": {
          "_numBlocks": "the number of blocks to search for",
          "_startNumber": "the blocknumber to start searching"
        },
        "return": "the closes snapshot of found within the given range, 0 else"
      }
    },
    "title": "Registry for blockhashes"
  },
  "userdoc": {
    "methods": {
      "constructor": "constructor, calls snapshot-function when contract get deployed as entry point",
      "getParentAndBlockhash(bytes)": {
        "notice": "returns the blockhash and the parent blockhash from the provided blockheader"
      },
      "reCalculateBlockheaders(bytes[],bytes32)": {
        "notice": "starts with a given blockhash and its header and tries to recreate a (reverse) chain of blocksthe array of the blockheaders have to be in reverse order (e.g. [100,99,98,97])"
      },
      "recreateBlockheaders(uint256,bytes[])": {
        "notice": "starts with a given blocknumber and its header and tries to recreate a (reverse) chain of blocksonly usable when the given blocknumber is already in the smart contractit will be checked whether the provided chain is correct by using the reCalculateBlockheaders functionif successfull the last blockhash of the header will be added to the smart contract"
      },
      "saveBlockNumber(uint256)": {
        "notice": "stores a certain blockhash to the state"
      },
      "searchForAvailableBlock(uint256,uint256)": {
        "notice": "searches for an already existing snapshot"
      },
      "snapshot()": {
        "notice": "stores the currentBlock-1 in the smart contract"
      }
    }
  }
}