{
  "contractName": "NodeRegistry",
  "abi": [
    {
      "constant": true,
      "inputs": [],
      "name": "registryId",
      "outputs": [
        {
          "name": "",
          "type": "bytes32"
        }
      ],
      "payable": false,
      "stateMutability": "view",
      "type": "function"
    },
    {
      "constant": true,
      "inputs": [
        {
          "name": "",
          "type": "address"
        }
      ],
      "name": "signerIndex",
      "outputs": [
        {
          "name": "lockedTime",
          "type": "uint64"
        },
        {
          "name": "owner",
          "type": "address"
        },
        {
          "name": "stage",
          "type": "uint8"
        },
        {
          "name": "depositAmount",
          "type": "uint256"
        },
        {
          "name": "index",
          "type": "uint256"
        }
      ],
      "payable": false,
      "stateMutability": "view",
      "type": "function"
    },
    {
      "constant": true,
      "inputs": [
        {
          "name": "",
          "type": "uint256"
        }
      ],
      "name": "nodes",
      "outputs": [
        {
          "name": "url",
          "type": "string"
        },
        {
          "name": "deposit",
          "type": "uint256"
        },
        {
          "name": "timeout",
          "type": "uint64"
        },
        {
          "name": "registerTime",
          "type": "uint64"
        },
        {
          "name": "props",
          "type": "uint128"
        },
        {
          "name": "weight",
          "type": "uint64"
        },
        {
          "name": "signer",
          "type": "address"
        },
        {
          "name": "proofHash",
          "type": "bytes32"
        }
      ],
      "payable": false,
      "stateMutability": "view",
      "type": "function"
    },
    {
      "constant": true,
      "inputs": [],
      "name": "unregisterKey",
      "outputs": [
        {
          "name": "",
          "type": "address"
        }
      ],
      "payable": false,
      "stateMutability": "view",
      "type": "function"
    },
    {
      "constant": true,
      "inputs": [],
      "name": "blockTimeStampDeployment",
      "outputs": [
        {
          "name": "",
          "type": "uint256"
        }
      ],
      "payable": false,
      "stateMutability": "view",
      "type": "function"
    },
    {
      "constant": true,
      "inputs": [
        {
          "name": "",
          "type": "bytes32"
        }
      ],
      "name": "urlIndex",
      "outputs": [
        {
          "name": "used",
          "type": "bool"
        },
        {
          "name": "signer",
          "type": "address"
        }
      ],
      "payable": false,
      "stateMutability": "view",
      "type": "function"
    },
    {
      "constant": true,
      "inputs": [],
      "name": "blockRegistry",
      "outputs": [
        {
          "name": "",
          "type": "address"
        }
      ],
      "payable": false,
      "stateMutability": "view",
      "type": "function"
    },
    {
      "constant": true,
      "inputs": [],
      "name": "VERSION",
      "outputs": [
        {
          "name": "",
          "type": "uint256"
        }
      ],
      "payable": false,
      "stateMutability": "view",
      "type": "function"
    },
    {
      "inputs": [
        {
          "name": "_blockRegistry",
          "type": "address"
        }
      ],
      "payable": false,
      "stateMutability": "nonpayable",
      "type": "constructor"
    },
    {
      "anonymous": false,
      "inputs": [
        {
          "indexed": false,
          "name": "url",
          "type": "string"
        },
        {
          "indexed": false,
          "name": "props",
          "type": "uint256"
        },
        {
          "indexed": false,
          "name": "signer",
          "type": "address"
        },
        {
          "indexed": false,
          "name": "deposit",
          "type": "uint256"
        }
      ],
      "name": "LogNodeRegistered",
      "type": "event"
    },
    {
      "anonymous": false,
      "inputs": [
        {
          "indexed": false,
          "name": "signer",
          "type": "address"
        }
      ],
      "name": "LogNodeConvicted",
      "type": "event"
    },
    {
      "anonymous": false,
      "inputs": [
        {
          "indexed": false,
          "name": "url",
          "type": "string"
        },
        {
          "indexed": false,
          "name": "signer",
          "type": "address"
        }
      ],
      "name": "LogNodeRemoved",
      "type": "event"
    },
    {
      "constant": false,
      "inputs": [
        {
          "name": "_blockNumber",
          "type": "uint256"
        },
        {
          "name": "_hash",
          "type": "bytes32"
        }
      ],
      "name": "convict",
      "outputs": [],
      "payable": false,
      "stateMutability": "nonpayable",
      "type": "function"
    },
    {
      "constant": false,
      "inputs": [
        {
          "name": "_url",
          "type": "string"
        },
        {
          "name": "_props",
          "type": "uint64"
        },
        {
          "name": "_timeout",
          "type": "uint64"
        },
        {
          "name": "_weight",
          "type": "uint64"
        }
      ],
      "name": "registerNode",
      "outputs": [],
      "payable": true,
      "stateMutability": "payable",
      "type": "function"
    },
    {
      "constant": false,
      "inputs": [
        {
          "name": "_url",
          "type": "string"
        },
        {
          "name": "_props",
          "type": "uint64"
        },
        {
          "name": "_timeout",
          "type": "uint64"
        },
        {
          "name": "_signer",
          "type": "address"
        },
        {
          "name": "_weight",
          "type": "uint64"
        },
        {
          "name": "_v",
          "type": "uint8"
        },
        {
          "name": "_r",
          "type": "bytes32"
        },
        {
          "name": "_s",
          "type": "bytes32"
        }
      ],
      "name": "registerNodeFor",
      "outputs": [],
      "payable": true,
      "stateMutability": "payable",
      "type": "function"
    },
    {
      "constant": false,
      "inputs": [
        {
          "name": "_signer",
          "type": "address"
        }
      ],
      "name": "removeNodeFromRegistry",
      "outputs": [],
      "payable": false,
      "stateMutability": "nonpayable",
      "type": "function"
    },
    {
      "constant": false,
      "inputs": [
        {
          "name": "_signer",
          "type": "address"
        }
      ],
      "name": "returnDeposit",
      "outputs": [],
      "payable": false,
      "stateMutability": "nonpayable",
      "type": "function"
    },
    {
      "constant": false,
      "inputs": [
        {
          "name": "_signer",
          "type": "address"
        },
        {
          "name": "_blockhash",
          "type": "bytes32"
        },
        {
          "name": "_blockNumber",
          "type": "uint256"
        },
        {
          "name": "_v",
          "type": "uint8"
        },
        {
          "name": "_r",
          "type": "bytes32"
        },
        {
          "name": "_s",
          "type": "bytes32"
        }
      ],
      "name": "revealConvict",
      "outputs": [],
      "payable": false,
      "stateMutability": "nonpayable",
      "type": "function"
    },
    {
      "constant": false,
      "inputs": [
        {
          "name": "_signer",
          "type": "address"
        },
        {
          "name": "_newOwner",
          "type": "address"
        }
      ],
      "name": "transferOwnership",
      "outputs": [],
      "payable": false,
      "stateMutability": "nonpayable",
      "type": "function"
    },
    {
      "constant": false,
      "inputs": [
        {
          "name": "_signer",
          "type": "address"
        }
      ],
      "name": "unregisteringNode",
      "outputs": [],
      "payable": false,
      "stateMutability": "nonpayable",
      "type": "function"
    },
    {
      "constant": false,
      "inputs": [
        {
          "name": "_signer",
          "type": "address"
        },
        {
          "name": "_url",
          "type": "string"
        },
        {
          "name": "_props",
          "type": "uint64"
        },
        {
          "name": "_timeout",
          "type": "uint64"
        },
        {
          "name": "_weight",
          "type": "uint64"
        }
      ],
      "name": "updateNode",
      "outputs": [],
      "payable": true,
      "stateMutability": "payable",
      "type": "function"
    },
    {
      "constant": true,
      "inputs": [],
      "name": "totalNodes",
      "outputs": [
        {
          "name": "",
          "type": "uint256"
        }
      ],
      "payable": false,
      "stateMutability": "view",
      "type": "function"
    }
  ],
  "bytecode": "0x60806040523480156200001157600080fd5b5060405162003ba338038062003ba38339810160408190526200003491620000b4565b60028054600160a060020a031916600160a060020a038316179055426003556040516200006d903090436000190140906020016200010d565b60408051601f1981840301815291905280516020909101206001555060048054600160a060020a0319163317905562000195565b8051620000ae816200017b565b92915050565b600060208284031215620000c757600080fd5b6000620000d58484620000a1565b949350505050565b620000f2620000ec8262000137565b62000160565b82525050565b620000f2620001078262000144565b62000144565b60006200011b8285620000dd565b6014820191506200012d8284620000f8565b5060200192915050565b6000620000ae8262000154565b90565b6000620000ae8262000137565b600160a060020a031690565b6000620000ae82826c01000000000000000000000000820283565b620001868162000147565b81146200019257600080fd5b50565b6139fe80620001a56000396000f3fe60806040526004361061010d5760003560e060020a900480639592d42411610099578063d402353e11610068578063d402353e146102b6578063de7dda74146102d6578063ea42406414610304578063ecf55ad514610317578063ffa1ad74146103395761010d565b80639592d42414610259578063ac4898731461026e578063bdef930314610281578063bdfa59de146102a15761010d565b80631a91a0ab116100e05780631a91a0ab146101925780631b401f65146101c35780631c53c280146101e3578063607e7000146102175780636d435421146102395761010d565b80630224db0f1461011257806304ef898d146101275780630c4dc01214610152578063192f827814610172575b600080fd5b61012561012036600461294a565b61034e565b005b34801561013357600080fd5b5061013c6109c5565b6040516101499190613529565b60405180910390f35b34801561015e57600080fd5b5061012561016d366004612863565b6109cb565b34801561017e57600080fd5b5061012561018d366004612b51565b610da6565b34801561019e57600080fd5b506101b26101ad366004612863565b610ddf565b6040516101499594939291906137d9565b3480156101cf57600080fd5b506101256101de366004612863565b610e25565b3480156101ef57600080fd5b506102036101fe3660046129cd565b6111cf565b6040516101499897969594939291906135b0565b34801561022357600080fd5b5061022c6112d0565b6040516101499190613500565b34801561024557600080fd5b50610125610254366004612889565b6112df565b34801561026557600080fd5b5061013c6115b7565b61012561027c366004612a09565b6115be565b34801561028d57600080fd5b5061012561029c366004612863565b611737565b3480156102ad57600080fd5b5061013c61186e565b3480156102c257600080fd5b506101256102d13660046128c3565b611874565b3480156102e257600080fd5b506102f66102f13660046129cd565b611cab565b60405161014992919061350e565b610125610312366004612ad4565b611cd0565b34801561032357600080fd5b5061032c611d1e565b6040516101499190613575565b34801561034557600080fd5b5061013c611d2d565b85610357612573565b600160a060020a03828116600090815260056020908152604091829020825160a081018452815467ffffffffffffffff81168252604060020a8104909516928101929092529092909183019060e060020a900460ff1660038111156103b857fe5b60038111156103c357fe5b81526001828101546020830152600290920154604090910152909150816040015160038111156103ef57fe5b146104185760405160e560020a62461bcd02815260040161040f906136b9565b60405180910390fd5b6104206125a2565b600082608001518154811061043157fe5b60009182526020918290206040805160059390930290910180546002610100600183161581026000190190921604601f810186900490950284016101209081019093528301848152929390928492909184918401828280156104d45780601f106104a9576101008083540402835291602001916104d4565b820191906000526020600020905b8154815290600101906020018083116104b757829003601f168201915b505050918352505060018201546020820152600282015467ffffffffffffffff8082166040840152604060020a80830482166060850152608060020a9092046001608060020a03166080840152600384015490811660a084015204600160a060020a0390811660c08084019190915260049093015460e0909201919091529082015191925084811691161461057e5760405160e560020a62461bcd02815260040161040f90613769565b610586612573565b600160a060020a038a8116600090815260056020908152604091829020825160a081018452815467ffffffffffffffff81168252604060020a8104909516928101929092529092909183019060e060020a900460ff1660038111156105e757fe5b60038111156105f257fe5b815260200160018201548152602001600282015481525050905033600160a060020a03168160200151600160a060020a0316146106445760405160e560020a62461bcd02815260040161040f90613689565b60008082608001518154811061065657fe5b9060005260206000209060050201905060008a8a6040516106789291906133ff565b604051908190038120915061068e90839061342e565b604051809103902081146107885760066000836000016040516106b1919061342e565b604080519182900390912082526020808301939093529081016000908120805474ffffffffffffffffffffffffffffffffffffffffff19169055838152600690925290205460ff16156107195760405160e560020a62461bcd02815260040161040f906136c9565b6107216125e6565b600181523360208083019182526000848152600690915260409020825181549251600160a060020a03166101000274ffffffffffffffffffffffffffffffffffffffff001991151560ff199094169390931716919091179055610785838d8d6125fd565b50505b341561079957600182018054340190555b6107a7826001015489611d37565b6002820154608060020a90046001608060020a031667ffffffffffffffff8a16146107f0576002820180546001608060020a031667ffffffffffffffff8b16608060020a021790555b600282015467ffffffffffffffff908116908916111561082a5760028201805467ffffffffffffffff191667ffffffffffffffff8a161790555b600382015467ffffffffffffffff8881169116146108625760038201805467ffffffffffffffff191667ffffffffffffffff89161790555b60408051835460206002610100600184161581026000190190931604601f810182900490910283016101209081019094529082018181526109709386928492918491908401828280156108f65780601f106108cb576101008083540402835291602001916108f6565b820191906000526020600020905b8154815290600101906020018083116108d957829003601f168201915b505050918352505060018201546020820152600282015467ffffffffffffffff8082166040840152604060020a80830482166060850152608060020a9092046001608060020a03166080840152600384015490811660a084015204600160a060020a031660c082015260049091015460e090910152611da7565b600483015560018201546040517f1ca262a77ac17942055c2ff991000041865fc4fe608b39c1f3c1073199656510916109af9185918d9133919061364c565b60405180910390a1505050505050505050505050565b60015481565b806109d4612573565b600160a060020a03828116600090815260056020908152604091829020825160a081018452815467ffffffffffffffff81168252604060020a8104909516928101929092529092909183019060e060020a900460ff166003811115610a3557fe5b6003811115610a4057fe5b8152600182810154602083015260029092015460409091015290915081604001516003811115610a6c57fe5b14610a8c5760405160e560020a62461bcd02815260040161040f906136b9565b610a946125a2565b6000826080015181548110610aa557fe5b60009182526020918290206040805160059390930290910180546002610100600183161581026000190190921604601f81018690049095028401610120908101909352830184815292939092849290918491840182828015610b485780601f10610b1d57610100808354040283529160200191610b48565b820191906000526020600020905b815481529060010190602001808311610b2b57829003601f168201915b505050918352505060018201546020820152600282015467ffffffffffffffff8082166040840152604060020a80830482166060850152608060020a9092046001608060020a03166080840152600384015490811660a084015204600160a060020a0390811660c08084019190915260049093015460e09092019190915290820151919250848116911614610bf25760405160e560020a62461bcd02815260040161040f90613769565b6301e13380600354014210610c1c5760405160e560020a62461bcd02815260040161040f90613699565b600454600160a060020a03163314610c495760405160e560020a62461bcd02815260040161040f906137c9565b600160a060020a0384166000908152600560205260409020610c696125a2565b6000826002015481548110610c7a57fe5b60009182526020918290206040805160059390930290910180546002610100600183161581026000190190921604601f81018690049095028401610120908101909352830184815292939092849290918491840182828015610d1d5780601f10610cf257610100808354040283529160200191610d1d565b820191906000526020600020905b815481529060010190602001808311610d0057829003601f168201915b505050918352505060018201546020820152600282015467ffffffffffffffff8082166040840152604060020a80830482166060850152608060020a9092046001608060020a03166080840152600384015490811660a084015204600160a060020a031660c082015260049091015460e0909101529050610d9e8282611df3565b505050505050565b610dae6125e6565b9081524360208083019182526000938452600781526040808520338652909152909220905181559051600190910155565b60056020526000908152604090208054600182015460029092015467ffffffffffffffff821692604060020a8304600160a060020a03169260e060020a900460ff169185565b80610e2e612573565b600160a060020a03828116600090815260056020908152604091829020825160a081018452815467ffffffffffffffff81168252604060020a8104909516928101929092529092909183019060e060020a900460ff166003811115610e8f57fe5b6003811115610e9a57fe5b8152600182810154602083015260029092015460409091015290915081604001516003811115610ec657fe5b14610ee65760405160e560020a62461bcd02815260040161040f906136b9565b610eee6125a2565b6000826080015181548110610eff57fe5b60009182526020918290206040805160059390930290910180546002610100600183161581026000190190921604601f81018690049095028401610120908101909352830184815292939092849290918491840182828015610fa25780601f10610f7757610100808354040283529160200191610fa2565b820191906000526020600020905b815481529060010190602001808311610f8557829003601f168201915b505050918352505060018201546020820152600282015467ffffffffffffffff8082166040840152604060020a80830482166060850152608060020a9092046001608060020a03166080840152600384015490811660a084015204600160a060020a0390811660c08084019190915260049093015460e0909201919091529082015191925084811691161461104c5760405160e560020a62461bcd02815260040161040f90613769565b600160a060020a038416600090815260056020526040902061106c6125a2565b600082600201548154811061107d57fe5b60009182526020918290206040805160059390930290910180546002610100600183161581026000190190921604601f810186900490950284016101209081019093528301848152929390928492909184918401828280156111205780601f106110f557610100808354040283529160200191611120565b820191906000526020600020905b81548152906001019060200180831161110357829003601f168201915b505050918352505060018201546020820152600282015467ffffffffffffffff8082166040840152604060020a80830482166060850152608060020a9092046001608060020a03166080840152600384015490811660a0840152819004600160a060020a0390811660c084015260049093015460e090920191909152845492935033920416146111c55760405160e560020a62461bcd02815260040161040f90613729565b610d9e8282611df3565b600081815481106111dc57fe5b60009182526020918290206005919091020180546040805160026001841615610100026000190190931692909204601f8101859004850283018501909152808252919350918391908301828280156112755780601f1061124a57610100808354040283529160200191611275565b820191906000526020600020905b81548152906001019060200180831161125857829003601f168201915b505050506001830154600284015460038501546004909501549394919367ffffffffffffffff8083169450604060020a808404821694608060020a9094046001608060020a031693918216929104600160a060020a03169088565b600454600160a060020a031681565b816112e8612573565b600160a060020a03828116600090815260056020908152604091829020825160a081018452815467ffffffffffffffff81168252604060020a8104909516928101929092529092909183019060e060020a900460ff16600381111561134957fe5b600381111561135457fe5b815260018281015460208301526002909201546040909101529091508160400151600381111561138057fe5b146113a05760405160e560020a62461bcd02815260040161040f906136b9565b6113a86125a2565b60008260800151815481106113b957fe5b60009182526020918290206040805160059390930290910180546002610100600183161581026000190190921604601f8101869004909502840161012090810190935283018481529293909284929091849184018282801561145c5780601f106114315761010080835404028352916020019161145c565b820191906000526020600020905b81548152906001019060200180831161143f57829003601f168201915b505050918352505060018201546020820152600282015467ffffffffffffffff8082166040840152604060020a80830482166060850152608060020a9092046001608060020a03166080840152600384015490811660a084015204600160a060020a0390811660c08084019190915260049093015460e090920191909152908201519192508481169116146115065760405160e560020a62461bcd02815260040161040f90613769565b600160a060020a03808616600090815260056020526040902080549091604060020a90910416331461154d5760405160e560020a62461bcd02815260040161040f90613729565b600160a060020a0385166115765760405160e560020a62461bcd02815260040161040f90613789565b8054600160a060020a03909516604060020a027bffffffffffffffffffffffffffffffffffffffff0000000000000000199095169490941790935550505050565b6000545b90565b60606040518060400160405280601c81526020017f19457468657265756d205369676e6564204d6573736167653a0a333200000000815250905060008a8a8a8a893360405160200161161596959493929190613441565b6040516020818303038152906040528051906020012090506000828260405160200161164292919061340c565b60405160208183030381529060405280519060200120905060006001828888886040516000815260200160405260405161167f9493929190613537565b6020604051602081039080840390855afa1580156116a1573d6000803e3d6000fd5b50505060206040510351905080600160a060020a031689600160a060020a0316146116e15760405160e560020a62461bcd02815260040161040f906137b9565b6117288d8d8080601f0160208091040260200160405190810160405280939291908181526020018383808284376000920191909152508f92508e91508d905033348e611e70565b50505050505050505050505050565b600160a060020a03811660009081526005602052604090206003815460e060020a900460ff16600381111561176857fe5b146117885760405160e560020a62461bcd02815260040161040f906136d9565b8054604060020a9004600160a060020a031633146117bb5760405160e560020a62461bcd02815260040161040f90613759565b805467ffffffffffffffff1642116117e85760405160e560020a62461bcd02815260040161040f906136f9565b600180820154600160a060020a03841660009081526005602052604080822080547fffffff0000000000000000000000000000000000000000000000000000000000168155938401829055600290930181905591519091339183156108fc0291849190818181858888f19350505050158015611868573d6000803e3d6000fd5b50505050565b60035481565b834080611917576002546040517fe877b873000000000000000000000000000000000000000000000000000000008152600160a060020a039091169063e877b873906118c4908890600401613529565b60206040518083038186803b1580156118dc57600080fd5b505afa1580156118f0573d6000803e3d6000fd5b505050506040513d601f19601f8201168201806040525061191491908101906129eb565b90505b806119375760405160e560020a62461bcd02815260040161040f90613709565b8581141561195a5760405160e560020a62461bcd02815260040161040f90613779565b600160a060020a03871660009081526005602090815260408083208884526007835281842033855290925290912060018101546002014310156119b25760405160e560020a62461bcd02815260040161040f906136a9565b88600160a060020a0316600189896001546040516020016119d5939291906133c8565b6040516020818303038152906040528051906020012088888860405160008152602001604052604051611a0b9493929190613537565b6020604051602081039080840390855afa158015611a2d573d6000803e3d6000fd5b50505060206040510351600160a060020a031614611a605760405160e560020a62461bcd02815260040161040f90613739565b8054604051611a7b908a9033908a908a908a9060200161336f565b6040516020818303038152906040528051906020012014611ab15760405160e560020a62461bcd02815260040161040f90613799565b6002825460e060020a900460ff166003811115611aca57fe5b1415611aeb5760405160e560020a62461bcd02815260040161040f906137a9565b7f99cf870e2c7ee878455cc590c43877ba030304a8a5dd703bcfbd5c4822009f7889604051611b1a9190613500565b60405180910390a160006001835460e060020a900460ff166003811115611b3d57fe5b1415611bc05789600160a060020a03166000846002015481548110611b5e57fe5b6000918252602090912060059091020160030154604060020a9004600160a060020a031614611b8957fe5b6000836002015481548110611b9a57fe5b9060005260206000209060050201600101549050611bbb83600201546121c6565b611bdc565b506001820180546000909155825467ffffffffffffffff191683555b82547cff0000000000000000000000000000000000000000000000000000000019167c0200000000000000000000000000000000000000000000000000000000178355600088815260076020908152604080832033808552925280832083815560010183905551600284049283156108fc02918491818181858888f19350505050158015611c6e573d6000803e3d6000fd5b5060405160009082840380156108fc029183818181858288f19350505050158015611c9d573d6000803e3d6000fd5b505050505050505050505050565b60066020526000908152604090205460ff8116906101009004600160a060020a031682565b611d1785858080601f016020809104026020016040519081016040528093929190818152602001838380828437600092019190915250879250869150339050803487611e70565b5050505050565b600254600160a060020a031681565b650b2fd2558df581565b6301e1338060035401421015611d72576802b5e3af16b18800008210611d725760405160e560020a62461bcd02815260040161040f90613749565b6301e133808167ffffffffffffffff161115611da35760405160e560020a62461bcd02815260040161040f90613679565b5050565b6020808201516040808401516060850151608086015160c087015187519451600097611dd597969101613498565b6040516020818303038152906040528051906020012090505b919050565b604081015182546020830151600185015567ffffffffffffffff191667ffffffffffffffff9182164201909116177cff0000000000000000000000000000000000000000000000000000000019167c03000000000000000000000000000000000000000000000000000000001782556002820154611da3906121c6565b662386f26fc10000821015611e9a5760405160e560020a62461bcd02815260040161040f90613719565b611ea48286611d37565b86516020808901919091206000818152600690925260409091205460ff16158015611efc57506000600160a060020a03861660009081526005602052604090205460e060020a900460ff166003811115611efa57fe5b145b611f1b5760405160e560020a62461bcd02815260040161040f906136e9565b600160a060020a03858116600090815260056020526040812080547cff00000000000000000000000000000000000000000000000000000000191660e060020a1780825591546002820155918616604060020a027bffffffffffffffffffffffffffffffffffffffff000000000000000019909116179055611f9b6125a2565b88815267ffffffffffffffff8089166080830152600160a060020a03871660c083015260208201859052610e1090881611611fd857610e10611fda565b865b67ffffffffffffffff90811660408301524281166060830152831660a082015261200381611da7565b60e082015260008054600181018083559180528251805184926005027f290decd9548b62a8d60345a988386fc84ba6bc95484008f6362f93160ef3e56301916120519183916020019061267b565b506020820151600182015560408201516002820180546060850151608086015167ffffffffffffffff1992831667ffffffffffffffff958616176fffffffffffffffff00000000000000001916604060020a9286168302176001608060020a03908116608060020a91909216021790925560a085015160038501805460c0880151931691909416177bffffffffffffffffffffffffffffffffffffffff00000000000000001916600160a060020a0390911690910217905560e0909101516004909101555061211e6125e6565b60018152600160a060020a0387811660208084019182526000868152600690915260409081902084518154935160ff199094169015151774ffffffffffffffffffffffffffffffffffffffff0019166101009390941692909202929092179055517f1ca262a77ac17942055c2ff991000041865fc4fe608b39c1f3c1073199656510906121b2908c908c908b908a90613583565b60405180910390a150505050505050505050565b7f78267f80e41fea0cce6d47208671d5c1d990b9fdaefd72a3989de95cde34bc62600082815481106121f457fe5b90600052602060002090600502016000016000838154811061221257fe5b906000526020600020906005020160030160089054906101000a9004600160a060020a031660405161224592919061362c565b60405180910390a16006600080838154811061225d57fe5b906000526020600020906005020160000160405161227b919061342e565b604080519182900390912082526020820192909252016000908120805474ffffffffffffffffffffffffffffffffffffffffff1916905554806122ba57fe5b6000600560008085815481106122cc57fe5b6000918252602080832060059290920290910160030154604060020a9004600160a060020a0316835282019290925260400190206002015561230c6125a2565b6000600183038154811061231c57fe5b60009182526020918290206040805160059390930290910180546002610100600183161581026000190190921604601f810186900490950284016101209081019093528301848152929390928492909184918401828280156123bf5780601f10612394576101008083540402835291602001916123bf565b820191906000526020600020905b8154815290600101906020018083116123a257829003601f168201915b505050918352505060018201546020820152600282015467ffffffffffffffff8082166040840152604060020a80830482166060850152608060020a9092046001608060020a03166080840152600384015490811660a084015204600160a060020a031660c082015260049091015460e0909101526000805491925082918590811061244757fe5b9060005260206000209060050201600082015181600001908051906020019061247192919061267b565b506020828101516001830155604080840151600280850180546060880151608089015167ffffffffffffffff1992831667ffffffffffffffff968716176fffffffffffffffff00000000000000001916604060020a9287168302176001608060020a03908116608060020a91909216021790925560a088015160038801805460c0808c015191909416928716929092177bffffffffffffffffffffffffffffffffffffffff00000000000000001916600160a060020a039283169094029390931790925560e090970151600490960195909555948601519093166000908152600590925281209186169282019290925581549091611d179060001983016126e9565b6040805160a0810182526000808252602082018190529091820190815260200160008152602001600081525090565b6040805161010081018252606080825260006020830181905292820183905281018290526080810182905260a0810182905260c0810182905260e081019190915290565b604080518082019091526000808252602082015290565b828054600181600116156101000203166002900490600052602060002090601f016020900481019282601f1061263e5782800160ff1982351617855561266b565b8280016001018555821561266b579182015b8281111561266b578235825591602001919060010190612650565b5061267792915061271a565b5090565b828054600181600116156101000203166002900490600052602060002090601f016020900481019282601f106126bc57805160ff191683800117855561266b565b8280016001018555821561266b579182015b8281111561266b5782518255916020019190600101906126ce565b815481835581811115612715576005028160050283600052602060002091820191016127159190612734565b505050565b6115bb91905b808211156126775760008155600101612720565b6115bb91905b8082111561267757600061274e8282612796565b50600060018201819055600282018190556003820180547fffffffff00000000000000000000000000000000000000000000000000000000169055600482015560050161273a565b50805460018160011615610100020316600290046000825580601f106127bc57506127da565b601f0160209004906000526020600020908101906127da919061271a565b50565b80356127e88161398c565b92915050565b80356127e8816139a0565b80516127e8816139a0565b60008083601f84011261281657600080fd5b50813567ffffffffffffffff81111561282e57600080fd5b60208301915083600182028301111561284657600080fd5b9250929050565b80356127e8816139a9565b80356127e8816139b2565b60006020828403121561287557600080fd5b600061288184846127dd565b949350505050565b6000806040838503121561289c57600080fd5b60006128a885856127dd565b92505060206128b9858286016127dd565b9150509250929050565b60008060008060008060c087890312156128dc57600080fd5b60006128e889896127dd565b96505060206128f989828a016127ee565b955050604061290a89828a016127ee565b945050606061291b89828a01612858565b935050608061292c89828a016127ee565b92505060a061293d89828a016127ee565b9150509295509295509295565b60008060008060008060a0878903121561296357600080fd5b600061296f89896127dd565b965050602087013567ffffffffffffffff81111561298c57600080fd5b61299889828a01612804565b955095505060406129ab89828a0161284d565b93505060606129bc89828a0161284d565b925050608061293d89828a0161284d565b6000602082840312156129df57600080fd5b600061288184846127ee565b6000602082840312156129fd57600080fd5b600061288184846127f9565b60008060008060008060008060006101008a8c031215612a2857600080fd5b893567ffffffffffffffff811115612a3f57600080fd5b612a4b8c828d01612804565b99509950506020612a5e8c828d0161284d565b9750506040612a6f8c828d0161284d565b9650506060612a808c828d016127dd565b9550506080612a918c828d0161284d565b94505060a0612aa28c828d01612858565b93505060c0612ab38c828d016127ee565b92505060e0612ac48c828d016127ee565b9150509295985092959850929598565b600080600080600060808688031215612aec57600080fd5b853567ffffffffffffffff811115612b0357600080fd5b612b0f88828901612804565b95509550506020612b228882890161284d565b9350506040612b338882890161284d565b9250506060612b448882890161284d565b9150509295509295909350565b60008060408385031215612b6457600080fd5b6000612b7085856127ee565b92505060206128b9858286016127ee565b612b8a81613883565b82525050565b612b8a612b9c8261383e565b6138e3565b612b8a8161383e565b612b8a81613849565b612b8a816115bb565b612b8a612bc8826115bb565b6115bb565b6000612bd98385611dee565b9350612be68385846138ab565b50500190565b6000612bf782613831565b612c018185611dee565b9350612c118185602086016138b7565b9290920192915050565b600081546001811660008114612c385760018114612c5b57612c9a565b607f6002830416612c498187611dee565b60ff1984168152955085019250612c9a565b60028204612c698187611dee565b9550612c7485613825565b60005b82811015612c9357815488820152600190910190602001612c77565b5050850192505b505092915050565b612b8a8161388a565b612b8a81613895565b6000612cbf82613831565b612cc98185613835565b9350612cd98185602086016138b7565b612ce28161391a565b9093019392505050565b600081546001811660008114612d095760018114612d2f57612c9a565b607f6002830416612d1a8187613835565b60ff1984168152955050602085019250612c9a565b60028204612d3d8187613835565b9550612d4885613825565b60005b82811015612d6757815488820152600190910190602001612d4b565b9096019695505050505050565b6000612d81601883613835565b7f6578636565646564206d6178696d756d2074696d656f75740000000000000000815260200192915050565b6000612dba601283613835565b7f6f6e6c7920666f7220746865206f776e65720000000000000000000000000000815260200192915050565b6000612df3601083613835565b7f6f6e6c7920696e20317374207965617200000000000000000000000000000000815260200192915050565b6000612e2c601a83613835565b7f72657665616c436f6e76696374207374696c6c206c6f636b6564000000000000815260200192915050565b6000612e65601c83613835565b7f61646472657373206973206e6f7420616e20696e332d7369676e657200000000815260200192915050565b6000612e9e601583613835565b7f75726c20697320616c726561647920696e207573650000000000000000000000815260200192915050565b6000612ed7601883613835565b7f6e6f7420696e2074686520636f72726563742073746174650000000000000000815260200192915050565b6000612f10603883613835565b7f61206e6f64652077697468207468652073616d652075726c206f72207369676e81527f657220697320616c726561647920726567697374657265640000000000000000602082015260400192915050565b6000612f6f601483613835565b7f6465706f736974207374696c6c206c6f636b6564000000000000000000000000815260200192915050565b6000612fa8600f83613835565b7f626c6f636b206e6f7420666f756e640000000000000000000000000000000000815260200192915050565b6000612fe1601283613835565b7f6e6f7420656e6f756768206465706f7369740000000000000000000000000000815260200192915050565b600061301a601b83613835565b7f6f6e6c7920666f722074686520696e332d6e6f6465206f776e65720000000000815260200192915050565b6000613053603283613835565b7f74686520626c6f636b20776173206e6f74207369676e6564206279207468652081527f7369676e6572206f6620746865206e6f64650000000000000000000000000000602082015260400192915050565b60006130b2601783613835565b7f4c696d6974206f66203530204554482072656163686564000000000000000000815260200192915050565b60006130eb601c83613835565b7f6f6e6c79206f776e65722063616e20636c61696d206465706f73697400000000815260200192915050565b6000613124601683613835565b7f6e6f742074686520636f7272656374207369676e657200000000000000000000815260200192915050565b600061315d602683613835565b7f796f752074727920746f20636f6e766963742077697468206120636f7272656381527f7420686173680000000000000000000000000000000000000000000000000000602082015260400192915050565b60006131bc601683613835565b7f307830206164647265737320697320696e76616c696400000000000000000000815260200192915050565b60006131f5601283613835565b7f77726f6e6720636f6e7669637420686173680000000000000000000000000000815260200192915050565b600061322e601683613835565b7f6e6f646520616c726561647920636f6e76696374656400000000000000000000815260200192915050565b6000613267603083613835565b7f6e6f742074686520636f7272656374207369676e6174757265206f662074686581527f207369676e65722070726f766964656400000000000000000000000000000000602082015260400192915050565b60006132c6602d83613835565b7f6f6e6c7920756e72656769737465724b657920697320616c6c6f77656420746f81527f2072656d6f7665206e6f64657300000000000000000000000000000000000000602082015260400192915050565b612b8a81613858565b612b8a61332d82613858565b6138ee565b612b8a816138a0565b612b8a81613870565b612b8a61335082613870565b613904565b612b8a8161387d565b612b8a61336a8261387d565b61390f565b600061337b8288612bbc565b60208201915061338b8287612b90565b60148201915061339b828661335e565b6001820191506133ab8285612bbc565b6020820191506133bb8284612bbc565b5060200195945050505050565b60006133d48286612bbc565b6020820191506133e48285612bbc565b6020820191506133f48284612bbc565b506020019392505050565b6000612881828486612bcd565b60006134188285612bec565b91506134248284612bbc565b5060200192915050565b600061343a8284612c1b565b9392505050565b600061344e82888a612bcd565b915061345a8287613344565b60088201915061346a8286613344565b60088201915061347a8285613344565b60088201915061348a8284612b90565b506014019695505050505050565b60006134a48289612bbc565b6020820191506134b48288613344565b6008820191506134c48287613344565b6008820191506134d48286613321565b6010820191506134e48285612b90565b6014820191506134f48284612bec565b98975050505050505050565b602081016127e88284612ba1565b6040810161351c8285612baa565b61343a6020830184612ba1565b602081016127e88284612bb3565b608081016135458287612bb3565b6135526020830186613355565b61355f6040830185612bb3565b61356c6060830184612bb3565b95945050505050565b602081016127e88284612ca2565b608080825281016135948187612cb4565b90506135a36020830186613332565b61355f6040830185612ba1565b61010080825281016135c2818b612cb4565b90506135d1602083018a612bb3565b6135de604083018961333b565b6135eb606083018861333b565b6135f86080830187613318565b61360560a083018661333b565b61361260c0830185612ba1565b61361f60e0830184612bb3565b9998505050505050505050565b6040808252810161363d8185612cec565b905061343a6020830184612ba1565b6080808252810161365d8187612cec565b905061366c6020830186613332565b61355f6040830185612b81565b602080825281016127e881612d74565b602080825281016127e881612dad565b602080825281016127e881612de6565b602080825281016127e881612e1f565b602080825281016127e881612e58565b602080825281016127e881612e91565b602080825281016127e881612eca565b602080825281016127e881612f03565b602080825281016127e881612f62565b602080825281016127e881612f9b565b602080825281016127e881612fd4565b602080825281016127e88161300d565b602080825281016127e881613046565b602080825281016127e8816130a5565b602080825281016127e8816130de565b602080825281016127e881613117565b602080825281016127e881613150565b602080825281016127e8816131af565b602080825281016127e8816131e8565b602080825281016127e881613221565b602080825281016127e88161325a565b602080825281016127e8816132b9565b60a081016137e7828861333b565b6137f46020830187612ba1565b6138016040830186612cab565b61380e6060830185612bb3565b61381b6080830184612bb3565b9695505050505050565b60009081526020902090565b5190565b90815260200190565b60006127e882613864565b151590565b80611dee81613982565b6001608060020a031690565b600160a060020a031690565b67ffffffffffffffff1690565b60ff1690565b60006127e8825b60006127e88261383e565b60006127e88261384e565b60006127e882613870565b82818337506000910152565b60005b838110156138d25781810151838201526020016138ba565b838111156118685750506000910152565b60006127e8826138f9565b60006127e882613924565b60006127e882613970565b60006127e88261392d565b60006127e88261394b565b601f01601f191690565b608060020a0290565b78010000000000000000000000000000000000000000000000000290565b7f01000000000000000000000000000000000000000000000000000000000000000290565b6c010000000000000000000000000290565b600481106127da57fe5b6139958161383e565b81146127da57600080fd5b613995816115bb565b61399581613870565b6139958161387d56fea365627a7a72305820740754fe1ffde68f71f76b4d8be340ee53d05f9bc1ac63bf3942525394342f2b6c6578706572696d656e74616cf564736f6c634300050a0040",
  "source": "/***********************************************************\n* This file is part of the Slock.it IoT Layer.             *\n* The Slock.it IoT Layer contains:                         *\n*   - USN (Universal Sharing Network)                      *\n*   - INCUBED (Trustless INcentivized remote Node Network) *\n************************************************************\n* Copyright (C) 2016 - 2018 Slock.it GmbH                  *\n* All Rights Reserved.                                     *\n************************************************************\n* You may use, distribute and modify this code under the   *\n* terms of the license contract you have concluded with    *\n* Slock.it GmbH.                                           *\n* For information about liability, maintenance etc. also   *\n* refer to the contract concluded with Slock.it GmbH.      *\n************************************************************\n* For more information, please refer to https://slock.it   *\n* For questions, please contact info@slock.it              *\n***********************************************************/\n\npragma solidity 0.5.10;\npragma experimental ABIEncoderV2;\n\nimport \"./BlockhashRegistry.sol\";\n\n\n/// @title Registry for IN3-nodes\ncontract NodeRegistry {\n\n    /// node has been registered or updated its registry props or deposit\n    event LogNodeRegistered(string url, uint props, address signer, uint deposit);\n\n    /// a node was convicted\n    event LogNodeConvicted(address signer);\n\n    /// a Node is removed\n    event LogNodeRemoved(string url, address signer);\n\n    struct In3Node {\n        string url;                         /// the url of the node\n\n        uint deposit;                       /// stored deposit\n\n        uint64 timeout;                     /// timeout after which the owner is allowed to receive his stored deposit\n        uint64 registerTime;                /// timestamp when the node was registered\n        uint128 props;                       /// a list of properties-flags representing the capabilities of the node\n\n        uint64 weight;                      ///  the flag for (future) incentivisation\n        address signer;                     /// the signer for requests\n\n        bytes32 proofHash;                  /// keccak(deposit,timeout,registerTime,props,signer,url)\n    }\n\n     /// information of a (future) convict (used to prevent frontrunning)\n    struct ConvictInformation {\n        bytes32 convictHash;                /// keccak256(wrong blockhash, msg.sender, v, r, s)\n        uint blockNumberConvict;            /// block number when convict had been called\n    }\n\n    /// information of a in3-node owner\n    struct SignerInformation {\n        uint64 lockedTime;                  /// timestamp until the deposit of an in3-node can not be withdrawn after the node was removed\n        address owner;                      /// the owner of the node\n\n        Stages stage;                       /// state of the address\n\n        uint depositAmount;                 /// amount of deposit to be locked, used only after a node had been removed\n\n        uint index;                         /// current index-position of the node in the node-array\n    }\n\n    /// information of an url\n    struct UrlInformation {\n        bool used;                          /// flag whether the url is currently used\n        address signer;                     /// address of the owner of the url\n    }\n\n    /// Different Stages a node can have\n    enum Stages {\n        NotInUse,                           /// node is not in use, so a new node with the same address can be registered\n        Active,                             /// node is active, so a new node with the same address cannot be registered\n        Convicted,                          /// node is convited, so he is inactive, but cannot be registered anymore\n        DepositNotWithdrawn                 /// node is not in use anymore, but still has some deposit stored within the contract\n    }\n\n    /// node list of incubed nodes\n    In3Node[] public nodes;\n\n    /// id used for signing in3-requests and in order to prevent cross-chain convicts\n    /// in case a fork happens there is the possibility that a node can be convicted on the other fork,\n    /// because they would use the very same registryId. Nevertheless we cannot change the registryId.\n    /// So in case of a fork a node should chose one of the forks and unregister his nodes on the others.\n    /// In this case it is also recommend to not sign requests until the node get his deposits from the forked contracts\n    bytes32 public registryId;\n\n    /// add your additional storage here. If you add information before this line you will break in3 nodelist\n\n    /// blockhash registry address\n    BlockhashRegistry public blockRegistry;\n\n    /// the timestamp of the deployment\n    uint public blockTimeStampDeployment;\n\n    /// admin-key to remove some server, only usable within the 1st year\n    address public unregisterKey;\n\n    /// mapping for information of the owner\n    mapping (address => SignerInformation) public signerIndex;\n\n    /// mapping for the information of the url\n    /// can be used to access the SignerInformation-struct\n    mapping (bytes32 => UrlInformation) public urlIndex;\n\n    /// mapping for convicts: blocknumber => address => convictInformation\n    mapping (uint => mapping(address => ConvictInformation)) internal convictMapping;\n\n    /// capping the max deposit timeout on 1 year\n    uint constant internal YEAR_DEFINITION = 1 days * 365;\n\n    /// limit for ether per node in the 1st year\n    uint constant internal MAX_ETHER_LIMIT = 50 ether;\n\n    /// version: major minor fork(000) date(yyyy/mm/dd)\n    uint constant public VERSION = 12300020190709;\n\n    modifier onlyActiveState(address _signer) {\n\n        SignerInformation memory si = signerIndex[_signer];\n        require(si.stage == Stages.Active, \"address is not an in3-signer\");\n\n        In3Node memory n = nodes[si.index];\n        require(n.signer == _signer, \"not the correct signer\");\n        _;\n    }\n\n    /// @notice constructor\n    /// @param _blockRegistry address of a BlockhashRegistry-contract\n    /// @dev cannot be deployed in a genesis block\n    constructor(BlockhashRegistry _blockRegistry) public {\n        blockRegistry = _blockRegistry;\n\n        // solium-disable-next-line security/no-block-members\n        blockTimeStampDeployment = block.timestamp;  // solhint-disable-line not-rely-on-time\n        registryId = keccak256(abi.encodePacked(address(this), blockhash(block.number-1)));\n        unregisterKey = msg.sender;\n    }\n\n    /// @notice commits a blocknumber and a hash\n    /// @notice must be called before revealConvict\n    /// @param _blockNumber the blocknumber of the wrong blockhash\n    /// @param _hash keccak256(wrong blockhash, msg.sender, v, r, s); used to prevent frontrunning.\n    /// @dev The v,r,s paramaters are from the signature of the wrong blockhash that the node provided\n    function convict(uint _blockNumber, bytes32 _hash) external {\n\n        ConvictInformation memory ci;\n        ci.convictHash = _hash;\n        ci.blockNumberConvict = block.number;\n\n        convictMapping[_blockNumber][msg.sender] = ci;\n    }\n\n    /// @notice register a new node with the sender as owner\n    /// @param _url the url of the node, has to be unique\n    /// @param _props properties of the node\n    /// @param _timeout timespan of how long the node of a deposit will be locked. Will be at least for 1h\n    /// @param _weight how many requests per second the node is able to handle\n    /// @dev will call the registerNodeInteral function\n    function registerNode(\n        string calldata _url,\n        uint64 _props,\n        uint64 _timeout,\n        uint64 _weight\n    )\n        external\n        payable\n    {\n        registerNodeInternal(\n            _url,\n            _props,\n            _timeout,\n            msg.sender,\n            msg.sender,\n            msg.value,\n            _weight\n        );\n    }\n\n    /// @notice register a new node as a owner using a different signer address\n    /// @param _url the url of the node, has to be unique\n    /// @param _props properties of the node\n    /// @param _timeout timespan of how long the node of a deposit will be locked. Will be at least for 1h\n    /// @param _signer the signer of the in3-node\n    /// @param _weight how many requests per second the node is able to handle\n    /// @param _v v of the signed message\n    /// @param _r r of the signed message\n    /// @param _s s of the signed message\n    /// @dev will call the registerNodeInteral function\n    /// @dev in order to prove that the owner has controll over the signer-address he has to sign a message\n    /// @dev which is calculated by the hash of the url, properties, timeout, weight and the owner\n    /// @dev will revert when a wrong signature has been provided\n    function registerNodeFor(\n        string calldata _url,\n        uint64 _props,\n        uint64 _timeout,\n        address _signer,\n        uint64 _weight,\n        uint8 _v,\n        bytes32 _r,\n        bytes32 _s\n    )\n        external\n        payable\n    {\n\n        bytes memory prefix = \"\\x19Ethereum Signed Message:\\n32\";\n        bytes32 tempHash = keccak256(\n            abi.encodePacked(\n                _url,\n                _props,\n                _timeout,\n                _weight,\n                msg.sender\n            )\n        );\n        bytes32 prefixedHash = keccak256(abi.encodePacked(prefix, tempHash));\n\n        address signer = ecrecover(\n            prefixedHash,\n            _v,\n            _r,\n            _s\n        );\n\n        require(_signer == signer, \"not the correct signature of the signer provided\");\n\n        registerNodeInternal(\n            _url,\n            _props,\n            _timeout,\n            _signer,\n            msg.sender,\n            msg.value,\n            _weight\n        );\n    }\n\n    /// @notice removes an in3-server from the registry\n    /// @param _signer the signer-address of the in3-node\n    /// @dev only callable by the unregisterKey-account\n    /// @dev only callable in the 1st year after deployment\n    function removeNodeFromRegistry(address _signer)\n        external\n        onlyActiveState(_signer)\n    {\n\n        // solium-disable-next-line security/no-block-members\n        require(block.timestamp < (blockTimeStampDeployment + YEAR_DEFINITION), \"only in 1st year\");// solhint-disable-line not-rely-on-time\n        require(msg.sender == unregisterKey, \"only unregisterKey is allowed to remove nodes\");\n\n        SignerInformation storage si = signerIndex[_signer];\n        In3Node memory n = nodes[si.index];\n\n        unregisterNodeInternal(si, n);\n\n    }\n\n    /// @notice returns the deposit after a node has been removed due to inactivity\n    /// @notice only callable after the timeout of the deposit is over\n    /// @param _signer the signer-address of a former in3-node\n    /// @dev reverts when not the owner of the former in3-node\n    /// @dev reverts when there is nothing to transfer\n    /// @dev reverts if the deposit is still locked\n    function returnDeposit(address _signer) external {\n\n        SignerInformation storage si = signerIndex[_signer];\n\n        require(si.stage == Stages.DepositNotWithdrawn, \"not in the correct state\");\n        require(si.owner == msg.sender, \"only owner can claim deposit\");\n\n        // solium-disable-next-line security/no-block-members\n        require(block.timestamp > si.lockedTime, \"deposit still locked\"); // solhint-disable-line not-rely-on-time\n\n        uint payout = si.depositAmount;\n        delete signerIndex[_signer];\n        msg.sender.transfer(payout);\n    }\n\n    /// @notice reveals the wrongly provided blockhash, so that the node-owner will lose its deposit\n    /// @param _signer the address that signed the wrong blockhash\n    /// @param _blockhash the wrongly provided blockhash\n    /// @param _blockNumber number of the wrongly provided blockhash\n    /// @param _v v of the signature\n    /// @param _r r of the signature\n    /// @param _s s of the signature\n    /// @dev reverts if a block with that number cannot be found in either the latest 256 blocks or the blockhash registry\n    /// @dev reverts when tryin to convict someone with a correct blockhash\n    /// @dev reverts when trying to reveal immediately after calling convict\n    /// @dev reverts when the _signer did not sign the block\n    /// @dev reverts when the wrong convict hash (see convict-function) is used\n    function revealConvict(\n        address _signer,\n        bytes32 _blockhash,\n        uint _blockNumber,\n        uint8 _v,\n        bytes32 _r,\n        bytes32 _s\n    )\n        external\n    {\n        // solium-disable-next-line security/no-block-members\n        bytes32 evmBlockhash = blockhash(_blockNumber);\n\n        if (evmBlockhash == 0x0) {\n            evmBlockhash = blockRegistry.blockhashMapping(_blockNumber);\n        }\n\n        require(evmBlockhash != 0x0, \"block not found\");\n\n        // if the blockhash is correct you cannot convict the node\n        require(evmBlockhash != _blockhash, \"you try to convict with a correct hash\");\n\n        SignerInformation storage si = signerIndex[_signer];\n        ConvictInformation storage ci = convictMapping[_blockNumber][msg.sender];\n\n        require(block.number >= ci.blockNumberConvict + 2, \"revealConvict still locked\");\n        require(\n            ecrecover(\n                keccak256(\n                    abi.encodePacked(\n                        _blockhash,\n                        _blockNumber,\n                        registryId\n                    )\n                ),\n                _v, _r, _s) == _signer,\n            \"the block was not signed by the signer of the node\");\n\n        require(\n            keccak256(\n                abi.encodePacked(\n                    _blockhash, msg.sender, _v, _r, _s\n                )\n            ) == ci.convictHash, \"wrong convict hash\");\n\n        require(si.stage != Stages.Convicted, \"node already convicted\");\n        emit LogNodeConvicted(_signer);\n\n        uint deposit = 0;\n        // the signer is still active\n        if (si.stage == Stages.Active) {\n            assert(nodes[si.index].signer == _signer);\n            deposit = nodes[si.index].deposit;\n            removeNode(si.index);\n        } else {\n            // the signer is not active anymore\n            deposit = si.depositAmount;\n            si.depositAmount = 0;\n            si.lockedTime = 0;\n        }\n\n        si.stage = Stages.Convicted;\n        delete convictMapping[_blockNumber][msg.sender];\n\n        // remove the deposit\n        uint payout = deposit / 2;\n        // send 50% to the caller of this function\n        msg.sender.transfer(payout);\n        // and burn the rest by sending it to the 0x0-address\n        // this is done in order to make it useless trying to convict your own node with a second account\n        // and this getting all the deposit back after signing a wrong hash.\n        address(0).transfer(deposit-payout);\n    }\n\n    /// @notice changes the ownership of an in3-node\n    /// @param _signer the signer-address of the in3-node, used as an identifier\n    /// @param _newOwner the new owner\n    /// @dev reverts when trying to change ownership of an inactive node\n    /// @dev reverts when trying to pass ownership to 0x0\n    /// @dev reverts when the sender is not the current owner\n    /// @dev reverts when inacitivity is claimed\n    function transferOwnership(address _signer, address _newOwner)\n        external\n        onlyActiveState(_signer)\n    {\n        SignerInformation storage si = signerIndex[_signer];\n        require(si.owner == msg.sender, \"only for the in3-node owner\");\n\n        require(_newOwner != address(0x0), \"0x0 address is invalid\");\n        si.owner = _newOwner;\n    }\n\n    /// @notice a node owner can unregister a node, removing it from the nodeList\n    /// @notice doing so will also lock his deposit for the timeout of the node\n    /// @param _signer the signer of the in3-node\n    /// @dev reverts when the provided address is not an in3-signer\n    /// @dev reverts when the node is already unregistering\n    /// @dev reverts when not called by the owner of the node\n    function unregisteringNode(address _signer)\n        external\n        onlyActiveState(_signer)\n    {\n\n        SignerInformation storage si = signerIndex[_signer];\n        In3Node memory n = nodes[si.index];\n        require(si.owner == msg.sender, \"only for the in3-node owner\");\n\n        unregisterNodeInternal(si, n);\n    }\n\n    /// @notice updates a node by adding the msg.value to the deposit and setting the props or timeout\n    /// @param _signer the signer-address of the in3-node, used as an identifier\n    /// @param _url the url, will be changed if different from the current one\n    /// @param _props the new properties, will be changed if different from the current onec\n    /// @param _timeout the new timeout of the node, cannot be decreased. Has to be at least 1h\n    /// @param _weight the amount of requests per second the node is able to handle\n    /// @dev reverts when the sender is not the owner of the node\n    /// @dev reverts when the signer does not own a node\n    /// @dev reverts when trying to increase the timeout above 10 years\n    /// @dev reverts when trying to change the url to an already existing one\n    function updateNode(\n        address _signer,\n        string calldata _url,\n        uint64 _props,\n        uint64 _timeout,\n        uint64 _weight\n    )\n        external\n        payable\n        onlyActiveState(_signer)\n    {\n        SignerInformation memory si = signerIndex[_signer];\n        require(si.owner == msg.sender, \"only for the owner\");\n\n        In3Node storage node = nodes[si.index];\n\n        bytes32 newURl = keccak256(bytes(_url));\n\n        // the url got changed\n        if (newURl != keccak256(bytes(node.url))) {\n\n            // deleting the old entry\n            delete urlIndex[keccak256(bytes(node.url))];\n\n            // make sure the new url is not already in use\n            require(!urlIndex[newURl].used, \"url is already in use\");\n\n            UrlInformation memory ui;\n            ui.used = true;\n            ui.signer = msg.sender;\n            urlIndex[newURl] = ui;\n            node.url = _url;\n        }\n\n        if (msg.value > 0) {\n            node.deposit += msg.value;\n        }\n\n        checkNodeProperties(node.deposit, _timeout);\n\n        if (_props != node.props) {\n            node.props = _props;\n        }\n\n        if (_timeout > node.timeout) {\n            node.timeout = _timeout;\n        }\n\n        if (_weight != node.weight) {\n            node.weight = _weight;\n        }\n\n        node.proofHash = calcProofHash(node);\n\n        emit LogNodeRegistered(\n            node.url,\n            _props,\n            msg.sender,\n            node.deposit\n        );\n    }\n\n    /// @notice length of the nodelist\n    /// @return the number of total in3-nodes\n    function totalNodes() external view returns (uint) {\n        return nodes.length;\n    }\n\n    /// @notice calculates the sha3 hash of the most important properties in order to make the proof faster\n    /// @param _node the in3 node to calculate the hash from\n    /// @return the hash of the properties of an in3-node\n    function calcProofHash(In3Node memory _node) internal pure returns (bytes32) {\n\n        return keccak256(\n            abi.encodePacked(\n                _node.deposit,\n                _node.timeout,\n                _node.registerTime,\n                _node.props,\n                _node.signer,\n                _node.url\n            )\n        );\n    }\n\n    /// @notice function to check whether the allowed amount of ether as deposit per server has been reached\n    /// @param _deposit the new amount of deposit a server has\n    /// @param _timeout the timeout until a server can receive his depoist after unregistering\n    /// @dev will fail when the deposit is greater then 50 ether in the 1st year\n    /// @dev will fail when the provided timeout is greater then 1 year\n    function checkNodeProperties(uint256 _deposit, uint64 _timeout) internal view {\n\n        // solium-disable-next-line security/no-block-members\n        if (block.timestamp < (blockTimeStampDeployment + YEAR_DEFINITION)) { // solhint-disable-line not-rely-on-time\n            require(_deposit < MAX_ETHER_LIMIT, \"Limit of 50 ETH reached\");\n        }\n        require(_timeout <= YEAR_DEFINITION, \"exceeded maximum timeout\");\n    }\n\n    /// @notice registers a node\n    /// @param _url the url of a node\n    /// @param _props properties of a node\n    /// @param _timeout the time before the owner can access the deposit after unregistering a node\n    /// @param _signer the address that signs the answers of the node\n    /// @param _owner the owner address of the node\n    /// @param _deposit the deposit of a node\n    /// @param _weight the amount of requests per second a node is able to handle\n    /// @dev reverts when time timeout exceed the MAXDEPOSITTIMEOUT\n    /// @dev reverts when provided not enough deposit\n    /// @dev reverts when trying to register a node with more then 50 ether in the 1st year after deployment\n    /// @dev reverts when either the owner or the url is already in use\n    function registerNodeInternal (\n        string memory _url,\n        uint64 _props,\n        uint64 _timeout,\n        address _signer,\n        address payable _owner,\n        uint _deposit,\n        uint64 _weight\n    )\n        internal\n    {\n\n        // enforcing a minimum deposit\n        require(_deposit >= 10 finney, \"not enough deposit\");\n\n        checkNodeProperties(_deposit, _timeout);\n\n        bytes32 urlHash = keccak256(bytes(_url));\n\n        // make sure this url and also this owner was not registered before.\n        // solium-disable-next-line\n        require(!urlIndex[urlHash].used && signerIndex[_signer].stage == Stages.NotInUse,\n            \"a node with the same url or signer is already registered\");\n\n        // sets the information of the owner\n        signerIndex[_signer].stage = Stages.Active;\n        signerIndex[_signer].index = nodes.length;\n        signerIndex[_signer].owner = _owner;\n\n        // add new In3Node\n        In3Node memory m;\n        m.url = _url;\n        m.props = _props;\n        m.signer = _signer;\n        m.deposit = _deposit;\n        m.timeout = _timeout > 1 hours ? _timeout : 1 hours;\n        // solium-disable-next-line security/no-block-members\n        m.registerTime = uint64(block.timestamp); // solhint-disable-line not-rely-on-time\n        m.weight = _weight;\n\n        m.proofHash = calcProofHash(m);\n        nodes.push(m);\n\n        // sets the information of the url\n        UrlInformation memory ui;\n        ui.used = true;\n        ui.signer = _signer;\n        urlIndex[urlHash] = ui;\n\n        emit LogNodeRegistered(\n            _url,\n            _props,\n            _signer,\n            _deposit\n        );\n    }\n\n    /// @notice handes the setting of the unregister values for a node internally\n    /// @param _si information of the signer\n    /// @param _n information of the in3-node\n    function unregisterNodeInternal(SignerInformation  storage _si, In3Node memory _n) internal {\n\n        // solium-disable-next-line security/no-block-members\n        _si.lockedTime = uint64(block.timestamp + _n.timeout);// solhint-disable-line not-rely-on-time\n        _si.depositAmount = _n.deposit;\n        _si.stage = Stages.DepositNotWithdrawn;\n\n        removeNode(_si.index);\n    }\n\n    /// @notice removes a node from the node-array\n    /// @param _nodeIndex the nodeIndex to be removed\n    function removeNode(uint _nodeIndex) internal {\n        // trigger event\n        emit LogNodeRemoved(nodes[_nodeIndex].url, nodes[_nodeIndex].signer);\n        // deleting the old entry\n        delete urlIndex[keccak256(bytes(nodes[_nodeIndex].url))];\n        uint length = nodes.length;\n\n        assert(length > 0);\n\n        // reset the index position\n        signerIndex[nodes[_nodeIndex].signer].index = 0;\n\n        // move the last entry to the removed one.\n        In3Node memory m = nodes[length - 1];\n        nodes[_nodeIndex] = m;\n\n        SignerInformation storage si = signerIndex[m.signer];\n        si.index = uint64(_nodeIndex);\n        nodes.length--;\n    }\n}\n",
  "sourcePath": "/Users/mkuechler/Documents/in3-stuff/in3-contracts/contracts/NodeRegistry.sol",
  "compiler": {
    "name": "solc",
    "version": "0.5.10+commit.5a6ea5b1.Linux.g++"
  },
  "schemaVersion": "3.0.10",
  "updatedAt": "2019-08-22T06:43:41.703Z",
  "devdoc": {
    "methods": {
      "constructor": {
        "details": "cannot be deployed in a genesis block",
        "params": {
          "_blockRegistry": "address of a BlockhashRegistry-contract"
        }
      },
      "convict(uint256,bytes32)": {
        "details": "The v,r,s paramaters are from the signature of the wrong blockhash that the node provided",
        "params": {
          "_blockNumber": "the blocknumber of the wrong blockhash",
          "_hash": "keccak256(wrong blockhash, msg.sender, v, r, s); used to prevent frontrunning."
        }
      },
      "registerNode(string,uint64,uint64,uint64)": {
        "details": "will call the registerNodeInteral function",
        "params": {
          "_props": "properties of the node",
          "_timeout": "timespan of how long the node of a deposit will be locked. Will be at least for 1h",
          "_url": "the url of the node, has to be unique",
          "_weight": "how many requests per second the node is able to handle"
        }
      },
      "registerNodeFor(string,uint64,uint64,address,uint64,uint8,bytes32,bytes32)": {
        "details": "will call the registerNodeInteral functionin order to prove that the owner has controll over the signer-address he has to sign a messagewhich is calculated by the hash of the url, properties, timeout, weight and the ownerwill revert when a wrong signature has been provided",
        "params": {
          "_props": "properties of the node",
          "_r": "r of the signed message",
          "_s": "s of the signed message",
          "_signer": "the signer of the in3-node",
          "_timeout": "timespan of how long the node of a deposit will be locked. Will be at least for 1h",
          "_url": "the url of the node, has to be unique",
          "_v": "v of the signed message",
          "_weight": "how many requests per second the node is able to handle"
        }
      },
      "removeNodeFromRegistry(address)": {
        "details": "only callable by the unregisterKey-accountonly callable in the 1st year after deployment",
        "params": {
          "_signer": "the signer-address of the in3-node"
        }
      },
      "returnDeposit(address)": {
        "details": "reverts when not the owner of the former in3-nodereverts when there is nothing to transferreverts if the deposit is still locked",
        "params": {
          "_signer": "the signer-address of a former in3-node"
        }
      },
      "revealConvict(address,bytes32,uint256,uint8,bytes32,bytes32)": {
        "details": "reverts if a block with that number cannot be found in either the latest 256 blocks or the blockhash registryreverts when tryin to convict someone with a correct blockhashreverts when trying to reveal immediately after calling convictreverts when the _signer did not sign the blockreverts when the wrong convict hash (see convict-function) is used",
        "params": {
          "_blockNumber": "number of the wrongly provided blockhash",
          "_blockhash": "the wrongly provided blockhash",
          "_r": "r of the signature",
          "_s": "s of the signature",
          "_signer": "the address that signed the wrong blockhash",
          "_v": "v of the signature"
        }
      },
      "totalNodes()": {
        "return": "the number of total in3-nodes"
      },
      "transferOwnership(address,address)": {
        "details": "reverts when trying to change ownership of an inactive nodereverts when trying to pass ownership to 0x0reverts when the sender is not the current ownerreverts when inacitivity is claimed",
        "params": {
          "_newOwner": "the new owner",
          "_signer": "the signer-address of the in3-node, used as an identifier"
        }
      },
      "unregisteringNode(address)": {
        "details": "reverts when the provided address is not an in3-signerreverts when the node is already unregisteringreverts when not called by the owner of the node",
        "params": {
          "_signer": "the signer of the in3-node"
        }
      },
      "updateNode(address,string,uint64,uint64,uint64)": {
        "details": "reverts when the sender is not the owner of the nodereverts when the signer does not own a nodereverts when trying to increase the timeout above 10 yearsreverts when trying to change the url to an already existing one",
        "params": {
          "_props": "the new properties, will be changed if different from the current onec",
          "_signer": "the signer-address of the in3-node, used as an identifier",
          "_timeout": "the new timeout of the node, cannot be decreased. Has to be at least 1h",
          "_url": "the url, will be changed if different from the current one",
          "_weight": "the amount of requests per second the node is able to handle"
        }
      }
    },
    "title": "Registry for IN3-nodes"
  },
  "userdoc": {
    "methods": {
      "constructor": "constructor",
      "convict(uint256,bytes32)": {
        "notice": "commits a blocknumber and a hashmust be called before revealConvict"
      },
      "registerNode(string,uint64,uint64,uint64)": {
        "notice": "register a new node with the sender as owner"
      },
      "registerNodeFor(string,uint64,uint64,address,uint64,uint8,bytes32,bytes32)": {
        "notice": "register a new node as a owner using a different signer address"
      },
      "removeNodeFromRegistry(address)": {
        "notice": "removes an in3-server from the registry"
      },
      "returnDeposit(address)": {
        "notice": "returns the deposit after a node has been removed due to inactivityonly callable after the timeout of the deposit is over"
      },
      "revealConvict(address,bytes32,uint256,uint8,bytes32,bytes32)": {
        "notice": "reveals the wrongly provided blockhash, so that the node-owner will lose its deposit"
      },
      "totalNodes()": {
        "notice": "length of the nodelist"
      },
      "transferOwnership(address,address)": {
        "notice": "changes the ownership of an in3-node"
      },
      "unregisteringNode(address)": {
        "notice": "a node owner can unregister a node, removing it from the nodeListdoing so will also lock his deposit for the timeout of the node"
      },
      "updateNode(address,string,uint64,uint64,uint64)": {
        "notice": "updates a node by adding the msg.value to the deposit and setting the props or timeout"
      }
    }
  }
}