{
  "contractName": "NodeRegistry",
  "abi": [
    {
      "constant": true,
      "inputs": [],
      "name": "registryId",
      "outputs": [
        {
          "name": "",
          "type": "bytes32"
        }
      ],
      "payable": false,
      "stateMutability": "view",
      "type": "function"
    },
    {
      "constant": true,
      "inputs": [
        {
          "name": "",
          "type": "address"
        }
      ],
      "name": "signerIndex",
      "outputs": [
        {
          "name": "lockedTime",
          "type": "uint64"
        },
        {
          "name": "owner",
          "type": "address"
        },
        {
          "name": "stage",
          "type": "uint8"
        },
        {
          "name": "depositAmount",
          "type": "uint256"
        },
        {
          "name": "index",
          "type": "uint256"
        }
      ],
      "payable": false,
      "stateMutability": "view",
      "type": "function"
    },
    {
      "constant": true,
      "inputs": [
        {
          "name": "",
          "type": "uint256"
        }
      ],
      "name": "nodes",
      "outputs": [
        {
          "name": "url",
          "type": "string"
        },
        {
          "name": "deposit",
          "type": "uint256"
        },
        {
          "name": "timeout",
          "type": "uint64"
        },
        {
          "name": "registerTime",
          "type": "uint64"
        },
        {
          "name": "props",
          "type": "uint128"
        },
        {
          "name": "weight",
          "type": "uint64"
        },
        {
          "name": "signer",
          "type": "address"
        },
        {
          "name": "proofHash",
          "type": "bytes32"
        }
      ],
      "payable": false,
      "stateMutability": "view",
      "type": "function"
    },
    {
      "constant": true,
      "inputs": [],
      "name": "unregisterKey",
      "outputs": [
        {
          "name": "",
          "type": "address"
        }
      ],
      "payable": false,
      "stateMutability": "view",
      "type": "function"
    },
    {
      "constant": true,
      "inputs": [],
      "name": "blockTimeStampDeployment",
      "outputs": [
        {
          "name": "",
          "type": "uint256"
        }
      ],
      "payable": false,
      "stateMutability": "view",
      "type": "function"
    },
    {
      "constant": true,
      "inputs": [
        {
          "name": "",
          "type": "bytes32"
        }
      ],
      "name": "urlIndex",
      "outputs": [
        {
          "name": "used",
          "type": "bool"
        },
        {
          "name": "signer",
          "type": "address"
        }
      ],
      "payable": false,
      "stateMutability": "view",
      "type": "function"
    },
    {
      "constant": true,
      "inputs": [],
      "name": "blockRegistry",
      "outputs": [
        {
          "name": "",
          "type": "address"
        }
      ],
      "payable": false,
      "stateMutability": "view",
      "type": "function"
    },
    {
      "constant": true,
      "inputs": [],
      "name": "VERSION",
      "outputs": [
        {
          "name": "",
          "type": "uint256"
        }
      ],
      "payable": false,
      "stateMutability": "view",
      "type": "function"
    },
    {
      "inputs": [
        {
          "name": "_blockRegistry",
          "type": "address"
        }
      ],
      "payable": false,
      "stateMutability": "nonpayable",
      "type": "constructor"
    },
    {
      "anonymous": false,
      "inputs": [
        {
          "indexed": false,
          "name": "url",
          "type": "string"
        },
        {
          "indexed": false,
          "name": "props",
          "type": "uint256"
        },
        {
          "indexed": false,
          "name": "signer",
          "type": "address"
        },
        {
          "indexed": false,
          "name": "deposit",
          "type": "uint256"
        }
      ],
      "name": "LogNodeRegistered",
      "type": "event"
    },
    {
      "anonymous": false,
      "inputs": [
        {
          "indexed": false,
          "name": "signer",
          "type": "address"
        }
      ],
      "name": "LogNodeConvicted",
      "type": "event"
    },
    {
      "anonymous": false,
      "inputs": [
        {
          "indexed": false,
          "name": "url",
          "type": "string"
        },
        {
          "indexed": false,
          "name": "signer",
          "type": "address"
        }
      ],
      "name": "LogNodeRemoved",
      "type": "event"
    },
    {
      "constant": false,
      "inputs": [
        {
          "name": "_blockNumber",
          "type": "uint256"
        },
        {
          "name": "_hash",
          "type": "bytes32"
        }
      ],
      "name": "convict",
      "outputs": [],
      "payable": false,
      "stateMutability": "nonpayable",
      "type": "function"
    },
    {
      "constant": false,
      "inputs": [
        {
          "name": "_url",
          "type": "string"
        },
        {
          "name": "_props",
          "type": "uint64"
        },
        {
          "name": "_timeout",
          "type": "uint64"
        },
        {
          "name": "_weight",
          "type": "uint64"
        }
      ],
      "name": "registerNode",
      "outputs": [],
      "payable": true,
      "stateMutability": "payable",
      "type": "function"
    },
    {
      "constant": false,
      "inputs": [
        {
          "name": "_url",
          "type": "string"
        },
        {
          "name": "_props",
          "type": "uint64"
        },
        {
          "name": "_timeout",
          "type": "uint64"
        },
        {
          "name": "_signer",
          "type": "address"
        },
        {
          "name": "_weight",
          "type": "uint64"
        },
        {
          "name": "_v",
          "type": "uint8"
        },
        {
          "name": "_r",
          "type": "bytes32"
        },
        {
          "name": "_s",
          "type": "bytes32"
        }
      ],
      "name": "registerNodeFor",
      "outputs": [],
      "payable": true,
      "stateMutability": "payable",
      "type": "function"
    },
    {
      "constant": false,
      "inputs": [
        {
          "name": "_signer",
          "type": "address"
        }
      ],
      "name": "removeNodeFromRegistry",
      "outputs": [],
      "payable": false,
      "stateMutability": "nonpayable",
      "type": "function"
    },
    {
      "constant": false,
      "inputs": [
        {
          "name": "_signer",
          "type": "address"
        }
      ],
      "name": "returnDeposit",
      "outputs": [],
      "payable": false,
      "stateMutability": "nonpayable",
      "type": "function"
    },
    {
      "constant": false,
      "inputs": [
        {
          "name": "_signer",
          "type": "address"
        },
        {
          "name": "_blockhash",
          "type": "bytes32"
        },
        {
          "name": "_blockNumber",
          "type": "uint256"
        },
        {
          "name": "_v",
          "type": "uint8"
        },
        {
          "name": "_r",
          "type": "bytes32"
        },
        {
          "name": "_s",
          "type": "bytes32"
        }
      ],
      "name": "revealConvict",
      "outputs": [],
      "payable": false,
      "stateMutability": "nonpayable",
      "type": "function"
    },
    {
      "constant": false,
      "inputs": [
        {
          "name": "_signer",
          "type": "address"
        },
        {
          "name": "_newOwner",
          "type": "address"
        }
      ],
      "name": "transferOwnership",
      "outputs": [],
      "payable": false,
      "stateMutability": "nonpayable",
      "type": "function"
    },
    {
      "constant": false,
      "inputs": [
        {
          "name": "_signer",
          "type": "address"
        }
      ],
      "name": "unregisteringNode",
      "outputs": [],
      "payable": false,
      "stateMutability": "nonpayable",
      "type": "function"
    },
    {
      "constant": false,
      "inputs": [
        {
          "name": "_signer",
          "type": "address"
        },
        {
          "name": "_url",
          "type": "string"
        },
        {
          "name": "_props",
          "type": "uint64"
        },
        {
          "name": "_timeout",
          "type": "uint64"
        },
        {
          "name": "_weight",
          "type": "uint64"
        }
      ],
      "name": "updateNode",
      "outputs": [],
      "payable": true,
      "stateMutability": "payable",
      "type": "function"
    },
    {
      "constant": true,
      "inputs": [],
      "name": "totalNodes",
      "outputs": [
        {
          "name": "",
          "type": "uint256"
        }
      ],
      "payable": false,
      "stateMutability": "view",
      "type": "function"
    }
  ],
  "bytecode": "0x60806040523480156200001157600080fd5b5060405162005dc038038062005dc0833981810160405262000037919081019062000113565b80600260006101000a81548173ffffffffffffffffffffffffffffffffffffffff021916908373ffffffffffffffffffffffffffffffffffffffff160217905550426003819055503060014303406040516020016200009892919062000175565b6040516020818303038152906040528051906020012060018190555033600460006101000a81548173ffffffffffffffffffffffffffffffffffffffff021916908373ffffffffffffffffffffffffffffffffffffffff160217905550506200025c565b6000815190506200010d8162000242565b92915050565b6000602082840312156200012657600080fd5b60006200013684828501620000fc565b91505092915050565b620001546200014e82620001a5565b620001f7565b82525050565b6200016f6200016982620001b9565b6200020b565b82525050565b60006200018382856200013f565b6014820191506200019582846200015a565b6020820191508190509392505050565b6000620001b282620001d7565b9050919050565b6000819050919050565b6000620001d082620001a5565b9050919050565b600073ffffffffffffffffffffffffffffffffffffffff82169050919050565b6000620002048262000215565b9050919050565b6000819050919050565b6000620002228262000229565b9050919050565b60006c0100000000000000000000000082029050919050565b6200024d81620001c3565b81146200025957600080fd5b50565b615b54806200026c6000396000f3fe608060405260043610610126576000357c0100000000000000000000000000000000000000000000000000000000900480639592d424116100b2578063d402353e11610081578063d402353e14610361578063de7dda741461038a578063ea424064146103c8578063ecf55ad5146103e4578063ffa1ad741461040f57610126565b80639592d424146102c6578063ac489873146102f1578063bdef93031461030d578063bdfa59de1461033657610126565b80631a91a0ab116100f95780631a91a0ab146101c45780631b401f65146102055780631c53c2801461022e578063607e7000146102725780636d4354211461029d57610126565b80630224db0f1461012b57806304ef898d146101475780630c4dc01214610172578063192f82781461019b575b600080fd5b61014560048036036101409190810190614446565b61043a565b005b34801561015357600080fd5b5061015c610f9f565b604051610169919061529d565b60405180910390f35b34801561017e57600080fd5b5061019960048036036101949190810190614358565b610fa5565b005b3480156101a757600080fd5b506101c260048036036101bd91908101906146a1565b611703565b005b3480156101d057600080fd5b506101eb60048036036101e69190810190614358565b61178c565b6040516101fc959493929190615740565b60405180910390f35b34801561021157600080fd5b5061022c60048036036102279190810190614358565b611803565b005b34801561023a57600080fd5b5061025560048036036102509190810190614678565b611f19565b604051610269989796959493929190615364565b60405180910390f35b34801561027e57600080fd5b5061028761207e565b6040516102949190615259565b60405180910390f35b3480156102a957600080fd5b506102c460048036036102bf9190810190614381565b6120a4565b005b3480156102d257600080fd5b506102db612642565b6040516102e89190615725565b60405180910390f35b61030b6004803603610306919081019061452a565b61264e565b005b34801561031957600080fd5b50610334600480360361032f9190810190614358565b61280d565b005b34801561034257600080fd5b5061034b612aac565b6040516103589190615725565b60405180910390f35b34801561036d57600080fd5b50610388600480360361038391908101906143bd565b612ab2565b005b34801561039657600080fd5b506103b160048036036103ac91908101906144d8565b61314e565b6040516103bf929190615274565b60405180910390f35b6103e260048036036103dd91908101906145f8565b61319f565b005b3480156103f057600080fd5b506103f96131f9565b60405161040691906152fd565b60405180910390f35b34801561041b57600080fd5b5061042461321f565b6040516104319190615725565b60405180910390f35b85610443613f60565b600560008373ffffffffffffffffffffffffffffffffffffffff1673ffffffffffffffffffffffffffffffffffffffff1681526020019081526020016000206040518060a00160405290816000820160009054906101000a900467ffffffffffffffff1667ffffffffffffffff1667ffffffffffffffff1681526020016000820160089054906101000a900473ffffffffffffffffffffffffffffffffffffffff1673ffffffffffffffffffffffffffffffffffffffff1673ffffffffffffffffffffffffffffffffffffffff16815260200160008201601c9054906101000a900460ff16600381111561053357fe5b600381111561053e57fe5b81526020016001820154815260200160028201548152505090506001600381111561056557fe5b8160400151600381111561057557fe5b146105b5576040517f08c379a00000000000000000000000000000000000000000000000000000000081526004016105ac906154e5565b60405180910390fd5b6105bd613fba565b60008260800151815481106105ce57fe5b906000526020600020906005020160405180610100016040529081600082018054600181600116156101000203166002900480601f0160208091040260200160405190810160405280929190818152602001828054600181600116156101000203166002900480156106815780601f1061065657610100808354040283529160200191610681565b820191906000526020600020905b81548152906001019060200180831161066457829003601f168201915b50505050508152602001600182015481526020016002820160009054906101000a900467ffffffffffffffff1667ffffffffffffffff1667ffffffffffffffff1681526020016002820160089054906101000a900467ffffffffffffffff1667ffffffffffffffff1667ffffffffffffffff1681526020016002820160109054906101000a90046fffffffffffffffffffffffffffffffff166fffffffffffffffffffffffffffffffff166fffffffffffffffffffffffffffffffff1681526020016003820160009054906101000a900467ffffffffffffffff1667ffffffffffffffff1667ffffffffffffffff1681526020016003820160089054906101000a900473ffffffffffffffffffffffffffffffffffffffff1673ffffffffffffffffffffffffffffffffffffffff1673ffffffffffffffffffffffffffffffffffffffff16815260200160048201548152505090508273ffffffffffffffffffffffffffffffffffffffff168160c0015173ffffffffffffffffffffffffffffffffffffffff1614610848576040517f08c379a000000000000000000000000000000000000000000000000000000000815260040161083f90615645565b60405180910390fd5b610850613f60565b600560008b73ffffffffffffffffffffffffffffffffffffffff1673ffffffffffffffffffffffffffffffffffffffff1681526020019081526020016000206040518060a00160405290816000820160009054906101000a900467ffffffffffffffff1667ffffffffffffffff1667ffffffffffffffff1681526020016000820160089054906101000a900473ffffffffffffffffffffffffffffffffffffffff1673ffffffffffffffffffffffffffffffffffffffff1673ffffffffffffffffffffffffffffffffffffffff16815260200160008201601c9054906101000a900460ff16600381111561094057fe5b600381111561094b57fe5b81526020016001820154815260200160028201548152505090503373ffffffffffffffffffffffffffffffffffffffff16816020015173ffffffffffffffffffffffffffffffffffffffff16146109d7576040517f08c379a00000000000000000000000000000000000000000000000000000000081526004016109ce90615485565b60405180910390fd5b6000808260800151815481106109e957fe5b9060005260206000209060050201905060008a8a604051610a0b929190615138565b6040518091039020905081600001604051610a269190615179565b60405180910390208114610bd2576006600083600001604051610a499190615179565b60405180910390208152602001908152602001600020600080820160006101000a81549060ff02191690556000820160016101000a81549073ffffffffffffffffffffffffffffffffffffffff021916905550506006600082815260200190815260200160002060000160009054906101000a900460ff1615610b01576040517f08c379a0000000000000000000000000000000000000000000000000000000008152600401610af890615505565b60405180910390fd5b610b09614048565b600181600001901515908115158152505033816020019073ffffffffffffffffffffffffffffffffffffffff16908173ffffffffffffffffffffffffffffffffffffffff1681525050806006600084815260200190815260200160002060008201518160000160006101000a81548160ff02191690831515021790555060208201518160000160016101000a81548173ffffffffffffffffffffffffffffffffffffffff021916908373ffffffffffffffffffffffffffffffffffffffff160217905550905050505b6000341115610bee573482600101600082825401925050819055505b610bfc826001015489613229565b8160020160109054906101000a90046fffffffffffffffffffffffffffffffff166fffffffffffffffffffffffffffffffff168967ffffffffffffffff1614610c85578867ffffffffffffffff168260020160106101000a8154816fffffffffffffffffffffffffffffffff02191690836fffffffffffffffffffffffffffffffff1602179055505b8160020160009054906101000a900467ffffffffffffffff1667ffffffffffffffff168867ffffffffffffffff161115610ce557878260020160006101000a81548167ffffffffffffffff021916908367ffffffffffffffff1602179055505b8160030160009054906101000a900467ffffffffffffffff1667ffffffffffffffff168767ffffffffffffffff1614610d4457868260030160006101000a81548167ffffffffffffffff021916908367ffffffffffffffff1602179055505b610f458260405180610100016040529081600082018054600181600116156101000203166002900480601f016020809104026020016040519081016040528092919081815260200182805460018160011615610100020316600290048015610ded5780601f10610dc257610100808354040283529160200191610ded565b820191906000526020600020905b815481529060010190602001808311610dd057829003601f168201915b50505050508152602001600182015481526020016002820160009054906101000a900467ffffffffffffffff1667ffffffffffffffff1667ffffffffffffffff1681526020016002820160089054906101000a900467ffffffffffffffff1667ffffffffffffffff1667ffffffffffffffff1681526020016002820160109054906101000a90046fffffffffffffffffffffffffffffffff166fffffffffffffffffffffffffffffffff166fffffffffffffffffffffffffffffffff1681526020016003820160009054906101000a900467ffffffffffffffff1667ffffffffffffffff1667ffffffffffffffff1681526020016003820160089054906101000a900473ffffffffffffffffffffffffffffffffffffffff1673ffffffffffffffffffffffffffffffffffffffff1673ffffffffffffffffffffffffffffffffffffffff1681526020016004820154815250506132da565b82600401819055507f1ca262a77ac17942055c2ff991000041865fc4fe608b39c1f3c1073199656510826000018a338560010154604051610f899493929190615419565b60405180910390a1505050505050505050505050565b60015481565b80610fae613f60565b600560008373ffffffffffffffffffffffffffffffffffffffff1673ffffffffffffffffffffffffffffffffffffffff1681526020019081526020016000206040518060a00160405290816000820160009054906101000a900467ffffffffffffffff1667ffffffffffffffff1667ffffffffffffffff1681526020016000820160089054906101000a900473ffffffffffffffffffffffffffffffffffffffff1673ffffffffffffffffffffffffffffffffffffffff1673ffffffffffffffffffffffffffffffffffffffff16815260200160008201601c9054906101000a900460ff16600381111561109e57fe5b60038111156110a957fe5b8152602001600182015481526020016002820154815250509050600160038111156110d057fe5b816040015160038111156110e057fe5b14611120576040517f08c379a0000000000000000000000000000000000000000000000000000000008152600401611117906154e5565b60405180910390fd5b611128613fba565b600082608001518154811061113957fe5b906000526020600020906005020160405180610100016040529081600082018054600181600116156101000203166002900480601f0160208091040260200160405190810160405280929190818152602001828054600181600116156101000203166002900480156111ec5780601f106111c1576101008083540402835291602001916111ec565b820191906000526020600020905b8154815290600101906020018083116111cf57829003601f168201915b50505050508152602001600182015481526020016002820160009054906101000a900467ffffffffffffffff1667ffffffffffffffff1667ffffffffffffffff1681526020016002820160089054906101000a900467ffffffffffffffff1667ffffffffffffffff1667ffffffffffffffff1681526020016002820160109054906101000a90046fffffffffffffffffffffffffffffffff166fffffffffffffffffffffffffffffffff166fffffffffffffffffffffffffffffffff1681526020016003820160009054906101000a900467ffffffffffffffff1667ffffffffffffffff1667ffffffffffffffff1681526020016003820160089054906101000a900473ffffffffffffffffffffffffffffffffffffffff1673ffffffffffffffffffffffffffffffffffffffff1673ffffffffffffffffffffffffffffffffffffffff16815260200160048201548152505090508273ffffffffffffffffffffffffffffffffffffffff168160c0015173ffffffffffffffffffffffffffffffffffffffff16146113b3576040517f08c379a00000000000000000000000000000000000000000000000000000000081526004016113aa90615645565b60405180910390fd5b6301e133806003540142106113fd576040517f08c379a00000000000000000000000000000000000000000000000000000000081526004016113f4906154a5565b60405180910390fd5b600460009054906101000a900473ffffffffffffffffffffffffffffffffffffffff1673ffffffffffffffffffffffffffffffffffffffff163373ffffffffffffffffffffffffffffffffffffffff161461148d576040517f08c379a000000000000000000000000000000000000000000000000000000000815260040161148490615705565b60405180910390fd5b6000600560008673ffffffffffffffffffffffffffffffffffffffff1673ffffffffffffffffffffffffffffffffffffffff16815260200190815260200160002090506114d8613fba565b60008260020154815481106114e957fe5b906000526020600020906005020160405180610100016040529081600082018054600181600116156101000203166002900480601f01602080910402602001604051908101604052809291908181526020018280546001816001161561010002031660029004801561159c5780601f106115715761010080835404028352916020019161159c565b820191906000526020600020905b81548152906001019060200180831161157f57829003601f168201915b50505050508152602001600182015481526020016002820160009054906101000a900467ffffffffffffffff1667ffffffffffffffff1667ffffffffffffffff1681526020016002820160089054906101000a900467ffffffffffffffff1667ffffffffffffffff1667ffffffffffffffff1681526020016002820160109054906101000a90046fffffffffffffffffffffffffffffffff166fffffffffffffffffffffffffffffffff166fffffffffffffffffffffffffffffffff1681526020016003820160009054906101000a900467ffffffffffffffff1667ffffffffffffffff1667ffffffffffffffff1681526020016003820160089054906101000a900473ffffffffffffffffffffffffffffffffffffffff1673ffffffffffffffffffffffffffffffffffffffff1673ffffffffffffffffffffffffffffffffffffffff16815260200160048201548152505090506116fb828261332c565b505050505050565b61170b61407a565b8181600001818152505043816020018181525050806007600085815260200190815260200160002060003373ffffffffffffffffffffffffffffffffffffffff1673ffffffffffffffffffffffffffffffffffffffff1681526020019081526020016000206000820151816000015560208201518160010155905050505050565b60056020528060005260406000206000915090508060000160009054906101000a900467ffffffffffffffff16908060000160089054906101000a900473ffffffffffffffffffffffffffffffffffffffff169080600001601c9054906101000a900460ff16908060010154908060020154905085565b8061180c613f60565b600560008373ffffffffffffffffffffffffffffffffffffffff1673ffffffffffffffffffffffffffffffffffffffff1681526020019081526020016000206040518060a00160405290816000820160009054906101000a900467ffffffffffffffff1667ffffffffffffffff1667ffffffffffffffff1681526020016000820160089054906101000a900473ffffffffffffffffffffffffffffffffffffffff1673ffffffffffffffffffffffffffffffffffffffff1673ffffffffffffffffffffffffffffffffffffffff16815260200160008201601c9054906101000a900460ff1660038111156118fc57fe5b600381111561190757fe5b81526020016001820154815260200160028201548152505090506001600381111561192e57fe5b8160400151600381111561193e57fe5b1461197e576040517f08c379a0000000000000000000000000000000000000000000000000000000008152600401611975906154e5565b60405180910390fd5b611986613fba565b600082608001518154811061199757fe5b906000526020600020906005020160405180610100016040529081600082018054600181600116156101000203166002900480601f016020809104026020016040519081016040528092919081815260200182805460018160011615610100020316600290048015611a4a5780601f10611a1f57610100808354040283529160200191611a4a565b820191906000526020600020905b815481529060010190602001808311611a2d57829003601f168201915b50505050508152602001600182015481526020016002820160009054906101000a900467ffffffffffffffff1667ffffffffffffffff1667ffffffffffffffff1681526020016002820160089054906101000a900467ffffffffffffffff1667ffffffffffffffff1667ffffffffffffffff1681526020016002820160109054906101000a90046fffffffffffffffffffffffffffffffff166fffffffffffffffffffffffffffffffff166fffffffffffffffffffffffffffffffff1681526020016003820160009054906101000a900467ffffffffffffffff1667ffffffffffffffff1667ffffffffffffffff1681526020016003820160089054906101000a900473ffffffffffffffffffffffffffffffffffffffff1673ffffffffffffffffffffffffffffffffffffffff1673ffffffffffffffffffffffffffffffffffffffff16815260200160048201548152505090508273ffffffffffffffffffffffffffffffffffffffff168160c0015173ffffffffffffffffffffffffffffffffffffffff1614611c11576040517f08c379a0000000000000000000000000000000000000000000000000000000008152600401611c0890615645565b60405180910390fd5b6000600560008673ffffffffffffffffffffffffffffffffffffffff1673ffffffffffffffffffffffffffffffffffffffff1681526020019081526020016000209050611c5c613fba565b6000826002015481548110611c6d57fe5b906000526020600020906005020160405180610100016040529081600082018054600181600116156101000203166002900480601f016020809104026020016040519081016040528092919081815260200182805460018160011615610100020316600290048015611d205780601f10611cf557610100808354040283529160200191611d20565b820191906000526020600020905b815481529060010190602001808311611d0357829003601f168201915b50505050508152602001600182015481526020016002820160009054906101000a900467ffffffffffffffff1667ffffffffffffffff1667ffffffffffffffff1681526020016002820160089054906101000a900467ffffffffffffffff1667ffffffffffffffff1667ffffffffffffffff1681526020016002820160109054906101000a90046fffffffffffffffffffffffffffffffff166fffffffffffffffffffffffffffffffff166fffffffffffffffffffffffffffffffff1681526020016003820160009054906101000a900467ffffffffffffffff1667ffffffffffffffff1667ffffffffffffffff1681526020016003820160089054906101000a900473ffffffffffffffffffffffffffffffffffffffff1673ffffffffffffffffffffffffffffffffffffffff1673ffffffffffffffffffffffffffffffffffffffff16815260200160048201548152505090503373ffffffffffffffffffffffffffffffffffffffff168260000160089054906101000a900473ffffffffffffffffffffffffffffffffffffffff1673ffffffffffffffffffffffffffffffffffffffff1614611f07576040517f08c379a0000000000000000000000000000000000000000000000000000000008152600401611efe906155c5565b60405180910390fd5b611f11828261332c565b505050505050565b60008181548110611f2657fe5b9060005260206000209060050201600091509050806000018054600181600116156101000203166002900480601f016020809104026020016040519081016040528092919081815260200182805460018160011615610100020316600290048015611fd25780601f10611fa757610100808354040283529160200191611fd2565b820191906000526020600020905b815481529060010190602001808311611fb557829003601f168201915b5050505050908060010154908060020160009054906101000a900467ffffffffffffffff16908060020160089054906101000a900467ffffffffffffffff16908060020160109054906101000a90046fffffffffffffffffffffffffffffffff16908060030160009054906101000a900467ffffffffffffffff16908060030160089054906101000a900473ffffffffffffffffffffffffffffffffffffffff16908060040154905088565b600460009054906101000a900473ffffffffffffffffffffffffffffffffffffffff1681565b816120ad613f60565b600560008373ffffffffffffffffffffffffffffffffffffffff1673ffffffffffffffffffffffffffffffffffffffff1681526020019081526020016000206040518060a00160405290816000820160009054906101000a900467ffffffffffffffff1667ffffffffffffffff1667ffffffffffffffff1681526020016000820160089054906101000a900473ffffffffffffffffffffffffffffffffffffffff1673ffffffffffffffffffffffffffffffffffffffff1673ffffffffffffffffffffffffffffffffffffffff16815260200160008201601c9054906101000a900460ff16600381111561219d57fe5b60038111156121a857fe5b8152602001600182015481526020016002820154815250509050600160038111156121cf57fe5b816040015160038111156121df57fe5b1461221f576040517f08c379a0000000000000000000000000000000000000000000000000000000008152600401612216906154e5565b60405180910390fd5b612227613fba565b600082608001518154811061223857fe5b906000526020600020906005020160405180610100016040529081600082018054600181600116156101000203166002900480601f0160208091040260200160405190810160405280929190818152602001828054600181600116156101000203166002900480156122eb5780601f106122c0576101008083540402835291602001916122eb565b820191906000526020600020905b8154815290600101906020018083116122ce57829003601f168201915b50505050508152602001600182015481526020016002820160009054906101000a900467ffffffffffffffff1667ffffffffffffffff1667ffffffffffffffff1681526020016002820160089054906101000a900467ffffffffffffffff1667ffffffffffffffff1667ffffffffffffffff1681526020016002820160109054906101000a90046fffffffffffffffffffffffffffffffff166fffffffffffffffffffffffffffffffff166fffffffffffffffffffffffffffffffff1681526020016003820160009054906101000a900467ffffffffffffffff1667ffffffffffffffff1667ffffffffffffffff1681526020016003820160089054906101000a900473ffffffffffffffffffffffffffffffffffffffff1673ffffffffffffffffffffffffffffffffffffffff1673ffffffffffffffffffffffffffffffffffffffff16815260200160048201548152505090508273ffffffffffffffffffffffffffffffffffffffff168160c0015173ffffffffffffffffffffffffffffffffffffffff16146124b2576040517f08c379a00000000000000000000000000000000000000000000000000000000081526004016124a990615645565b60405180910390fd5b6000600560008773ffffffffffffffffffffffffffffffffffffffff1673ffffffffffffffffffffffffffffffffffffffff16815260200190815260200160002090503373ffffffffffffffffffffffffffffffffffffffff168160000160089054906101000a900473ffffffffffffffffffffffffffffffffffffffff1673ffffffffffffffffffffffffffffffffffffffff1614612587576040517f08c379a000000000000000000000000000000000000000000000000000000000815260040161257e906155c5565b60405180910390fd5b600073ffffffffffffffffffffffffffffffffffffffff168573ffffffffffffffffffffffffffffffffffffffff1614156125f7576040517f08c379a00000000000000000000000000000000000000000000000000000000081526004016125ee90615685565b60405180910390fd5b848160000160086101000a81548173ffffffffffffffffffffffffffffffffffffffff021916908373ffffffffffffffffffffffffffffffffffffffff160217905550505050505050565b60008080549050905090565b60606040518060400160405280601c81526020017f19457468657265756d205369676e6564204d6573736167653a0a333200000000815250905060008a8a8a8a89336040516020016126a596959493929190615190565b604051602081830303815290604052805190602001209050600082826040516020016126d2929190615151565b60405160208183030381529060405280519060200120905060006001828888886040516000815260200160405260405161270f94939291906152b8565b6020604051602081039080840390855afa158015612731573d6000803e3d6000fd5b5050506020604051035190508073ffffffffffffffffffffffffffffffffffffffff168973ffffffffffffffffffffffffffffffffffffffff16146127ab576040517f08c379a00000000000000000000000000000000000000000000000000000000081526004016127a2906156e5565b60405180910390fd5b6127fe8d8d8080601f016020809104026020016040519081016040528093929190818152602001838380828437600081840152601f19601f820116905080830192505050505050508c8c8c33348e6133ab565b50505050505050505050505050565b6000600560008373ffffffffffffffffffffffffffffffffffffffff1673ffffffffffffffffffffffffffffffffffffffff168152602001908152602001600020905060038081111561285c57fe5b81600001601c9054906101000a900460ff16600381111561287957fe5b146128b9576040517f08c379a00000000000000000000000000000000000000000000000000000000081526004016128b090615525565b60405180910390fd5b3373ffffffffffffffffffffffffffffffffffffffff168160000160089054906101000a900473ffffffffffffffffffffffffffffffffffffffff1673ffffffffffffffffffffffffffffffffffffffff161461294b576040517f08c379a000000000000000000000000000000000000000000000000000000000815260040161294290615625565b60405180910390fd5b8060000160009054906101000a900467ffffffffffffffff1667ffffffffffffffff1642116129af576040517f08c379a00000000000000000000000000000000000000000000000000000000081526004016129a690615565565b60405180910390fd5b600081600101549050600560008473ffffffffffffffffffffffffffffffffffffffff1673ffffffffffffffffffffffffffffffffffffffff168152602001908152602001600020600080820160006101000a81549067ffffffffffffffff02191690556000820160086101000a81549073ffffffffffffffffffffffffffffffffffffffff021916905560008201601c6101000a81549060ff02191690556001820160009055600282016000905550503373ffffffffffffffffffffffffffffffffffffffff166108fc829081150290604051600060405180830381858888f19350505050158015612aa6573d6000803e3d6000fd5b50505050565b60035481565b6000844090506000600102811415612b8e57600260009054906101000a900473ffffffffffffffffffffffffffffffffffffffff1673ffffffffffffffffffffffffffffffffffffffff1663e877b873866040518263ffffffff167c0100000000000000000000000000000000000000000000000000000000028152600401612b3b9190615725565b60206040518083038186803b158015612b5357600080fd5b505afa158015612b67573d6000803e3d6000fd5b505050506040513d601f19601f82011682018060405250612b8b9190810190614501565b90505b6000600102811415612bd5576040517f08c379a0000000000000000000000000000000000000000000000000000000008152600401612bcc90615585565b60405180910390fd5b85811415612c18576040517f08c379a0000000000000000000000000000000000000000000000000000000008152600401612c0f90615665565b60405180910390fd5b6000600560008973ffffffffffffffffffffffffffffffffffffffff1673ffffffffffffffffffffffffffffffffffffffff168152602001908152602001600020905060006007600088815260200190815260200160002060003373ffffffffffffffffffffffffffffffffffffffff1673ffffffffffffffffffffffffffffffffffffffff16815260200190815260200160002090506002816001015401431015612cf9576040517f08c379a0000000000000000000000000000000000000000000000000000000008152600401612cf0906154c5565b60405180910390fd5b8873ffffffffffffffffffffffffffffffffffffffff1660018989600154604051602001612d29939291906150fb565b6040516020818303038152906040528051906020012088888860405160008152602001604052604051612d5f94939291906152b8565b6020604051602081039080840390855afa158015612d81573d6000803e3d6000fd5b5050506020604051035173ffffffffffffffffffffffffffffffffffffffff1614612de1576040517f08c379a0000000000000000000000000000000000000000000000000000000008152600401612dd8906155e5565b60405180910390fd5b80600001548833888888604051602001612dff95949392919061509c565b6040516020818303038152906040528051906020012014612e55576040517f08c379a0000000000000000000000000000000000000000000000000000000008152600401612e4c906156a5565b60405180910390fd5b60026003811115612e6257fe5b82600001601c9054906101000a900460ff166003811115612e7f57fe5b1415612ec0576040517f08c379a0000000000000000000000000000000000000000000000000000000008152600401612eb7906156c5565b60405180910390fd5b7f99cf870e2c7ee878455cc590c43877ba030304a8a5dd703bcfbd5c4822009f7889604051612eef9190615259565b60405180910390a1600080905060016003811115612f0957fe5b83600001601c9054906101000a900460ff166003811115612f2657fe5b1415612fda578973ffffffffffffffffffffffffffffffffffffffff166000846002015481548110612f5457fe5b906000526020600020906005020160030160089054906101000a900473ffffffffffffffffffffffffffffffffffffffff1673ffffffffffffffffffffffffffffffffffffffff1614612fa357fe5b6000836002015481548110612fb457fe5b9060005260206000209060050201600101549050612fd583600201546139b9565b613018565b826001015490506000836001018190555060008360000160006101000a81548167ffffffffffffffff021916908367ffffffffffffffff1602179055505b600283600001601c6101000a81548160ff0219169083600381111561303957fe5b02179055506007600089815260200190815260200160002060003373ffffffffffffffffffffffffffffffffffffffff1673ffffffffffffffffffffffffffffffffffffffff168152602001908152602001600020600080820160009055600182016000905550506000600282816130ad57fe5b0490503373ffffffffffffffffffffffffffffffffffffffff166108fc829081150290604051600060405180830381858888f193505050501580156130f6573d6000803e3d6000fd5b50600073ffffffffffffffffffffffffffffffffffffffff166108fc8284039081150290604051600060405180830381858888f19350505050158015613140573d6000803e3d6000fd5b505050505050505050505050565b60066020528060005260406000206000915090508060000160009054906101000a900460ff16908060000160019054906101000a900473ffffffffffffffffffffffffffffffffffffffff16905082565b6131f285858080601f016020809104026020016040519081016040528093929190818152602001838380828437600081840152601f19601f820116905080830192505050505050508484333334876133ab565b5050505050565b600260009054906101000a900473ffffffffffffffffffffffffffffffffffffffff1681565b650b2fd2558df581565b6301e1338060035401421015613285576802b5e3af16b18800008210613284576040517f08c379a000000000000000000000000000000000000000000000000000000000815260040161327b90615605565b60405180910390fd5b5b6301e133808167ffffffffffffffff1611156132d6576040517f08c379a00000000000000000000000000000000000000000000000000000000081526004016132cd90615465565b60405180910390fd5b5050565b600081602001518260400151836060015184608001518560c00151866000015160405160200161330f969594939291906151ed565b604051602081830303815290604052805190602001209050919050565b806040015167ffffffffffffffff1642018260000160006101000a81548167ffffffffffffffff021916908367ffffffffffffffff16021790555080602001518260010181905550600382600001601c6101000a81548160ff0219169083600381111561339557fe5b02179055506133a782600201546139b9565b5050565b662386f26fc100008210156133f5576040517f08c379a00000000000000000000000000000000000000000000000000000000081526004016133ec906155a5565b60405180910390fd5b6133ff8286613229565b6000878051906020012090506006600082815260200190815260200160002060000160009054906101000a900460ff161580156134a157506000600381111561344457fe5b600560008773ffffffffffffffffffffffffffffffffffffffff1673ffffffffffffffffffffffffffffffffffffffff168152602001908152602001600020600001601c9054906101000a900460ff16600381111561349f57fe5b145b6134e0576040517f08c379a00000000000000000000000000000000000000000000000000000000081526004016134d790615545565b60405180910390fd5b6001600560008773ffffffffffffffffffffffffffffffffffffffff1673ffffffffffffffffffffffffffffffffffffffff168152602001908152602001600020600001601c6101000a81548160ff0219169083600381111561353f57fe5b0217905550600080549050600560008773ffffffffffffffffffffffffffffffffffffffff1673ffffffffffffffffffffffffffffffffffffffff1681526020019081526020016000206002018190555083600560008773ffffffffffffffffffffffffffffffffffffffff1673ffffffffffffffffffffffffffffffffffffffff16815260200190815260200160002060000160086101000a81548173ffffffffffffffffffffffffffffffffffffffff021916908373ffffffffffffffffffffffffffffffffffffffff160217905550613619613fba565b8881600001819052508767ffffffffffffffff1681608001906fffffffffffffffffffffffffffffffff1690816fffffffffffffffffffffffffffffffff1681525050858160c0019073ffffffffffffffffffffffffffffffffffffffff16908173ffffffffffffffffffffffffffffffffffffffff168152505083816020018181525050610e108767ffffffffffffffff16116136b957610e106136bb565b865b816040019067ffffffffffffffff16908167ffffffffffffffff168152505042816060019067ffffffffffffffff16908167ffffffffffffffff1681525050828160a0019067ffffffffffffffff16908167ffffffffffffffff1681525050613723816132da565b8160e0018181525050600081908060018154018082558091505090600182039060005260206000209060050201600090919290919091506000820151816000019080519060200190613776929190614097565b506020820151816001015560408201518160020160006101000a81548167ffffffffffffffff021916908367ffffffffffffffff16021790555060608201518160020160086101000a81548167ffffffffffffffff021916908367ffffffffffffffff16021790555060808201518160020160106101000a8154816fffffffffffffffffffffffffffffffff02191690836fffffffffffffffffffffffffffffffff16021790555060a08201518160030160006101000a81548167ffffffffffffffff021916908367ffffffffffffffff16021790555060c08201518160030160086101000a81548173ffffffffffffffffffffffffffffffffffffffff021916908373ffffffffffffffffffffffffffffffffffffffff16021790555060e082015181600401555050506138a9614048565b600181600001901515908115158152505086816020019073ffffffffffffffffffffffffffffffffffffffff16908173ffffffffffffffffffffffffffffffffffffffff1681525050806006600085815260200190815260200160002060008201518160000160006101000a81548160ff02191690831515021790555060208201518160000160016101000a81548173ffffffffffffffffffffffffffffffffffffffff021916908373ffffffffffffffffffffffffffffffffffffffff1602179055509050507f1ca262a77ac17942055c2ff991000041865fc4fe608b39c1f3c10731996565108a8a89886040516139a59493929190615318565b60405180910390a150505050505050505050565b7f78267f80e41fea0cce6d47208671d5c1d990b9fdaefd72a3989de95cde34bc62600082815481106139e757fe5b906000526020600020906005020160000160008381548110613a0557fe5b906000526020600020906005020160030160089054906101000a900473ffffffffffffffffffffffffffffffffffffffff16604051613a459291906153e9565b60405180910390a160066000808381548110613a5d57fe5b9060005260206000209060050201600001604051613a7b9190615179565b60405180910390208152602001908152602001600020600080820160006101000a81549060ff02191690556000820160016101000a81549073ffffffffffffffffffffffffffffffffffffffff0219169055505060008080549050905060008111613ae257fe5b600060056000808581548110613af457fe5b906000526020600020906005020160030160089054906101000a900473ffffffffffffffffffffffffffffffffffffffff1673ffffffffffffffffffffffffffffffffffffffff1673ffffffffffffffffffffffffffffffffffffffff16815260200190815260200160002060020181905550613b6f613fba565b60006001830381548110613b7f57fe5b906000526020600020906005020160405180610100016040529081600082018054600181600116156101000203166002900480601f016020809104026020016040519081016040528092919081815260200182805460018160011615610100020316600290048015613c325780601f10613c0757610100808354040283529160200191613c32565b820191906000526020600020905b815481529060010190602001808311613c1557829003601f168201915b50505050508152602001600182015481526020016002820160009054906101000a900467ffffffffffffffff1667ffffffffffffffff1667ffffffffffffffff1681526020016002820160089054906101000a900467ffffffffffffffff1667ffffffffffffffff1667ffffffffffffffff1681526020016002820160109054906101000a90046fffffffffffffffffffffffffffffffff166fffffffffffffffffffffffffffffffff166fffffffffffffffffffffffffffffffff1681526020016003820160009054906101000a900467ffffffffffffffff1667ffffffffffffffff1667ffffffffffffffff1681526020016003820160089054906101000a900473ffffffffffffffffffffffffffffffffffffffff1673ffffffffffffffffffffffffffffffffffffffff1673ffffffffffffffffffffffffffffffffffffffff16815260200160048201548152505090508060008481548110613d9557fe5b90600052602060002090600502016000820151816000019080519060200190613dbf929190614097565b506020820151816001015560408201518160020160006101000a81548167ffffffffffffffff021916908367ffffffffffffffff16021790555060608201518160020160086101000a81548167ffffffffffffffff021916908367ffffffffffffffff16021790555060808201518160020160106101000a8154816fffffffffffffffffffffffffffffffff02191690836fffffffffffffffffffffffffffffffff16021790555060a08201518160030160006101000a81548167ffffffffffffffff021916908367ffffffffffffffff16021790555060c08201518160030160086101000a81548173ffffffffffffffffffffffffffffffffffffffff021916908373ffffffffffffffffffffffffffffffffffffffff16021790555060e082015181600401559050506000600560008360c0015173ffffffffffffffffffffffffffffffffffffffff1673ffffffffffffffffffffffffffffffffffffffff16815260200190815260200160002090508367ffffffffffffffff1681600201819055506000805480919060019003613f599190614117565b5050505050565b6040518060a00160405280600067ffffffffffffffff168152602001600073ffffffffffffffffffffffffffffffffffffffff16815260200160006003811115613fa657fe5b815260200160008152602001600081525090565b6040518061010001604052806060815260200160008152602001600067ffffffffffffffff168152602001600067ffffffffffffffff16815260200160006fffffffffffffffffffffffffffffffff168152602001600067ffffffffffffffff168152602001600073ffffffffffffffffffffffffffffffffffffffff168152602001600080191681525090565b6040518060400160405280600015158152602001600073ffffffffffffffffffffffffffffffffffffffff1681525090565b604051806040016040528060008019168152602001600081525090565b828054600181600116156101000203166002900490600052602060002090601f016020900481019282601f106140d857805160ff1916838001178555614106565b82800160010185558215614106579182015b828111156141055782518255916020019190600101906140ea565b5b5090506141139190614149565b5090565b81548183558181111561414457600502816005028360005260206000209182019101614143919061416e565b5b505050565b61416b91905b8082111561416757600081600090555060010161414f565b5090565b90565b61424591905b80821115614241576000808201600061418d9190614248565b60018201600090556002820160006101000a81549067ffffffffffffffff02191690556002820160086101000a81549067ffffffffffffffff02191690556002820160106101000a8154906fffffffffffffffffffffffffffffffff02191690556003820160006101000a81549067ffffffffffffffff02191690556003820160086101000a81549073ffffffffffffffffffffffffffffffffffffffff0219169055600482016000905550600501614174565b5090565b90565b50805460018160011615610100020316600290046000825580601f1061426e575061428d565b601f01602090049060005260206000209081019061428c9190614149565b5b50565b60008135905061429f81615a9e565b92915050565b6000813590506142b481615ab5565b92915050565b6000815190506142c981615ab5565b92915050565b60008083601f8401126142e157600080fd5b8235905067ffffffffffffffff8111156142fa57600080fd5b60208301915083600182028301111561431257600080fd5b9250929050565b60008135905061432881615acc565b92915050565b60008135905061433d81615ae3565b92915050565b60008135905061435281615afa565b92915050565b60006020828403121561436a57600080fd5b600061437884828501614290565b91505092915050565b6000806040838503121561439457600080fd5b60006143a285828601614290565b92505060206143b385828601614290565b9150509250929050565b60008060008060008060c087890312156143d657600080fd5b60006143e489828a01614290565b96505060206143f589828a016142a5565b955050604061440689828a01614319565b945050606061441789828a01614343565b935050608061442889828a016142a5565b92505060a061443989828a016142a5565b9150509295509295509295565b60008060008060008060a0878903121561445f57600080fd5b600061446d89828a01614290565b965050602087013567ffffffffffffffff81111561448a57600080fd5b61449689828a016142cf565b955095505060406144a989828a0161432e565b93505060606144ba89828a0161432e565b92505060806144cb89828a0161432e565b9150509295509295509295565b6000602082840312156144ea57600080fd5b60006144f8848285016142a5565b91505092915050565b60006020828403121561451357600080fd5b6000614521848285016142ba565b91505092915050565b60008060008060008060008060006101008a8c03121561454957600080fd5b60008a013567ffffffffffffffff81111561456357600080fd5b61456f8c828d016142cf565b995099505060206145828c828d0161432e565b97505060406145938c828d0161432e565b96505060606145a48c828d01614290565b95505060806145b58c828d0161432e565b94505060a06145c68c828d01614343565b93505060c06145d78c828d016142a5565b92505060e06145e88c828d016142a5565b9150509295985092959850929598565b60008060008060006080868803121561461057600080fd5b600086013567ffffffffffffffff81111561462a57600080fd5b614636888289016142cf565b955095505060206146498882890161432e565b935050604061465a8882890161432e565b925050606061466b8882890161432e565b9150509295509295909350565b60006020828403121561468a57600080fd5b600061469884828501614319565b91505092915050565b600080604083850312156146b457600080fd5b60006146c285828601614319565b92505060206146d3858286016142a5565b9150509250929050565b6146e6816158b9565b82525050565b6146fd6146f882615817565b61598b565b82525050565b61470c81615805565b82525050565b61472361471e82615805565b615979565b82525050565b61473281615829565b82525050565b61474181615835565b82525050565b61475861475382615835565b61599d565b82525050565b600061476a83856157de565b9350614777838584615937565b82840190509392505050565b600061478e826157bd565b61479881856157de565b93506147a8818560208601615946565b80840191505092915050565b6000815460018116600081146147d157600181146147f65761483a565b607f60028304166147e281876157de565b955060ff198316865280860193505061483a565b6002820461480481876157de565b955061480f85615793565b60005b8281101561483157815481890152600182019150602081019050614812565b82880195505050505b505092915050565b61484b816158cb565b82525050565b61485a816158ef565b82525050565b600061486c83856157fa565b9350614879838584615937565b82840190509392505050565b6000614890826157d3565b61489a81856157e9565b93506148aa818560208601615946565b6148b3816159f9565b840191505092915050565b60006148c9826157c8565b6148d381856157e9565b93506148e3818560208601615946565b6148ec816159f9565b840191505092915050565b6000614902826157c8565b61490c81856157fa565b935061491c818560208601615946565b80840191505092915050565b600081546001811660008114614945576001811461496b576149af565b607f600283041661495681876157e9565b955060ff1983168652602086019350506149af565b6002820461497981876157e9565b9550614984856157a8565b60005b828110156149a657815481890152600182019150602081019050614987565b80880195505050505b505092915050565b60006149c46018836157e9565b91507f6578636565646564206d6178696d756d2074696d656f757400000000000000006000830152602082019050919050565b6000614a046012836157e9565b91507f6f6e6c7920666f7220746865206f776e657200000000000000000000000000006000830152602082019050919050565b6000614a446010836157e9565b91507f6f6e6c7920696e203173742079656172000000000000000000000000000000006000830152602082019050919050565b6000614a84601a836157e9565b91507f72657665616c436f6e76696374207374696c6c206c6f636b65640000000000006000830152602082019050919050565b6000614ac4601c836157e9565b91507f61646472657373206973206e6f7420616e20696e332d7369676e6572000000006000830152602082019050919050565b6000614b046015836157e9565b91507f75726c20697320616c726561647920696e2075736500000000000000000000006000830152602082019050919050565b6000614b446018836157e9565b91507f6e6f7420696e2074686520636f727265637420737461746500000000000000006000830152602082019050919050565b6000614b846038836157e9565b91507f61206e6f64652077697468207468652073616d652075726c206f72207369676e60008301527f657220697320616c7265616479207265676973746572656400000000000000006020830152604082019050919050565b6000614bea6014836157e9565b91507f6465706f736974207374696c6c206c6f636b65640000000000000000000000006000830152602082019050919050565b6000614c2a600f836157e9565b91507f626c6f636b206e6f7420666f756e6400000000000000000000000000000000006000830152602082019050919050565b6000614c6a6012836157e9565b91507f6e6f7420656e6f756768206465706f73697400000000000000000000000000006000830152602082019050919050565b6000614caa601b836157e9565b91507f6f6e6c7920666f722074686520696e332d6e6f6465206f776e657200000000006000830152602082019050919050565b6000614cea6032836157e9565b91507f74686520626c6f636b20776173206e6f74207369676e6564206279207468652060008301527f7369676e6572206f6620746865206e6f646500000000000000000000000000006020830152604082019050919050565b6000614d506017836157e9565b91507f4c696d6974206f662035302045544820726561636865640000000000000000006000830152602082019050919050565b6000614d90601c836157e9565b91507f6f6e6c79206f776e65722063616e20636c61696d206465706f736974000000006000830152602082019050919050565b6000614dd06016836157e9565b91507f6e6f742074686520636f7272656374207369676e6572000000000000000000006000830152602082019050919050565b6000614e106026836157e9565b91507f796f752074727920746f20636f6e766963742077697468206120636f7272656360008301527f74206861736800000000000000000000000000000000000000000000000000006020830152604082019050919050565b6000614e766016836157e9565b91507f307830206164647265737320697320696e76616c6964000000000000000000006000830152602082019050919050565b6000614eb66012836157e9565b91507f77726f6e6720636f6e76696374206861736800000000000000000000000000006000830152602082019050919050565b6000614ef66016836157e9565b91507f6e6f646520616c726561647920636f6e766963746564000000000000000000006000830152602082019050919050565b6000614f366030836157e9565b91507f6e6f742074686520636f7272656374207369676e6174757265206f662074686560008301527f207369676e65722070726f7669646564000000000000000000000000000000006020830152604082019050919050565b6000614f9c602d836157e9565b91507f6f6e6c7920756e72656769737465724b657920697320616c6c6f77656420746f60008301527f2072656d6f7665206e6f646573000000000000000000000000000000000000006020830152604082019050919050565b614ffe81615852565b82525050565b61501561501082615852565b6159a7565b82525050565b6150248161588e565b82525050565b61503b6150368261588e565b6159cb565b82525050565b61504a81615925565b82525050565b61505981615898565b82525050565b61507061506b82615898565b6159d5565b82525050565b61507f816158ac565b82525050565b615096615091826158ac565b6159e7565b82525050565b60006150a88288614747565b6020820191506150b882876146ec565b6014820191506150c88286615085565b6001820191506150d88285614747565b6020820191506150e88284614747565b6020820191508190509695505050505050565b60006151078286614747565b602082019150615117828561502a565b6020820191506151278284614747565b602082019150819050949350505050565b600061514582848661475e565b91508190509392505050565b600061515d8285614783565b91506151698284614747565b6020820191508190509392505050565b600061518582846147b4565b915081905092915050565b600061519d82888a614860565b91506151a9828761505f565b6008820191506151b9828661505f565b6008820191506151c9828561505f565b6008820191506151d982846146ec565b601482019150819050979650505050505050565b60006151f9828961502a565b602082019150615209828861505f565b600882019150615219828761505f565b6008820191506152298286615004565b6010820191506152398285614712565b60148201915061524982846148f7565b9150819050979650505050505050565b600060208201905061526e6000830184614703565b92915050565b60006040820190506152896000830185614729565b6152966020830184614703565b9392505050565b60006020820190506152b26000830184614738565b92915050565b60006080820190506152cd6000830187614738565b6152da6020830186615076565b6152e76040830185614738565b6152f46060830184614738565b95945050505050565b60006020820190506153126000830184614842565b92915050565b600060808201905081810360008301526153328187614885565b90506153416020830186615041565b61534e6040830185614703565b61535b606083018461501b565b95945050505050565b600061010082019050818103600083015261537f818b6148be565b905061538e602083018a61501b565b61539b6040830189615050565b6153a86060830188615050565b6153b56080830187614ff5565b6153c260a0830186615050565b6153cf60c0830185614703565b6153dc60e0830184614738565b9998505050505050505050565b600060408201905081810360008301526154038185614928565b90506154126020830184614703565b9392505050565b600060808201905081810360008301526154338187614928565b90506154426020830186615041565b61544f60408301856146dd565b61545c606083018461501b565b95945050505050565b6000602082019050818103600083015261547e816149b7565b9050919050565b6000602082019050818103600083015261549e816149f7565b9050919050565b600060208201905081810360008301526154be81614a37565b9050919050565b600060208201905081810360008301526154de81614a77565b9050919050565b600060208201905081810360008301526154fe81614ab7565b9050919050565b6000602082019050818103600083015261551e81614af7565b9050919050565b6000602082019050818103600083015261553e81614b37565b9050919050565b6000602082019050818103600083015261555e81614b77565b9050919050565b6000602082019050818103600083015261557e81614bdd565b9050919050565b6000602082019050818103600083015261559e81614c1d565b9050919050565b600060208201905081810360008301526155be81614c5d565b9050919050565b600060208201905081810360008301526155de81614c9d565b9050919050565b600060208201905081810360008301526155fe81614cdd565b9050919050565b6000602082019050818103600083015261561e81614d43565b9050919050565b6000602082019050818103600083015261563e81614d83565b9050919050565b6000602082019050818103600083015261565e81614dc3565b9050919050565b6000602082019050818103600083015261567e81614e03565b9050919050565b6000602082019050818103600083015261569e81614e69565b9050919050565b600060208201905081810360008301526156be81614ea9565b9050919050565b600060208201905081810360008301526156de81614ee9565b9050919050565b600060208201905081810360008301526156fe81614f29565b9050919050565b6000602082019050818103600083015261571e81614f8f565b9050919050565b600060208201905061573a600083018461501b565b92915050565b600060a0820190506157556000830188615050565b6157626020830187614703565b61576f6040830186614851565b61577c606083018561501b565b615789608083018461501b565b9695505050505050565b60008190508160005260206000209050919050565b60008190508160005260206000209050919050565b600081519050919050565b600081519050919050565b600081519050919050565b600081905092915050565b600082825260208201905092915050565b600081905092915050565b60006158108261586e565b9050919050565b60006158228261586e565b9050919050565b60008115159050919050565b6000819050919050565b600081905061584d82615a91565b919050565b60006fffffffffffffffffffffffffffffffff82169050919050565b600073ffffffffffffffffffffffffffffffffffffffff82169050919050565b6000819050919050565b600067ffffffffffffffff82169050919050565b600060ff82169050919050565b60006158c482615901565b9050919050565b60006158d6826158dd565b9050919050565b60006158e88261586e565b9050919050565b60006158fa8261583f565b9050919050565b600061590c82615913565b9050919050565b600061591e8261586e565b9050919050565b600061593082615898565b9050919050565b82818337600083830152505050565b60005b83811015615964578082015181840152602081019050615949565b83811115615973576000848401525b50505050565b6000615984826159b9565b9050919050565b6000615996826159b9565b9050919050565b6000819050919050565b60006159b282615a0a565b9050919050565b60006159c482615a78565b9050919050565b6000819050919050565b60006159e082615a27565b9050919050565b60006159f282615a4c565b9050919050565b6000601f19601f8301169050919050565b600070010000000000000000000000000000000082029050919050565b6000780100000000000000000000000000000000000000000000000082029050919050565b60007f010000000000000000000000000000000000000000000000000000000000000082029050919050565b60006c0100000000000000000000000082029050919050565b60048110615a9b57fe5b50565b615aa781615805565b8114615ab257600080fd5b50565b615abe81615835565b8114615ac957600080fd5b50565b615ad58161588e565b8114615ae057600080fd5b50565b615aec81615898565b8114615af757600080fd5b50565b615b03816158ac565b8114615b0e57600080fd5b5056fea365627a7a72305820549a47335ec1f27d8f3b490f1e038085facb9c0ca0a166281148901ae40a45066c6578706572696d656e74616cf564736f6c634300050a0040",
  "source": "/***********************************************************\n* This file is part of the Slock.it IoT Layer.             *\n* The Slock.it IoT Layer contains:                         *\n*   - USN (Universal Sharing Network)                      *\n*   - INCUBED (Trustless INcentivized remote Node Network) *\n************************************************************\n* Copyright (C) 2016 - 2018 Slock.it GmbH                  *\n* All Rights Reserved.                                     *\n************************************************************\n* You may use, distribute and modify this code under the   *\n* terms of the license contract you have concluded with    *\n* Slock.it GmbH.                                           *\n* For information about liability, maintenance etc. also   *\n* refer to the contract concluded with Slock.it GmbH.      *\n************************************************************\n* For more information, please refer to https://slock.it   *\n* For questions, please contact info@slock.it              *\n***********************************************************/\n\npragma solidity 0.5.10;\npragma experimental ABIEncoderV2;\n\nimport \"./BlockhashRegistry.sol\";\n\n\n/// @title Registry for IN3-nodes\ncontract NodeRegistry {\n\n    /// node has been registered or updated its registry props or deposit\n    event LogNodeRegistered(string url, uint props, address signer, uint deposit);\n\n    /// a node was convicted\n    event LogNodeConvicted(address signer);\n\n    /// a Node is removed\n    event LogNodeRemoved(string url, address signer);\n\n    struct In3Node {\n        string url;                         /// the url of the node\n\n        uint deposit;                       /// stored deposit\n\n        uint64 timeout;                     /// timeout after which the owner is allowed to receive his stored deposit\n        uint64 registerTime;                /// timestamp when the node was registered\n        uint128 props;                       /// a list of properties-flags representing the capabilities of the node\n\n        uint64 weight;                      ///  the flag for (future) incentivisation\n        address signer;                     /// the signer for requests\n\n        bytes32 proofHash;                  /// keccak(deposit,timeout,registerTime,props,signer,url)\n    }\n\n     /// information of a (future) convict (used to prevent frontrunning)\n    struct ConvictInformation {\n        bytes32 convictHash;                /// keccak256(wrong blockhash, msg.sender, v, r, s)\n        uint blockNumberConvict;            /// block number when convict had been called\n    }\n\n    /// information of a in3-node owner\n    struct SignerInformation {\n        uint64 lockedTime;                  /// timestamp until the deposit of an in3-node can not be withdrawn after the node was removed\n        address owner;                      /// the owner of the node\n\n        Stages stage;                       /// state of the address\n\n        uint depositAmount;                 /// amount of deposit to be locked, used only after a node had been removed\n\n        uint index;                         /// current index-position of the node in the node-array\n    }\n\n    /// information of an url\n    struct UrlInformation {\n        bool used;                          /// flag whether the url is currently used\n        address signer;                     /// address of the owner of the url\n    }\n\n    /// Different Stages a node can have\n    enum Stages {\n        NotInUse,                           /// node is not in use, so a new node with the same address can be registered\n        Active,                             /// node is active, so a new node with the same address cannot be registered\n        Convicted,                          /// node is convited, so he is inactive, but cannot be registered anymore\n        DepositNotWithdrawn                 /// node is not in use anymore, but still has some deposit stored within the contract\n    }\n\n    /// node list of incubed nodes\n    In3Node[] public nodes;\n\n    /// id used for signing in3-requests and in order to prevent cross-chain convicts\n    /// in case a fork happens there is the possibility that a node can be convicted on the other fork,\n    /// because they would use the very same registryId. Nevertheless we cannot change the registryId.\n    /// So in case of a fork a node should chose one of the forks and unregister his nodes on the others.\n    /// In this case it is also recommend to not sign requests until the node get his deposits from the forked contracts\n    bytes32 public registryId;\n\n    /// add your additional storage here. If you add information before this line you will break in3 nodelist\n\n    /// blockhash registry address\n    BlockhashRegistry public blockRegistry;\n\n    /// the timestamp of the deployment\n    uint public blockTimeStampDeployment;\n\n    /// admin-key to remove some server, only usable within the 1st year\n    address public unregisterKey;\n\n    /// mapping for information of the owner\n    mapping (address => SignerInformation) public signerIndex;\n\n    /// mapping for the information of the url\n    /// can be used to access the SignerInformation-struct\n    mapping (bytes32 => UrlInformation) public urlIndex;\n\n    /// mapping for convicts: blocknumber => address => convictInformation\n    mapping (uint => mapping(address => ConvictInformation)) internal convictMapping;\n\n    /// capping the max deposit timeout on 1 year\n    uint constant internal YEAR_DEFINITION = 1 days * 365;\n\n    /// limit for ether per node in the 1st year\n    uint constant internal MAX_ETHER_LIMIT = 50 ether;\n\n    /// version: major minor fork(000) date(yyyy/mm/dd)\n    uint constant public VERSION = 12300020190709;\n\n    modifier onlyActiveState(address _signer) {\n\n        SignerInformation memory si = signerIndex[_signer];\n        require(si.stage == Stages.Active, \"address is not an in3-signer\");\n\n        In3Node memory n = nodes[si.index];\n        require(n.signer == _signer, \"not the correct signer\");\n        _;\n    }\n\n    /// @notice constructor\n    /// @param _blockRegistry address of a BlockhashRegistry-contract\n    /// @dev cannot be deployed in a genesis block\n    constructor(BlockhashRegistry _blockRegistry) public {\n        blockRegistry = _blockRegistry;\n\n        // solium-disable-next-line security/no-block-members\n        blockTimeStampDeployment = block.timestamp;  // solhint-disable-line not-rely-on-time\n        registryId = keccak256(abi.encodePacked(address(this), blockhash(block.number-1)));\n        unregisterKey = msg.sender;\n    }\n\n    /// @notice commits a blocknumber and a hash\n    /// @notice must be called before revealConvict\n    /// @param _blockNumber the blocknumber of the wrong blockhash\n    /// @param _hash keccak256(wrong blockhash, msg.sender, v, r, s); used to prevent frontrunning.\n    /// @dev The v,r,s paramaters are from the signature of the wrong blockhash that the node provided\n    function convict(uint _blockNumber, bytes32 _hash) external {\n\n        ConvictInformation memory ci;\n        ci.convictHash = _hash;\n        ci.blockNumberConvict = block.number;\n\n        convictMapping[_blockNumber][msg.sender] = ci;\n    }\n\n    /// @notice register a new node with the sender as owner\n    /// @param _url the url of the node, has to be unique\n    /// @param _props properties of the node\n    /// @param _timeout timespan of how long the node of a deposit will be locked. Will be at least for 1h\n    /// @param _weight how many requests per second the node is able to handle\n    /// @dev will call the registerNodeInteral function\n    function registerNode(\n        string calldata _url,\n        uint64 _props,\n        uint64 _timeout,\n        uint64 _weight\n    )\n        external\n        payable\n    {\n        registerNodeInternal(\n            _url,\n            _props,\n            _timeout,\n            msg.sender,\n            msg.sender,\n            msg.value,\n            _weight\n        );\n    }\n\n    /// @notice register a new node as a owner using a different signer address\n    /// @param _url the url of the node, has to be unique\n    /// @param _props properties of the node\n    /// @param _timeout timespan of how long the node of a deposit will be locked. Will be at least for 1h\n    /// @param _signer the signer of the in3-node\n    /// @param _weight how many requests per second the node is able to handle\n    /// @param _v v of the signed message\n    /// @param _r r of the signed message\n    /// @param _s s of the signed message\n    /// @dev will call the registerNodeInteral function\n    /// @dev in order to prove that the owner has controll over the signer-address he has to sign a message\n    /// @dev which is calculated by the hash of the url, properties, timeout, weight and the owner\n    /// @dev will revert when a wrong signature has been provided\n    function registerNodeFor(\n        string calldata _url,\n        uint64 _props,\n        uint64 _timeout,\n        address _signer,\n        uint64 _weight,\n        uint8 _v,\n        bytes32 _r,\n        bytes32 _s\n    )\n        external\n        payable\n    {\n\n        bytes memory prefix = \"\\x19Ethereum Signed Message:\\n32\";\n        bytes32 tempHash = keccak256(\n            abi.encodePacked(\n                _url,\n                _props,\n                _timeout,\n                _weight,\n                msg.sender\n            )\n        );\n        bytes32 prefixedHash = keccak256(abi.encodePacked(prefix, tempHash));\n\n        address signer = ecrecover(\n            prefixedHash,\n            _v,\n            _r,\n            _s\n        );\n\n        require(_signer == signer, \"not the correct signature of the signer provided\");\n\n        registerNodeInternal(\n            _url,\n            _props,\n            _timeout,\n            _signer,\n            msg.sender,\n            msg.value,\n            _weight\n        );\n    }\n\n    /// @notice removes an in3-server from the registry\n    /// @param _signer the signer-address of the in3-node\n    /// @dev only callable by the unregisterKey-account\n    /// @dev only callable in the 1st year after deployment\n    function removeNodeFromRegistry(address _signer)\n        external\n        onlyActiveState(_signer)\n    {\n\n        // solium-disable-next-line security/no-block-members\n        require(block.timestamp < (blockTimeStampDeployment + YEAR_DEFINITION), \"only in 1st year\");// solhint-disable-line not-rely-on-time\n        require(msg.sender == unregisterKey, \"only unregisterKey is allowed to remove nodes\");\n\n        SignerInformation storage si = signerIndex[_signer];\n        In3Node memory n = nodes[si.index];\n\n        unregisterNodeInternal(si, n);\n\n    }\n\n    /// @notice returns the deposit after a node has been removed due to inactivity\n    /// @notice only callable after the timeout of the deposit is over\n    /// @param _signer the signer-address of a former in3-node\n    /// @dev reverts when not the owner of the former in3-node\n    /// @dev reverts when there is nothing to transfer\n    /// @dev reverts if the deposit is still locked\n    function returnDeposit(address _signer) external {\n\n        SignerInformation storage si = signerIndex[_signer];\n\n        require(si.stage == Stages.DepositNotWithdrawn, \"not in the correct state\");\n        require(si.owner == msg.sender, \"only owner can claim deposit\");\n\n        // solium-disable-next-line security/no-block-members\n        require(block.timestamp > si.lockedTime, \"deposit still locked\"); // solhint-disable-line not-rely-on-time\n\n        uint payout = si.depositAmount;\n        delete signerIndex[_signer];\n        msg.sender.transfer(payout);\n    }\n\n    /// @notice reveals the wrongly provided blockhash, so that the node-owner will lose its deposit\n    /// @param _signer the address that signed the wrong blockhash\n    /// @param _blockhash the wrongly provided blockhash\n    /// @param _blockNumber number of the wrongly provided blockhash\n    /// @param _v v of the signature\n    /// @param _r r of the signature\n    /// @param _s s of the signature\n    /// @dev reverts if a block with that number cannot be found in either the latest 256 blocks or the blockhash registry\n    /// @dev reverts when tryin to convict someone with a correct blockhash\n    /// @dev reverts when trying to reveal immediately after calling convict\n    /// @dev reverts when the _signer did not sign the block\n    /// @dev reverts when the wrong convict hash (see convict-function) is used\n    function revealConvict(\n        address _signer,\n        bytes32 _blockhash,\n        uint _blockNumber,\n        uint8 _v,\n        bytes32 _r,\n        bytes32 _s\n    )\n        external\n    {\n        // solium-disable-next-line security/no-block-members\n        bytes32 evmBlockhash = blockhash(_blockNumber);\n\n        if (evmBlockhash == 0x0) {\n            evmBlockhash = blockRegistry.blockhashMapping(_blockNumber);\n        }\n\n        require(evmBlockhash != 0x0, \"block not found\");\n\n        // if the blockhash is correct you cannot convict the node\n        require(evmBlockhash != _blockhash, \"you try to convict with a correct hash\");\n\n        SignerInformation storage si = signerIndex[_signer];\n        ConvictInformation storage ci = convictMapping[_blockNumber][msg.sender];\n\n        require(block.number >= ci.blockNumberConvict + 2, \"revealConvict still locked\");\n        require(\n            ecrecover(\n                keccak256(\n                    abi.encodePacked(\n                        _blockhash,\n                        _blockNumber,\n                        registryId\n                    )\n                ),\n                _v, _r, _s) == _signer,\n            \"the block was not signed by the signer of the node\");\n\n        require(\n            keccak256(\n                abi.encodePacked(\n                    _blockhash, msg.sender, _v, _r, _s\n                )\n            ) == ci.convictHash, \"wrong convict hash\");\n\n        require(si.stage != Stages.Convicted, \"node already convicted\");\n        emit LogNodeConvicted(_signer);\n\n        uint deposit = 0;\n        // the signer is still active\n        if (si.stage == Stages.Active) {\n            assert(nodes[si.index].signer == _signer);\n            deposit = nodes[si.index].deposit;\n            removeNode(si.index);\n        } else {\n            // the signer is not active anymore\n            deposit = si.depositAmount;\n            si.depositAmount = 0;\n            si.lockedTime = 0;\n        }\n\n        si.stage = Stages.Convicted;\n        delete convictMapping[_blockNumber][msg.sender];\n\n        // remove the deposit\n        uint payout = deposit / 2;\n        // send 50% to the caller of this function\n        msg.sender.transfer(payout);\n        // and burn the rest by sending it to the 0x0-address\n        // this is done in order to make it useless trying to convict your own node with a second account\n        // and this getting all the deposit back after signing a wrong hash.\n        address(0).transfer(deposit-payout);\n    }\n\n    /// @notice changes the ownership of an in3-node\n    /// @param _signer the signer-address of the in3-node, used as an identifier\n    /// @param _newOwner the new owner\n    /// @dev reverts when trying to change ownership of an inactive node\n    /// @dev reverts when trying to pass ownership to 0x0\n    /// @dev reverts when the sender is not the current owner\n    /// @dev reverts when inacitivity is claimed\n    function transferOwnership(address _signer, address _newOwner)\n        external\n        onlyActiveState(_signer)\n    {\n        SignerInformation storage si = signerIndex[_signer];\n        require(si.owner == msg.sender, \"only for the in3-node owner\");\n\n        require(_newOwner != address(0x0), \"0x0 address is invalid\");\n        si.owner = _newOwner;\n    }\n\n    /// @notice a node owner can unregister a node, removing it from the nodeList\n    /// @notice doing so will also lock his deposit for the timeout of the node\n    /// @param _signer the signer of the in3-node\n    /// @dev reverts when the provided address is not an in3-signer\n    /// @dev reverts when the node is already unregistering\n    /// @dev reverts when not called by the owner of the node\n    function unregisteringNode(address _signer)\n        external\n        onlyActiveState(_signer)\n    {\n\n        SignerInformation storage si = signerIndex[_signer];\n        In3Node memory n = nodes[si.index];\n        require(si.owner == msg.sender, \"only for the in3-node owner\");\n\n        unregisterNodeInternal(si, n);\n    }\n\n    /// @notice updates a node by adding the msg.value to the deposit and setting the props or timeout\n    /// @param _signer the signer-address of the in3-node, used as an identifier\n    /// @param _url the url, will be changed if different from the current one\n    /// @param _props the new properties, will be changed if different from the current onec\n    /// @param _timeout the new timeout of the node, cannot be decreased. Has to be at least 1h\n    /// @param _weight the amount of requests per second the node is able to handle\n    /// @dev reverts when the sender is not the owner of the node\n    /// @dev reverts when the signer does not own a node\n    /// @dev reverts when trying to increase the timeout above 10 years\n    /// @dev reverts when trying to change the url to an already existing one\n    function updateNode(\n        address _signer,\n        string calldata _url,\n        uint64 _props,\n        uint64 _timeout,\n        uint64 _weight\n    )\n        external\n        payable\n        onlyActiveState(_signer)\n    {\n        SignerInformation memory si = signerIndex[_signer];\n        require(si.owner == msg.sender, \"only for the owner\");\n\n        In3Node storage node = nodes[si.index];\n\n        bytes32 newURl = keccak256(bytes(_url));\n\n        // the url got changed\n        if (newURl != keccak256(bytes(node.url))) {\n\n            // deleting the old entry\n            delete urlIndex[keccak256(bytes(node.url))];\n\n            // make sure the new url is not already in use\n            require(!urlIndex[newURl].used, \"url is already in use\");\n\n            UrlInformation memory ui;\n            ui.used = true;\n            ui.signer = msg.sender;\n            urlIndex[newURl] = ui;\n        }\n\n        if (msg.value > 0) {\n            node.deposit += msg.value;\n        }\n\n        checkNodeProperties(node.deposit, _timeout);\n\n        if (_props != node.props) {\n            node.props = _props;\n        }\n\n        if (_timeout > node.timeout) {\n            node.timeout = _timeout;\n        }\n\n        if (_weight != node.weight) {\n            node.weight = _weight;\n        }\n\n        node.proofHash = calcProofHash(node);\n\n        emit LogNodeRegistered(\n            node.url,\n            _props,\n            msg.sender,\n            node.deposit\n        );\n    }\n\n    /// @notice length of the nodelist\n    /// @return the number of total in3-nodes\n    function totalNodes() external view returns (uint) {\n        return nodes.length;\n    }\n\n    /// @notice calculates the sha3 hash of the most important properties in order to make the proof faster\n    /// @param _node the in3 node to calculate the hash from\n    /// @return the hash of the properties of an in3-node\n    function calcProofHash(In3Node memory _node) internal pure returns (bytes32) {\n\n        return keccak256(\n            abi.encodePacked(\n                _node.deposit,\n                _node.timeout,\n                _node.registerTime,\n                _node.props,\n                _node.signer,\n                _node.url\n            )\n        );\n    }\n\n    /// @notice function to check whether the allowed amount of ether as deposit per server has been reached\n    /// @param _deposit the new amount of deposit a server has\n    /// @param _timeout the timeout until a server can receive his depoist after unregistering\n    /// @dev will fail when the deposit is greater then 50 ether in the 1st year\n    /// @dev will fail when the provided timeout is greater then 1 year\n    function checkNodeProperties(uint256 _deposit, uint64 _timeout) internal view {\n\n        // solium-disable-next-line security/no-block-members\n        if (block.timestamp < (blockTimeStampDeployment + YEAR_DEFINITION)) { // solhint-disable-line not-rely-on-time\n            require(_deposit < MAX_ETHER_LIMIT, \"Limit of 50 ETH reached\");\n        }\n        require(_timeout <= YEAR_DEFINITION, \"exceeded maximum timeout\");\n    }\n\n    /// @notice registers a node\n    /// @param _url the url of a node\n    /// @param _props properties of a node\n    /// @param _timeout the time before the owner can access the deposit after unregistering a node\n    /// @param _signer the address that signs the answers of the node\n    /// @param _owner the owner address of the node\n    /// @param _deposit the deposit of a node\n    /// @param _weight the amount of requests per second a node is able to handle\n    /// @dev reverts when time timeout exceed the MAXDEPOSITTIMEOUT\n    /// @dev reverts when provided not enough deposit\n    /// @dev reverts when trying to register a node with more then 50 ether in the 1st year after deployment\n    /// @dev reverts when either the owner or the url is already in use\n    function registerNodeInternal (\n        string memory _url,\n        uint64 _props,\n        uint64 _timeout,\n        address _signer,\n        address payable _owner,\n        uint _deposit,\n        uint64 _weight\n    )\n        internal\n    {\n\n        // enforcing a minimum deposit\n        require(_deposit >= 10 finney, \"not enough deposit\");\n\n        checkNodeProperties(_deposit, _timeout);\n\n        bytes32 urlHash = keccak256(bytes(_url));\n\n        // make sure this url and also this owner was not registered before.\n        // solium-disable-next-line\n        require(!urlIndex[urlHash].used && signerIndex[_signer].stage == Stages.NotInUse,\n            \"a node with the same url or signer is already registered\");\n\n        // sets the information of the owner\n        signerIndex[_signer].stage = Stages.Active;\n        signerIndex[_signer].index = nodes.length;\n        signerIndex[_signer].owner = _owner;\n\n        // add new In3Node\n        In3Node memory m;\n        m.url = _url;\n        m.props = _props;\n        m.signer = _signer;\n        m.deposit = _deposit;\n        m.timeout = _timeout > 1 hours ? _timeout : 1 hours;\n        // solium-disable-next-line security/no-block-members\n        m.registerTime = uint64(block.timestamp); // solhint-disable-line not-rely-on-time\n        m.weight = _weight;\n\n        m.proofHash = calcProofHash(m);\n        nodes.push(m);\n\n        // sets the information of the url\n        UrlInformation memory ui;\n        ui.used = true;\n        ui.signer = _signer;\n        urlIndex[urlHash] = ui;\n\n        emit LogNodeRegistered(\n            _url,\n            _props,\n            _signer,\n            _deposit\n        );\n    }\n\n    /// @notice handes the setting of the unregister values for a node internally\n    /// @param _si information of the signer\n    /// @param _n information of the in3-node\n    function unregisterNodeInternal(SignerInformation  storage _si, In3Node memory _n) internal {\n\n        // solium-disable-next-line security/no-block-members\n        _si.lockedTime = uint64(block.timestamp + _n.timeout);// solhint-disable-line not-rely-on-time\n        _si.depositAmount = _n.deposit;\n        _si.stage = Stages.DepositNotWithdrawn;\n\n        removeNode(_si.index);\n    }\n\n    /// @notice removes a node from the node-array\n    /// @param _nodeIndex the nodeIndex to be removed\n    function removeNode(uint _nodeIndex) internal {\n        // trigger event\n        emit LogNodeRemoved(nodes[_nodeIndex].url, nodes[_nodeIndex].signer);\n        // deleting the old entry\n        delete urlIndex[keccak256(bytes(nodes[_nodeIndex].url))];\n        uint length = nodes.length;\n\n        assert(length > 0);\n\n        // reset the index position\n        signerIndex[nodes[_nodeIndex].signer].index = 0;\n\n        // move the last entry to the removed one.\n        In3Node memory m = nodes[length - 1];\n        nodes[_nodeIndex] = m;\n\n        SignerInformation storage si = signerIndex[m.signer];\n        si.index = uint64(_nodeIndex);\n        nodes.length--;\n    }\n}\n",
  "sourcePath": "/Users/mkuechler/Documents/in3-stuff/in3-contracts/contracts/NodeRegistry.sol",
  "compiler": {
    "name": "solc",
    "version": "0.5.10+commit.5a6ea5b1.Linux.g++"
  },
  "schemaVersion": "3.0.10",
  "updatedAt": "2019-08-19T14:45:50.489Z",
  "devdoc": {
    "methods": {
      "constructor": {
        "details": "cannot be deployed in a genesis block",
        "params": {
          "_blockRegistry": "address of a BlockhashRegistry-contract"
        }
      },
      "convict(uint256,bytes32)": {
        "details": "The v,r,s paramaters are from the signature of the wrong blockhash that the node provided",
        "params": {
          "_blockNumber": "the blocknumber of the wrong blockhash",
          "_hash": "keccak256(wrong blockhash, msg.sender, v, r, s); used to prevent frontrunning."
        }
      },
      "registerNode(string,uint64,uint64,uint64)": {
        "details": "will call the registerNodeInteral function",
        "params": {
          "_props": "properties of the node",
          "_timeout": "timespan of how long the node of a deposit will be locked. Will be at least for 1h",
          "_url": "the url of the node, has to be unique",
          "_weight": "how many requests per second the node is able to handle"
        }
      },
      "registerNodeFor(string,uint64,uint64,address,uint64,uint8,bytes32,bytes32)": {
        "details": "will call the registerNodeInteral functionin order to prove that the owner has controll over the signer-address he has to sign a messagewhich is calculated by the hash of the url, properties, timeout, weight and the ownerwill revert when a wrong signature has been provided",
        "params": {
          "_props": "properties of the node",
          "_r": "r of the signed message",
          "_s": "s of the signed message",
          "_signer": "the signer of the in3-node",
          "_timeout": "timespan of how long the node of a deposit will be locked. Will be at least for 1h",
          "_url": "the url of the node, has to be unique",
          "_v": "v of the signed message",
          "_weight": "how many requests per second the node is able to handle"
        }
      },
      "removeNodeFromRegistry(address)": {
        "details": "only callable by the unregisterKey-accountonly callable in the 1st year after deployment",
        "params": {
          "_signer": "the signer-address of the in3-node"
        }
      },
      "returnDeposit(address)": {
        "details": "reverts when not the owner of the former in3-nodereverts when there is nothing to transferreverts if the deposit is still locked",
        "params": {
          "_signer": "the signer-address of a former in3-node"
        }
      },
      "revealConvict(address,bytes32,uint256,uint8,bytes32,bytes32)": {
        "details": "reverts if a block with that number cannot be found in either the latest 256 blocks or the blockhash registryreverts when tryin to convict someone with a correct blockhashreverts when trying to reveal immediately after calling convictreverts when the _signer did not sign the blockreverts when the wrong convict hash (see convict-function) is used",
        "params": {
          "_blockNumber": "number of the wrongly provided blockhash",
          "_blockhash": "the wrongly provided blockhash",
          "_r": "r of the signature",
          "_s": "s of the signature",
          "_signer": "the address that signed the wrong blockhash",
          "_v": "v of the signature"
        }
      },
      "totalNodes()": {
        "return": "the number of total in3-nodes"
      },
      "transferOwnership(address,address)": {
        "details": "reverts when trying to change ownership of an inactive nodereverts when trying to pass ownership to 0x0reverts when the sender is not the current ownerreverts when inacitivity is claimed",
        "params": {
          "_newOwner": "the new owner",
          "_signer": "the signer-address of the in3-node, used as an identifier"
        }
      },
      "unregisteringNode(address)": {
        "details": "reverts when the provided address is not an in3-signerreverts when the node is already unregisteringreverts when not called by the owner of the node",
        "params": {
          "_signer": "the signer of the in3-node"
        }
      },
      "updateNode(address,string,uint64,uint64,uint64)": {
        "details": "reverts when the sender is not the owner of the nodereverts when the signer does not own a nodereverts when trying to increase the timeout above 10 yearsreverts when trying to change the url to an already existing one",
        "params": {
          "_props": "the new properties, will be changed if different from the current onec",
          "_signer": "the signer-address of the in3-node, used as an identifier",
          "_timeout": "the new timeout of the node, cannot be decreased. Has to be at least 1h",
          "_url": "the url, will be changed if different from the current one",
          "_weight": "the amount of requests per second the node is able to handle"
        }
      }
    },
    "title": "Registry for IN3-nodes"
  },
  "userdoc": {
    "methods": {
      "constructor": "constructor",
      "convict(uint256,bytes32)": {
        "notice": "commits a blocknumber and a hashmust be called before revealConvict"
      },
      "registerNode(string,uint64,uint64,uint64)": {
        "notice": "register a new node with the sender as owner"
      },
      "registerNodeFor(string,uint64,uint64,address,uint64,uint8,bytes32,bytes32)": {
        "notice": "register a new node as a owner using a different signer address"
      },
      "removeNodeFromRegistry(address)": {
        "notice": "removes an in3-server from the registry"
      },
      "returnDeposit(address)": {
        "notice": "returns the deposit after a node has been removed due to inactivityonly callable after the timeout of the deposit is over"
      },
      "revealConvict(address,bytes32,uint256,uint8,bytes32,bytes32)": {
        "notice": "reveals the wrongly provided blockhash, so that the node-owner will lose its deposit"
      },
      "totalNodes()": {
        "notice": "length of the nodelist"
      },
      "transferOwnership(address,address)": {
        "notice": "changes the ownership of an in3-node"
      },
      "unregisteringNode(address)": {
        "notice": "a node owner can unregister a node, removing it from the nodeListdoing so will also lock his deposit for the timeout of the node"
      },
      "updateNode(address,string,uint64,uint64,uint64)": {
        "notice": "updates a node by adding the msg.value to the deposit and setting the props or timeout"
      }
    }
  }
}